:020000040001F9
:10D00000D0460020EDD1010007D2010009D2010075
:10D010000000000000000000000000000000000010
:10D020000000000000000000000000000BD2010022
:10D0300000000000000000000DD201000FD201002E
:10D0400011D2010011D2010079DC010011D20100DE
:10D0500069DB010000000000EDD80100EBD8010001
:10D0600011D2010011D2010075DC010011D20100C2
:10D0700011D2010011D2010011D2010011D2010020
:10D0800011D2010041DB010011D2010011D20100D7
:10D09000F9DB010011D2010005DC010011D2010011
:10D0A00011D2010011D201000000000000000000B8
:10D0B0000000000000000000000000000000000070
:10D0C00000F002F800F034F80CA030C8083824183A
:10D0D0002D18A246671EAB4654465D46AC4201D1B0
:10D0E00000F026F87E460F3E0FCCB64601263342AE
:10D0F00000D0FB1AA246AB4633431847D08300004A
:10D10000F08300000023002400250026103A01D3FC
:10D1100078C1FBD8520700D330C100D50B607047EF
:10D120001FB50098019900F0BCFA1FBD10B510BDE5
:10D1300000F037FB1146FFF7F3FF04F0C9F900F0E8
:10D140004FFB03B4FFF7F2FF03BC00F07DFB0000D0
:10D15000056885F3088846680A4AEFF305839A4212
:10D16000304602D1084CA6463047074C064D0646CD
:10D17000064FF0B4034C034D024E024FF0B4044886
:10D180000047000000000000FFFFFFFF000000213B
:10D19000F9FFFFFF401E00BF00BF00BF00BF00BF80
:10D1A00000BF00BF00BF00BF00BF00BF00BFF1D184
:10D1B0007047000070B505460C46164602E00FCCDD
:10D1C0000FC5103E102EFAD2082E02D303CC03C591
:10D1D000083E042E07D301CC01C5361F03E0217899
:10D1E0002970641C6D1C761EF9D270BD03210C4899
:10D1F00002680A4302600B4802680A4302600A4858
:10D2000080470A480047FEE7FEE7FEE7FEE7FEE745
:10D21000FEE7000006480749074A084B7047000030
:10D2200024050040540500403DDC0100C1D0010050
:10D23000D0360020D0460020D03E0020D03E002036
:10D2400070B5064600F010FA056830460B30C40889
:10D25000E400B44201D8002070BD68682A46002866
:10D2600018D00168A14211D30B46214608318B42E8
:10D2700008D3436801194B6003681B1B0B605160A6
:10D28000046001E041685160001D70BD02464068C5
:10D290000028E6D12146284600F0EEF90028DCD12E
:10D2A00070BDFEB5054610460C46184373D0AE4619
:10D2B0008C460020AD1A01469C4167D36646002784
:10D2C00001243D46B61A9D4102D313463A46212415
:10D2D000654676462F04360C3E432D0CB61A9D410A
:10D2E00004D3150C1B042B431204103465467646F8
:10D2F0002F06360A3E432D0AB61A9D4104D3150E59
:10D300001B022B4312020834654676462F07360966
:10D310003E432D09B61A9D4104D3150F1B012B4323
:10D320001201241D65467646AF07B6083E43AD0898
:10D33000B61A9D4104D3950F9B002B439200A41C69
:10D3400065467646EF0776083E436D08B61A9D415E
:10D350001AD392185B41641C16E0001876466546A5
:10D360004941B71A9D410191009009D36046B11A15
:10D3700098418E468446009801990025401C6941D9
:10D38000DD0752082A435B08641EE6D572466346F1
:10D3900003B0F0BDFFE700200146C046C0462A4664
:10D3A0002346F5E7034610B50B439B070FD1042A2C
:10D3B0000DD308C810C9121FA342F8D018BA21BA59
:10D3C000884201D9012010BD0020C04310BD002AB1
:10D3D00003D0D30703D0521C07E0002010BD037810
:10D3E0000C78401C491C1B1B07D103780C78401C8F
:10D3F000491C1B1B01D1921EF1D1184610BD000023
:10D4000030B5441C03E00178401C00290DD0810791
:10D41000F9D10B4BDD0104C8D11A91432940FAD050
:10D42000001B0A0603D0C01E30BD001B30BD0A041D
:10D4300001D0801E30BD0902FCD0401E30BD00006E
:10D4400001010101F8B5042A2CD3830712D00B780F
:10D45000491C0370401C521E83070BD00B78491CDB
:10D460000370401C521E830704D00B78491C0370C4
:10D47000401C521E8B079B0F05D0C91ADF002023CA
:10D48000DE1B08C90AE0FFF795FEF8BD1D4608C976
:10D49000FD401C46B4402C4310C0121F042AF5D294
:10D4A000F308C91A521EF0D40B78491C0370401CB3
:10D4B000521EEAD40B78491C0370401C012AE4D4A4
:10D4C00009780170F8BD01E004C0091F0429FBD2EE
:10D4D0008B0701D50280801CC90700D002707047FD
:10D4E00000290BD0C30702D00270401C491E02293C
:10D4F00004D3830702D50280801C891EE3E7002243
:10D50000EEE70022DFE7002203098B422CD3030A57
:10D510008B4211D300239C464EE003460B433CD480
:10D52000002243088B4231D303098B421CD3030AE8
:10D530008B4201D394463FE0C3098B4201D3CB0118
:10D54000C01A524183098B4201D38B01C01A524148
:10D5500043098B4201D34B01C01A524103098B424C
:10D5600001D30B01C01A5241C3088B4201D3CB0037
:10D57000C01A524183088B4201D38B00C01A52411A
:10D5800043088B4201D34B00C01A5241411A00D2CA
:10D5900001465241104670475DE0CA0F00D0494233
:10D5A000031000D34042534000229C4603098B42A3
:10D5B0002DD3030A8B4212D3FC22890112BA030A2B
:10D5C0008B420CD3890192118B4208D389019211AD
:10D5D0008B4204D389013AD0921100E08909C30932
:10D5E0008B4201D3CB01C01A524183098B4201D334
:10D5F0008B01C01A524143098B4201D34B01C01A1F
:10D60000524103098B4201D30B01C01A5241C30896
:10D610008B4201D3CB00C01A524183088B4201D305
:10D620008B00C01A5241D9D243088B4201D34B0020
:10D63000C01A5241411A00D20146634652415B1062
:10D64000104601D34042002B00D549427047634643
:10D650005B1000D3404201B50020C046C04602BD69
:10D6600070477047704700000048704778360020C8
:10D67000704770477047704738B504460A46002027
:10D680006946C046C046002805D00246204600999B
:10D6900000F066F8012038BD10B5012000F07AF8DE
:10D6A00010BDF8B5C046C046054600200C46102007
:10D6B000C0460646A819A0420DD932466946002048
:10D6C000C046C046070001D100F064F80098A042AF
:10D6D00000D00546C419FFF7C7FFF61D07460560D1
:10D6E000F008C0004619284600F008F8B44204D0FB
:10D6F00031463868A21B00F033F8F8BD0021016004
:10D700004160806070471020704770B50446051F67
:10D71000FFF7AAFF0068002C1AD0446801E02046F9
:10D720006468002C01D0AC42F9D301680A18AA42FF
:10D7300004D12A6805468918016000E04560286820
:10D740004119A14205D161686960216840182860CB
:10D7500070BD6C6070BD00000048704770360020DE
:10D7600010B50346406801E003464068002801D038
:10D770008842F9D31868C3188B4206D0CB1CD8084E
:10D78000C000001D411A521A0146081D0A60FFF729
:10D79000BCFF10BD10B500F02FF800F027F810BD49
:10D7A00070477546FFF7D8FFAE46050069465346F9
:10D7B000C008C000854618B020B5FFF72BFD60BC3F
:10D7C00000274908B6460026C0C5C0C5C0C5C0C5AB
:10D7D000C0C5C0C5C0C5C0C5403D49008D467047E5
:10D7E0000446C046C0462046FFF7ABFC10B50028F3
:10D7F00001D000F029F810BD10B5012805D0002196
:10D8000003A000F027F8012010BD09A1F8E70000EF
:10D8100053494752544D454D3A204F7574206F6619
:10D820002068656170206D656D6F72790000000081
:10D830003A2048656170206D656D6F727920636F65
:10D84000727275707465640001491820ABBEFEE702
:10D850002600020070B505460C460A2000E06D1C4B
:10D8600000F012F8002D06D028780028F7D102E049
:10D87000641C00F009F8002C02D020780028F7D1B1
:10D880000A2000F001F870BD08B569460870032051
:10D89000ABBE08BD70B58C180578401C6B075B0FDC
:10D8A00001D10378401C2A1106D10278401C03E004
:10D8B0000678401C0E70491C5B1EF9D12B0705D45D
:10D8C0000023521E0DD40B70491CFAE70378401C4C
:10D8D000CB1A921C03E01D780D70491C5B1C521E74
:10D8E000F9D5A142D8D3002070BD7047F0B585B0FE
:10D8F0002748056900202749C86300263FE0142017
:10D9000070432549096844180120B040234909683B
:10D910000840002831D0E068C043684021680840D2
:10D9200007463946204606F00BF919480069684059
:10D930000390039800280ED003980543E068C04385
:10D9400068402168084000902046009906F0F8F8E9
:10D950000098074300BFA068A84338400190606862
:10D96000284038400290019902980843002803D0CB
:10D97000226901990298904700BF701CC6B20848FE
:10D9800000788642BBDB00F0ADF805B0F0BD0000CA
:10D990000005005040610040842500207C250020C7
:10D9A00081250020C206D20E01219140014A11605A
:10D9B0007047000080E200E0C206D20E01219140D3
:10D9C000014A11607047000000E100E0C206D20E7B
:10D9D00001219140014A11607047000000E100E020
:10D9E000C206D20E01219140014A11607047000029
:10D9F00000E200E010B5002819DA1A4A03071B0FED
:10DA0000083B9B089B00D2588307DC0EFF23A340F2
:10DA10009A438B071B0E8407E40EA3401A43114B55
:10DA20000407240F083CA408A4001A5118E00E4A69
:10DA300003231B02D21883089B00D2588307DC0EF5
:10DA4000FF23A3409A438B071B0E8407E40EA340D9
:10DA50001A43054B032424021B198408A4001A51FD
:10DA600010BD00001CED00E000E100E010B5002852
:10DA700019DA1A4A03071B0F083B9B089B00D25870
:10DA80008307DC0EFF23A3409A438B071B0E8407FA
:10DA9000E40EA3401A43114B0407240F083CA408CA
:10DAA000A4001A5118E00E4A03231B02D21883085F
:10DAB0009B00D2588307DC0EFF23A3409A438B07B9
:10DAC0001B0E8407E40EA3401A43054B03242402D3
:10DAD0001B198408A4001A5110BD00001CED00E0C1
:10DAE00000E100E010B5002004F02EFA002004F060
:10DAF00023FA0F48C06B002818D000200C49C863D7
:10DB00000C48006901210906084000280ED10A4886
:10DB1000007800280AD1094806F0B1F8002803D09F
:10DB200001200549087001E002F06AFF10BD000005
:10DB30004061004000050050592400206C30002056
:10DB400010B5002007490860002106484160816047
:10DB5000C1600020034940390860486006F0B6FF04
:10DB600010BD00004011014010B51B48806A00281C
:10DB70001FD000201849886218480078012816D163
:10DB80001748006817494860174800681549403928
:10DB90004863164800688863154800681149886022
:10DBA000012014498862022006F00CF900E000BF51
:10DBB00000BF0948406800280CD000200649486092
:10DBC00006480078022803D1032006F0FBF800E0A5
:10DBD00000BF00BF10BD000000410040F424002041
:10DBE000E424002040450040E8240020F0240020E8
:10DBF000EC2400200040004010B505F0B3FD06F015
:10DC0000DBFC10BD70B50C480068002810D00A4835
:10DC100000688047044600BF2546002D06D000BF9F
:10DC200000221146284600F001FB00BF00BF01E0C2
:10DC300003F052FA70BD0000B425002010B503F0C7
:10DC40000FFB002805D0074807494860C81307495B
:10DC5000886103F0E9FA002802D0012004498860B5
:10DC600010BD0000DFFF07C000050040006C004051
:10DC700000060040704700001CB52448806800285A
:10DC800024D000202149886021488069C1B2214800
:10DC900000F008FB0446002C08D0012069460870FB
:10DCA000019468461C49096888470EE01948C06815
:10DCB00018498968401A012807D100206946087070
:10DCC000684615490968884700BF00BF0F48C0690A
:10DCD000002805D000200D49C861032004F082FB14
:10DCE0000A48406A00280FD00020084948620848C6
:10DCF0008038046804600220694608700194684610
:10DD000005490968884700BF1CBD0000002100408C
:10DD100000250040743500206825002030B474468A
:10DD2000641E2578641CAB4204D3635D5B00E3187A
:10DD300030BC18471D46F8E710B50648C0680549CD
:10DD40008968401A02D000F007F801E000F02EF8D0
:10DD500010BD00008435002008B50F480078022867
:10DD600002D001200D49886069460D4800F088FA0C
:10DD7000002802D000F01AF808BD80200949886008
:10DD8000684600780849C86102200349087080206D
:10DD90000449486000BFEFE76C25002000200040E8
:10DDA0008435002000230040002500401CB50120E0
:10DDB0000549C8600549087003206946087068462F
:10DDC0000349096888471CBD002000406C250020DD
:10DDD0006825002000200549087001200449C8601A
:10DDE0004860002003490860704700006C2500204F
:10DDF000002000400025004070B501201F49486008
:10DE000018201F49486000201E49086001201C4955
:10DE1000086007202ADF044600BF2546002D06D0F3
:10DE200000BF00221146284600F000FA00BF00BFE4
:10DE3000032107202BDF044600BF2546002D06D016
:10DE400000BF00221146284600F0F0F900BF00BFD5
:10DE5000072026DF044600BF2546002D06D000BF60
:10DE600000221146284600F0E1F900BF00BF002063
:10DE70000449086001200449086070BD0073004037
:10DE8000007500400071004000700040F8B5044685
:10DE90000F4616460025002030702078002809D053
:10DEA00032463946204603F0E9FF0546002D01D0F1
:10DEB0002846F8BDA078002808D03146384600F042
:10DEC00045FB0546002D01D02846F2E7A088002832
:10DED0000ADD33463A460121201D07F072F9054656
:10DEE000002D01D02846E4E7E06800280BD0002090
:10DEF000E16808563246394607F03CF90546002DE0
:10DF000001D02846D5E7208A00280CDD3B460622B2
:10DF1000022120461030009607F0FDF90546002D3D
:10DF200001D02846C5E7208B00280CDD3B460722A0
:10DF3000032120461830009607F0EDF90546002D24
:10DF400001D02846B5E7208C00280CDD3B46152281
:10DF5000142120462030009607F0DDF90546002DFB
:10DF600001D02846A5E7A06A002809D032463946E4
:10DF7000A06A01F095FA0546002D01D0284698E7E1
:10DF8000E06A002809D032463946E06A03F0DEFA3A
:10DF90000546002D01D028468BE73420005D00287F
:10DFA00009DD32463946204605F089FE0546002D3A
:10DFB00001D028467DE728467BE70146888800286F
:10DFC00008D08868002805D08868007804221040AE
:10DFD000002801D1072070470020FCE731B592B03E
:10DFE00004210391164A07CA6B4607C3022015494C
:10DFF0000870382104A8FFF784FA022168460174EA
:10E0000001218174818212A9069103A8079003213E
:10E010006846018469460991002104A800F011FBBB
:10E02000044600BF2546002D06D000BF0022114641
:10E03000284600F0FBF800BF00BF13B030BD000061
:10E04000305402001224002030B59BB011A804F017
:10E0500007FB044600BF2546002D06D000BF002266
:10E060001146284600F0E2F800BF00BF11980028D2
:10E0700004D001205A4908701BB030BD142116A8E5
:10E08000FFF73FFA002110A801760020179018A88A
:10E0900001700020199053480078002806D001280C
:10E0A00008D002284DD003287ED166E001204D49DA
:10E0B000087000BF082110A80173017509A812900B
:10E0C00001A8149012A9484802F02CFC044600BF95
:10E0D0002546002D06D000BF00221146284600F03C
:10E0E000A5F800BF00BF10A8007B002803D110A82E
:10E0F000007D00280BD0022018A9087012A81990E2
:10E100000420FFF76BFF02203649087002E003206D
:10E11000344908702921090110A80185642141852D
:10E12000032000F073FD044600BF2546002D06D0F5
:10E1300000BF00221146284600F078F800BF00BF5B
:10E140003BE00520FFF74AFF2921090110A80185BE
:10E150006421418502202349087000F057FD0446E0
:10E1600000BF2546002D06D000BF002211462846DC
:10E1700000F05CF800BF00BF1FE00520FFF72EFF96
:10E180001921C90110A80185B42141850320154931
:10E190000870042000F03AFD044600BF2546002D1B
:10E1A00008D000BF002200E006E01146284600F03B
:10E1B0003DF800BF00BF00E000BF00BF16A873DF3E
:10E1C000044600BF2546002D06D000BF00221146A0
:10E1D000284600F02BF800BF00BF00BF4CE700004E
:10E1E00019240020122400201824002070B574DFA8
:10E1F000044600BF2546002D06D000BF0022114670
:10E20000284600F013F800BF00BF002000F0FEFC1D
:10E21000044600BF2546002D06D000BF002211464F
:10E22000284600F003F800BF00BF70BD00BF00BF6C
:10E2300000BF00BF00BFBFF34F8F00BF00BF00BFD4
:10E2400006480749C86000BF00BF00BFBFF34F8F3B
:10E2500000BF00BF00BF00E000BFFDE70400FA05FB
:10E2600000ED00E0F8B504460D4616460348076881
:10E27000324629462046B847F8BD000068350020E0
:10E280000246D0689368C01A0AD0906893881840F4
:10E290001368185C08709068401C906000207047FC
:10E2A0000520FCE70246D0689368C01A938898421C
:10E2B00009D8D0689388184013681954D068401C56
:10E2C000D060002070470420FCE70000F8B5044649
:10E2D00017480078142148431549091D0E5C081F92
:10E2E0000078142148431249091D40188068000134
:10E2F00010490D580E480078142148430C49091D57
:10E3000040184088091F0090097814225143084A98
:10E31000121D89180B69111F097814225143044AF0
:10E32000121D89180846083022463146A847F8BD14
:10E33000943500206036002070B503460C4619481D
:10E340000068002801D1082070BD002A01D10720F3
:10E35000FAE7002B01D10720F6E700211CE024207A
:10E360004843104D2D68285C002814D10125242035
:10E3700048430C4E3668355424204843094D2D68D7
:10E380004019447024204843064D2D68401982618D
:10E3900019600020D8E7491C034800788142DEDB81
:10E3A0000420D1E78C25002088250020FFB581B00E
:10E3B0000E4617461C4620468107890F002901D1C9
:10E3C000012100E00021002902D1072005B0F0BDA5
:10E3D000002C01D10720F9E705F042FB26490A98F5
:10E3E0000860264806702648046000250CE00021DD
:10E3F00024206843224A1268115424206843204A8A
:10E400001268801801756D1CB542F0DB2420704342
:10E41000041903201B4908701B48046018340025A8
:10E420000CE0E900184A1268881800210170417058
:10E4300087704460182179430C196D1C032DF0DBA3
:10E440000020C0431149086000201149087011499B
:10E4500008701420FFF7A6FA03211420FFF706FB2B
:10E460001420FFF7B3FA019805F0D0FA05F0C8FAC6
:10E47000094908600020A9E7AC2500208825002074
:10E480008C25002090250020942500209825002030
:10E49000A8250020A92500209C250020FEB50446C3
:10E4A0000D46164616480068002801D10820FEBD1A
:10E4B00014480078844201D2052D01D20720F6E7E6
:10E4C000242060430E490968085C012801D0082017
:10E4D000EDE7242060430A49096840184078012884
:10E4E00001D1284600E00020074606F0EBFE3B463F
:10E4F0002A4621460096019006F09EFAD7E70000D2
:10E500008C2500208825002070B504460D48006841
:10E51000002801D1082070BD0B480078844201D347
:10E520000720F8E72420604306490968085C0128B1
:10E5300001D00820EFE706F0C5FE0546214606F0AB
:10E54000A5FAE8E78C25002088250020F8B50546C7
:10E550000C462078001D1F2801DD0C20F8BD684600
:10E5600079DF0646002E01D03046F7E703212278F6
:10E57000501C2070A95419212278501C2070A954D5
:10E58000207841196846008806F012FE217840186C
:10E5900020700020E2E710B5044620780300FFF762
:10E5A000BDFB050B04080E1115006168A0688847C3
:10E5B0000DE0606880470AE06068804707E06068B7
:10E5C000804704E0201D03F0DDFA00BF00BF00BF5C
:10E5D00010BD10B50446FFF70FFC10BDF7B504469B
:10E5E00000220023002000BF27E0A55C2807000FC1
:10E5F000092808DC002806DB05463035EEB21D464A
:10E600005B1C4E5505E005465735EEB21D465B1CBA
:10E610004E55A55C2811092808DC002806DB0546B4
:10E620003035EEB21D465B1C4E5505E005465735AC
:10E63000EEB21D465B1C4E55521C029DAA42D4DB15
:10E64000FEBDF3B593B00D460021129111911398C0
:10E65000002814D01398FFF7B0FC0446002C02D019
:10E66000204615B0F0BD12AA09A91398FFF70EFCB9
:10E670000446002C01D02046F3E709AE00E0002656
:10E68000002D13D0284605F035FC0446002C01D09F
:10E690002046E6E711AA01A92846FFF7F7FB044642
:10E6A000002C01D02046DCE701AF00E0002710A8D5
:10E6B00003793A46017A304672DFD2E770B50546F3
:10E6C0001C2229461448FEF775FD002013490870E6
:10E6D000286800280BD0082211482968FEF7B2FEEE
:10E6E0000F487ADF0446002C08D0204670BD0C4845
:10E6F0007BDF0446002C01D02046F7E70020C04312
:10E7000008490880002008490870084A0021084884
:10E71000FFF712FEEAE700004C34002048250020F5
:10E72000302500203A2500203825002029520200FB
:10E730004425002010B504462088102806D0112852
:10E7400008D012280ED0502810D107E0204603F040
:10E75000D3FC0CE0204603F0D7FD08E0204603F090
:10E760007DFE04E0204603F0B7FC00E000BF00BFE0
:10E7700010BD000010B502480068FFF7C5FE10BDCF
:10E780004425002070B586B004460E46002C04D007
:10E79000002E02D07068002802D10E2006B070BD95
:10E7A0000020C0432080204B0FCB01AD0FC51F4878
:10E7B00069468882163101A863DF0546002D01D025
:10E7C0002846EBE7221D05A90120A0DF0546002D04
:10E7D00001D02846E2E76846807DA071204601F01E
:10E7E000DBF90546002D01D02846D7E7204601F089
:10E7F00063F90546002D01D02846CFE73146204673
:10E8000001F034FA0546002D01D02846C6E77068AD
:10E81000A062B068002801D0B068E062012004491D
:10E8200008700020BAE700005854020030150000BC
:10E83000FC24002070B505460C46002D01D0002CAC
:10E8400000D170BDA86A00281FD02088102806D0EB
:10E8500011280ED0502807D0512814D10EE021469F
:10E86000284603F045FC0FE02146284603F0E0FD72
:10E870000AE02146284603F043FD05E021462846EC
:10E8800003F064FD00E000BF00BF00BFD9E7000057
:10E8900070B586B004460D461646002C02D10E20F7
:10E8A00006B070BD20881A49884203D01948007804
:10E8B000002801D10820F3E70021019110216846CA
:10E8C0008288501C83B21448019381546846818821
:10E8D000481C82B210480192455468468188481C01
:10E8E00082B20D4801924654002002900390049099
:10E8F0000590218A68460181012181720021818170
:10E9000001A8049004480590208802A9A6DFC7E763
:10E91000FFFF0000FC240020FD24002010B5044669
:10E92000204601F061FB2046FFF704FF204603F07C
:10E9300063FB204604F046FF21460248FFF77AFFBA
:10E9400010BD0000182A0020F8B500BF0023502297
:10E9500022490E2005F056FA054600BF2E46002E2D
:10E9600006D000BF002211463046FFF75FFC00BF13
:10E9700000BF00BF002000900090684660DF0446A2
:10E9800000BF2546002D06D000BF002211462846B4
:10E99000FFF74CFC00BF00BF114805F027FA044602
:10E9A00000BF2546002D06D000BF00221146284694
:10E9B000FFF73CFC00BF00BF0A4805F057FA0446C9
:10E9C00000BF2546002D06D000BF00221146284674
:10E9D000FFF72CFC00BF00BFF8BD0000682D002031
:10E9E0001DE90100A14202007CB50446A1786A46F7
:10E9F0000D4803F04BFE0546002D13D16178182217
:10EA000051430A4A88181C231822694603F050FF14
:10EA10000748807A800007490A582146684690478F
:10EA2000054600BF7CBD00004C2500202C35002091
:10EA300068350020A854020070B52148006880475E
:10EA4000B1203CDF044600BF2546002D06D000BFA4
:10EA5000002211462846FFF7E9FB00BF00BF11DF87
:10EA6000044600BF2546002D06D000BF00221146F7
:10EA70002846FFF7DBFB00BF00BF1249486913DFE0
:10EA8000044600BF2546002D06D000BF00221146D7
:10EA90002846FFF7CBFB00BF00BF0B4800780028DB
:10EAA00001D000F0CDFF162001218140074A1160FE
:10EAB00000BF02F06FFB0349486900F009F870BD20
:10EAC00004250020001000100C25002080E200E04A
:10EAD00010B504462046FEF73BFB10BDF8B50546D1
:10EAE0000E4600270024012E16D10C48006800288D
:10EAF00012D000E0641C042C04D2A000084908587D
:10EB0000A842F7D1042C01D20648075D002F03D09C
:10EB10003846024909688847F8BD000024250020CE
:10EB2000685402002825002030B50246042A10D27D
:10EB3000094C2469E34300209400084D2D5D012415
:10EB4000AC401C40002C01D0012400E000240C70DB
:10EB500000E0072030BD00000005005068540200AE
:10EB600030B5034600224AE09000274C215801208E
:10EB700090401840002822D00520000707242402D6
:10EB800000198C00005903242404A0430524240701
:10EB900007252D0264198D00605105200007072408
:10EBA000240200198C000059032424042043052466
:10EBB000240707252D0264198D0060511EE00520F1
:10EBC00000070724240200198C00005903242404A0
:10EBD000A0430524240707252D0264198D006051E8
:10EBE000052000070724240200198C000059052481
:10EBF000240707252D0264198D006051521C042A38
:10EC0000B2D3002030BD00006854020070B5044645
:10EC1000002506480078C007C00F002803D0204612
:10EC200000F006F80546284670BD000018250020B3
:10EC3000F8B50446002500262300FFF76FF8180DED
:10EC400018195C9FF7F5F4F3F2F1F0EFEEEDECEB51
:10EC5000EAE9E8E7E6E5E4E300BF0B204005FB490D
:10EC600088600020C86000BFF94804704FE200BF10
:10EC700000BF05208005F54988600020C86000BFFE
:10EC8000084640680F2149054840012149050840D0
:10EC900000280FD000BF0846EC4988600020C860FB
:10ECA00000BF022C02D1E120C00001E07D20400124
:10ECB00006460EE000BF01204005E449C860002080
:10ECC000886000BF022C01D1C82001E0FF209130F4
:10ECD0000646DF48047064213046FEF714FCDD4927
:10ECE00009684843074600223946DB480068FFF7B9
:10ECF000D5FB05460BE200BF05208005D34988609F
:10ED00000020C86000BF084640680F214905484000
:10ED100001214905084000280FD000BF0846CB4913
:10ED200088600020C86000BF032C02D11920400178
:10ED300001E07D20400106460EE000BF01204005B5
:10ED4000C249C8600020886000BF032C01D1C820E0
:10ED500001E0FF2091300646BD4804706421304632
:10ED6000FEF7D1FBBB4909684843074600223946F4
:10ED7000B9480068FFF792FB0546C8E100BF0520CF
:10ED80008005B24988600020C86000BF084640681E
:10ED90000F214905484001214905084000280FD0AE
:10EDA00000BF0846A94988600020C86000BF042C45
:10EDB00002D17D20400101E07D20400106460FE0A8
:10EDC00000BF01204005A149C8600020886000BF45
:10EDD000042C02D1FF20913001E0FF209130064643
:10EDE0009B48047064213046FEF78DFB9949096801
:10EDF000484307460022394697480068FFF74EFB14
:10EE0000054684E182E176E174E161E14EE13BE1B6
:10EE10002FE1F4E0F2E0F0E0EEE0ECE0E2E0C9E067
:10EE2000B2E099E082E06FE042E0FFE700BF05203A
:10EE30008005864988600020C86000BF0846406899
:10EE40000F214905484001214905084000280ED0FE
:10EE500000BF08467D4988600020C86000BF052CBF
:10EE600001D1C82001E07D20400106460EE000BF30
:10EE7000012040057549C8600020886000BF052C4E
:10EE800001D1C82001E0FF2091300646704804708F
:10EE900064213046FEF737FB6E4909684843074650
:10EEA000002239466C480068FFF7F8FA05462EE163
:10EEB00000BF05208005654988600020C86000BF4C
:10EEC000084640680F21490548400121490508408E
:10EED000002806D000BF08465C4988600020C86052
:10EEE00007E000BF012040055849C8600020886045
:10EEF00000BF574804705748002201685648006810
:10EF0000FFF7CCFA054602E100BF052080054F4916
:10EF100088600020C86000BF00BF01204005C860B5
:10EF20000020886000BF4A480470F0E000BF4749F5
:10EF30004868012189058143444A9160012189057E
:10EF40000140D16000BF4348002201684248006888
:10EF5000FFF7A4FA0546DAE000BF3C494868012102
:10EF600089058143394A9160012189050140D160B9
:10EF700000BF3848006882008118002236480068C7
:10EF8000FFF78CFA0546C2E000BF3049486801210E
:10EF9000890581432D4A9160012189050140D16095
:10EFA00000BF2C48002201682B480068FFF776FA62
:10EFB0000546ACE000BF2549486801218905814329
:10EFC000224A9160012189050140D16000BF21489A
:10EFD00000688200811800221F480068FFF75EFA6F
:10EFE000054694E000BF0F2040051849C860002086
:10EFF000886000BF8BE000BF00BF00BF00BF1748A4
:10F000000068FFF781FA05461120061B002E27D065
:10F01000002D25D1012E10D9C82171430846642145
:10F02000FEF771FA0B490968484307460022394642
:10F030000A480068FFF732FA054600BF0120C00504
:10F040000249C8600020886012E0000000050050FE
:10F0500010250020142500201C250020202500203C
:10F0600000BF0120C0052B4988600020C86000BF98
:10F070004DE000BF0F204005264988600020C86091
:10F0800000BF2548047042E000BF072080052149E9
:10F0900088600020C86000BF00BF01204005C86034
:10F0A0000020886000BF1C48047030E000BF0D20C5
:10F0B0004005184988600020C86000BF00BF0120DB
:10F0C0008005C8600020886000BF134804701EE0FF
:10F0D00000BF0320C0050F4988600020C86000BF42
:10F0E00000BF03204005C8600020886000BF0A48B8
:10F0F00004700CE000BF00BF0F2040050549C86048
:10F100000020886000BF0448047000E000BF00BF1A
:10F110002846F8BD0005005010250020F0B585B048
:10F120000F2758480078142148435649091D4418B0
:10F13000E5682078022804D0042823D005286FD160
:10F140006FE0206903905048008886026088801B29
:10F150000490039880190390A08880194519012113
:10F1600089020498884206D20498820828460399A6
:10F1700021DF074605E0FF2201322846039921DFFF
:10F18000074676E0A06800014049401800890490D5
:10F19000A0680001401840890390A0680001401851
:10F1A000406802900298A84205D103990498484308
:10F1B0006188884202D0A06802280DD10120000792
:10F1C000006981B22846FEF79EF92F490988461842
:10F1D000304620DF074622E001200007006981B2A7
:10F1E0002846FEF790F9064601200007006980B224
:10F1F0007043281A8008019001200007006980B23E
:10F20000711C484361884919401A800800903146B2
:10F210002046009B019A04F01DFF074600BF28E02E
:10F2200026E001200007006981B22846FEF76BF94D
:10F230000646A088411901200007006980B270438A
:10F24000081A80080490A08840196188421801209B
:10F250000007006980B2711C4843801A800803903F
:10F2600031462046039B049A04F0F4FE074600E072
:10F2700000BF00BF002F02D101200249887038462C
:10F2800005B0F0BD943500207825002060360020C0
:10F2900010B5002406484078002807DDFFF73EFF40
:10F2A0000446002C02D0112C00D10024204610BDB1
:10F2B000943500200023142141430C4A5354142157
:10F2C000414389184B8001231421414389188B60E5
:10F2D0000023142141438918CB601421414389182C
:10F2E0000B611421414389188B80704798350020A9
:10F2F000FFB581B0064617460024204840780A280A
:10F3000037D01E4800781D4949784018C4B20A2CED
:10F3100002DB20460A38C4B2142060431749091D95
:10F320000E541420604340180761142060434118B4
:10F33000029805C8CA608860142060430F4A121DF5
:10F340008018049941801420604380180A998180B4
:10F350000025101F8078002805D1FFF7DFFE054645
:10F36000112D00D1002505484078401C0349487004
:10F3700000E00425284605B0F0BD000094350020CB
:10F3800010B500200849088008490870084908702D
:10F3900048708870002403E02046FFF78BFF641C50
:10F3A0000A2CF9D310BD0000782500207B25002011
:10F3B00094350020FEB51E480068401C002834D05B
:10F3C0001B480068242148431A49096840184568C9
:10F3D00004F016FB0190184804682146019804F0D7
:10F3E0006BFFC61C15480078002801D104F01AFBF9
:10F3F000AE4201D2284600E0304604192402240A15
:10F4000020460F49086000BF04F0FAFA0090019905
:10F41000009804F051FFC71C2046019904F04CFFEE
:10F42000874201D905F0A0FB01E004F019FBFEBD05
:10F43000982500208C2500209C250020B025002048
:10F440004015014001460888062808DB0888192273
:10F45000D201904205DD0888104A904201D0072071
:10F4600070474888062808DB48881922D201904254
:10F4700005DD4888094A904201D00720F0E7088856
:10F48000064A904208D04888904205D008884A88A9
:10F49000904201DD0720E3E70020E1E7FFFF0000E5
:10F4A000F8B506460D4614462078801D1F2801D960
:10F4B0000C20F8BD3046FFF7C5FF0746002F01D0EE
:10F4C0003846F6E705212278501C2070A9541221F5
:10F4D0002278501C2070A95422785119308805F0E8
:10F4E00067FE21784018207022785119708805F045
:10F4F0005FFE2178401820700020DAE710B504463E
:10F5000000BF002211462046FEF790FE00BF10BD4E
:10F5100030B587B01C216846FDF7F3FF002000904E
:10F520000520C00301900F200004029003216846CB
:10F5300001730021C18101210174002005900A4856
:10F5400006906846FFF7BAF8044600BF2546002D2E
:10F5500006D000BF002211462846FEF767FE00BF16
:10F5600000BF07B030BD0000FDF4010038B51F48F2
:10F5700001F048FE002829D11D48007800280AD053
:10F580001C484069002820D000200090194841699B
:10F590006846884719E018480078002802D11548C5
:10F5A000456801E013488568002229461348006831
:10F5B000FEF774FF0446002C07D00E48806900282F
:10F5C00003D00C488169204688470AE00948406911
:10F5D000002806D001200090064841696846884707
:10F5E00000BF00200249087038BD00003C25002003
:10F5F000482500204C3400203825002044250020D8
:10F6000070B503460C460820002115E00C254D433B
:10F610000B4EAD19AD7A2540002D0CD0094DAB42F3
:10F6200005D00C254D43AD192D899D4202D11160A5
:10F63000002003E00520491C0029E7D000BF70BD71
:10F640005C350020FFFF000010B5044601210C20AE
:10F6500060430A4A80188172891E0C20604380181A
:10F660000181FF210C2060438018C1720C2161438D
:10F6700088180721FDF743FF10BD00005C3500200E
:10F6800010B514484068C105C90D002920D00A46AC
:10F69000103A50B200280DDA0E4B1C330407240F29
:10F6A000083CA408A4001B598407E40EE3401B0691
:10F6B0009B0F0BE0084B032424021B198408A400B1
:10F6C0001B598407E40EE3401B069B0FD8B210BD04
:10F6D0000420FCE700ED00E000E100E0FEB5044698
:10F6E0000E46A1786A46284802F0D0FF0546002D54
:10F6F00049D160780C21484324494018807A202160
:10F700000840202801D0022E01D1214F04E0012E13
:10F7100001D1204F00E0204FA0781C2250431F4A07
:10F72000811800231C226846B8470546002D1AD1CF
:10F73000022E18D060780C21484314494018807A72
:10F740002021884361780C225143104A891888721D
:10F75000607818225043124A81181C2318226846E8
:10F76000B847054600BF022E0DD020780C21484333
:10F770000C494018807A80000B490A582146684697
:10F780009047054600BFFEBD4C2500205C3500209B
:10F79000492D02001D2B02004D400200683400205C
:10F7A0002C3500206835002098540200F8B5054635
:10F7B0000E461B4F00242EE01C20604319494018C0
:10F7C000807EFF2826D13078022814D01C20604388
:10F7D0004018807E022188431C216143114A891808
:10F7E00088761C216143891808461030072231466B
:10F7F000FDF728FE0BE01C2060430A494018807E7C
:10F80000410849001C206043064A801881762C700C
:10F81000002702E0641C072CCED300BF3846F8BD99
:10F820004380000068340020F8B505460E461746B0
:10F830000520009000241BE0002D06D11C20604311
:10F840000E494018008BB8420DD0002D0FD01C215E
:10F8500061430A4A89180846103007222946FDF7F5
:10F86000A1FD002803D134600020009002E0641C58
:10F87000072CE1D300BF0098F8BD000068340020D9
:10F88000F8B507460D46144600BF2646002E06D0A2
:10F8900000BF002211463046FEF7C8FC00BF00BF83
:10F8A0002878122808D0142802D0212808D100BFB7
:10F8B000384600F0B1F803E0002000F0ADF800BFDA
:10F8C00000BF0020F8BD00007FB502F07FFF0446B6
:10F8D00000BF2546002D06D000BF00221146284655
:10F8E000FEF7A4FC00BF00BF03A90120FFF71CF92D
:10F8F000044600BF2546002D06D000BF0022114659
:10F900002846FEF793FC00BF00BF03A800F05EFE90
:10F91000044600BF2546002D06D000BF0022114638
:10F920002846FEF783FC00BF00BF062101A8023075
:10F93000FDF7E5FD1E216846C180007A40084000C1
:10F94000401C694608726846007A0221884369466D
:10F9500008726846007A1C2188430C306946087298
:10F960006846007A20218843694608720721684664
:10F970004172102181720B4800900121684601718B
:10F980006946094800F094FF044600BF2546002D53
:10F9900006D000BF002211462846FEF747FC00BFF4
:10F9A00000BF7FBD81F8010018240020F8B506468D
:10F9B0000C4620780300FEF7B1F90A060D0E0A0B7B
:10F9C0000C10110F1209FFF737F81BE000BF00BF42
:10F9D00000BF00BF00BF00BF00BF00BF00BF0322C9
:10F9E00001213046FEF754FF054600BF2F46002F89
:10F9F00006D000BF002211463846FEF717FC00BFB4
:10FA000000BF00BF00BFF8BD70470000014908609B
:10FA1000704700000425002010B504460020064968
:10FA20000870002C07D0042221460448FDF70AFD87
:10FA300001200149087010BD0C2500200825002078
:10FA400030B587B001A91A4800F062FD044600BF36
:10FA50002546002D06D000BF002211462846FEF79D
:10FA6000E5FB00BF00BF0598014610310722114891
:10FA7000FDF7E8FC14220F4824380499FDF7E2FC56
:10FA800010220C4810380599FDF7DCFC0948243891
:10FA900000DF044600BF2546002D06D000BF00222F
:10FAA00011462846FEF7C2FB00BF00BF07B030BDBD
:10FAB000082500204234002010B58EB004461C21D9
:10FAC00007A8FDF71EFD6846007F082188434118FE
:10FAD00068460177007F1021884341186846017706
:10FAE000002008900A900B900C900D90A179684628
:10FAF0008171284981800020009000BF684600780D
:10FB000001090901684601700078F02188436946BF
:10FB1000087000BF00BF6846407801090901491C10
:10FB2000684641704078F02188431030694648703B
:10FB300000BF6846807806218843811C6846817032
:10FB400080780821884301466846817080781021BA
:10FB50008843411868468170807841084900491CF3
:10FB600068468170142102A8FDF7CBFC01A8029021
:10FB70006846039000210182418217218182002082
:10FB80000690A0882346103302AA07A9A2DF0EB070
:10FB900010BD00003115000010B58EB004461C21C8
:10FBA00007A8FDF7AEFC6846007F04218843011DCD
:10FBB00068460177002008900A900B900C900D90F9
:10FBC000A17968468171284981800020009000BF9A
:10FBD0006846007801090901684601700078F02143
:10FBE00088436946087000BF00BF68464078010935
:10FBF0000901491C684641704078F0218843103063
:10FC00006946487000BF6846807806218843811C99
:10FC10006846817080780821884301466846817073
:10FC200080781021884301466846817080784108B9
:10FC30004900491C68468170142102A8FDF761FC47
:10FC400001A802906846039000210182418214219C
:10FC5000818200200690A0882346083302AA07A9C3
:10FC6000A2DF0EB010BD00003215000030B58FB01D
:10FC700004460D461C2108A8FDF743FC08A800789F
:10FC800002218843811C08A80170002009900B9074
:10FC90000C900D900E90A1796846817228490181DF
:10FCA0000020019000BF6846007901090901491C44
:10FCB000684601710079F021884310306946087167
:10FCC00000BF00BF684640790109090168464171DB
:10FCD0004079F02188436946487100BF68468079C1
:10FCE00006218843811C68468171807908218843F8
:10FCF0000146684681718079102188430146684633
:10FD00008171807941084900491C6846817114213C
:10FD100003A8FDF7F6FB02A8039001A804900221B6
:10FD2000684681820021C182022101830795A08853
:10FD30002346203303AA08A9A2DF0FB030BD00007C
:10FD40003415000030B585B0142213496846FDF71C
:10FD500031FA124871DF022201A91048401CFEF757
:10FD60003DFC1F200E490880881C7DDF0546684643
:10FD7000FDF746FB0446224669460948801CFDF70C
:10FD800061FB6846FDF73CFB0549088005490648CC
:10FD9000FDF7B5FB05B030BD1C5402000124002066
:10FDA000CC25002002040000FA250020F3B585B020
:10FDB0000020049006980A2801DA07B0F0BD0499E3
:10FDC0000598401803900C227F480399FDF73AFBF1
:10FDD0000498801DC0B204900499059844182078B6
:10FDE0004008029002980300FDF798FF05042EA03A
:10FDF000CBDAE90060788008032800DADDE72079B3
:10FE00007249096888420AD1607971490968884253
:10FE100005D1A0796F490968884200D1CDE72079E2
:10FE20006A49086060796A490860A0796949086090
:10FE30000B461B889AB2664B1B8899B2634B1B8892
:10FE400098B202F0EBFFBBE060788008012800DA8E
:10FE5000B3E720796049087060480078002809D12C
:10FE600008460078002805D003F0C0FD01205B495A
:10FE700008700CE059480078002808D056480078EF
:10FE8000002804D104F0A8F8002054490870534811
:10FE90000078002800D190E74F480078642802DD00
:10FEA00064204D4908704C4800780A2802DA0A207C
:10FEB0004949087045490968FF22511A464A127893
:10FEC000514308466421FDF728FBC5B2012D00DA35
:10FED0000125FE2D00DDFE253D490968FF22511A4E
:10FEE0003D4A1278514308466421FDF716FBC6B21D
:10FEF000012E00DA0126FE2E00DDFE2635490968B6
:10FF0000FF22511A344A1278514308466421FDF702
:10FF100004FBC7B2012F00DA0127FE2F00DDFE2708
:10FF20003A463146284602F079FF49E06078800879
:10FF3000012800DA41E722212948FDF7E0FA1F20D5
:10FF40002749088060788208211D2548801CFDF71C
:10FF500079FA607880082249088000BF68460079F5
:10FF600001090901491C019168460079F021884383
:10FF70001030019000BF1A480288811C01A87CDF64
:10FF80001EE01C211748FDF7BAFA0321154800F0BE
:10FF9000E5FF14221349891D022003F0DDFC0FE068
:10FFA0001C211048FDF7ABFA04210E4800F0D6FFE3
:10FFB00014220C49891D022003F0CEFC00E000BF92
:10FFC00000BF00BFF9E60000EE2500202824002035
:10FFD0002C240020302400200F240020082400209E
:10FFE000CC250020FC290020F0B589B0044600266D
:10FFF000FF20029000BFFE480078002801D109B020
:020000040002F8
:10000000F0BD00BF00BFFB480068002800D1F6E744
:1000100000BF06A800F0CCFA054600BF2F46002F0F
:1000200006D000BF002211463846FEF7FFF800BF99
:1000300000BF0020019007900025201D049034216E
:1000400068468182FF218176002101760020089098
:100050002088102813D0A08808AA0221FFF7D0FA20
:100060000546002D0BD10C2108984843E249401861
:10007000C17A684681760898C1B268464176208880
:10008000142879D006DC10280BD0112879D0132839
:1000900074D1F5E0172872D0182871D05228F7D102
:1000A00006E208AF3A460121D448FFF7A9FA0090CA
:1000B0000098002807D102210C2238685043CE4A0C
:1000C0008018817201E00420009000980546002D00
:1000D00051D101261121684601730898C1B26846C2
:1000E0004176A1880C2208985043C34A80180181A8
:1000F00002210C2208985043BF4A801881720C22BA
:1001000008995143BC4A88180722A11DFDF79AF9A6
:10011000607B304000280AD0607B4008B849085C0A
:10012000FF280AD0607B4008085C029005E0B34AD3
:1001300002A9A01DFFF778FB0546002D1BD10298F0
:10014000C1B20C2208985043AB4A8018C1720C21EE
:100150000898484311464018807A082108430C2229
:1001600008995143A44A891888726946029888768A
:1001700006A8FEF739FCA5E141E002E0A1E1C0E0FC
:1001800075E10C21089848439B494018807A022168
:1001900088430C2208995143974A891888720C2188
:1001A0000898484311464018807A082108400828DA
:1001B0000ED10C210898484311464018807A4021FE
:1001C000084040280FD1002106A8FFF787FA0AE06F
:1001D0006846807EFF2806D06946887E02F0C0F916
:1001E000FF206946887610210C2208985043824AE5
:1001F00080188172012612206946087362E10C2181
:10020000089848437C494018C07AFF2823D1E289E6
:1002100002A90020FFF708FB0546002D1BD102981C
:10022000C1B20C2208985043734A8018C1720C2145
:100230000898484311464018807A082108430C2248
:10024000089951436C4A89188872694602988876E1
:1002500006A8FEF7C9FB0C210898484366494018D8
:10026000C07AFF2806D018210898484365494018ED
:10027000001D0190A0880022019981DF054621E13F
:10028000132069460873A0885A4A121D00217FDF97
:100290000546002D02D00795002631E00C21089874
:1002A000484355494018807A042108430C22089994
:1002B0005143514A8918887201260C2108984843F5
:1002C00011464018C07AFF281AD000BF1620694690
:1002D00008731822089951434B4A8918081D1421A4
:1002E000FDF70FF90C210898484343494018807ADC
:1002F000202108430C22089951433F4A89188872EB
:10030000E0E00C21089848433B494018807A0421DA
:1003100088430C2208995143374A8918887214205F
:10032000694608730126A079002802D0A0790790B9
:100330009CE018210898484332494118E07A8870B7
:100340001821089848432F494118A07A487018226C
:10035000089951432B4A8918081D142221460C3153
:10036000FDF770F80C210898484323494018807A1B
:1003700040210840402879D10C21089848431E4963
:100380004018807A082108430C22089951431A4AE0
:10039000891888720C210898484311464018C07A81
:1003A000FF2851D10C22089850430A46811802A810
:1003B000FFF7FCF90546002D44D16946029888767E
:1003C0000298C1B20C22089850430B4A8018C1729F
:1003D000A1891C22029850430C4A80180183E07ABC
:1003E0004007C00F002828D01C22029951430FE07B
:1003F00058250020683500205C350020FFFF0000F4
:10040000592500202C350020443500206834002078
:100410003A4A8818102221462031FDF713F81C2192
:100420000298484335494018807E410849001C2203
:1004300002985043314A80188176012106A8FFF7BF
:100440004DF913E0079511E00C21089848432C4919
:100450004018807A202108430C2208995143284AE9
:1004600089188872002106A8FFF738F92AE00C21C4
:100470000898484322494018807A402108430C22BA
:10048000089951431E4A89188872152069460873D5
:100490000020079001261B48807A80001A4A1158D4
:1004A00006A888470546002D01D01848079009E0A6
:1004B0001448807A8000144A115806A8884707908B
:1004C00000E000BF00BF002E16D003A906A8079ABF
:1004D000FDF7C8FE6846007B12280DD100BF0C2135
:1004E0000898484306494018807A012802D00898A5
:1004F000FFF7AAF800BF00BF00BF80E56834002006
:100500005C35002068350020B854020041800000AE
:10051000024600BF21480078002801D120487047DA
:1005200000BF002A02D11E48801DF8E7002902D131
:100530001B48801DF3E700BF1078012806DA107809
:100540000C235843174B1858002801D11448E6E7EC
:1005500000BF00BF9078072807DA90781C23584323
:10056000114BC018807EFF2802D10D480830D6E715
:1005700000BF5078182358430C4BC018001DC860AA
:1005800090781C235843084BC3180B6100234B6120
:10059000002048608860086000BFC0E75825002040
:1005A0000880000068350020683400202C350020C9
:1005B0000146002901D104487047FF2008704870A7
:1005C0008870C8700020F7E70E8000007FB50646EF
:1005D000002E02D1354804B070BD00240BE000BFEE
:1005E00000210C206043324A11500C2060438018D7
:1005F000817200BF641C002CF1D0002403E020466F
:10060000FFF722F8641C002CF9D018212948FCF7C8
:1006100078FF002406E0204601F0A2FFFF202649D3
:100620000855641C072CF6D35021684681810721A8
:10063000C18122480290224902A802F0AFF9054682
:10064000002D30D101201F4908703078002821D1B9
:1006500000241CE0A1B26A46194802F017F80546CA
:10066000002D0FD11C216143174A881800231C223A
:10067000694602F01DF90546002D07D000201149FA
:10068000087006E000200F49087002E0641C072C87
:10069000E0D308E06A469089D289504381B2084885
:1006A00002F03CF80546284695E700000E80000061
:1006B000683500204435002059250020CD06020071
:1006C0004C2500205825002068340020FFB58BB051
:1006D0000F461D4600BF6F480068002801D10FB0CB
:1006E000F0BD00BF1498502800D9F8E7012002900F
:1006F00007A8FFF75DFF064600BF0196019E002E8A
:1007000006D000BF002211460198FDF78FFD00BF03
:1007100000BF00216846017708A80170069514986B
:1007200005900020019017E0019881B203AA5A4871
:1007300001F0ACFF0646002E0BD1082203A90B984E
:10074000FCF730FE002804D10198C1B268468177D9
:1007500005E00198401C019001980728E4D300BFF0
:100760006846807FFF287BD0042F0AD11498502838
:1007700003D1202008A9087066E0402008A908706D
:1007800062E04649681A1C21FCF7BDFE0446072CAE
:100790001DD205A809900D98002810D16946887FC0
:1007A000012181403E4A12681140002901D00121F7
:1007B00000E00021002902D10020029044E06946B7
:1007C000887F04F027FD202008A908703CE0354907
:1007D000681A1821FCF797FE0446002C0DD105A8D5
:1007E0000990202108A8017068464477807F1C2169
:1007F00048432A494018069026E02B49681A1821D8
:10080000FCF781FE0446002C19D1302108A80170A4
:10081000684644770121C1770C2060432349401882
:10082000807A0221084002280ED06946497F1822AA
:1008300051431D4A88181821FCF763FE04E000208C
:100840000290402008A90870029801281FD1042FA7
:1008500007D108A908780321084308A908700FE008
:1008600015E0032F06D108A908780121084308A93B
:10087000087005E008A908780221084308A9087053
:1008800005A8099008A907A80D9AFDF7EBFC00BF81
:1008900025E70000683500204C2500206834002042
:1008A000542500202C350020443500205C350020E4
:1008B00070B505460C4600BF17480078002801D1E6
:1008C000164870BD00BF002D02D11448801DF8E706
:1008D000002C02D11148801DF3E72068002802D1C6
:1008E0000E48801DEDE70E48006800280FD10C4926
:1008F000206808600622A11D0948001DFCF7A2FD22
:1009000020790749887200202870002601E0034EF4
:10091000361F3046D5E7000058250020088000002B
:1009200068350020F0B5044600BF30480078002844
:1009300001D12F48F0BD00BF002C02D12C48801DF2
:10094000F8E7002902D12A48801DF3E7086800284B
:1009500002D12748801DEDE78868002802D124488D
:10096000801DE7E700BF2078012806DA20780C25F3
:100970006843204D2858002801D11D48DAE700BF00
:1009800000230022002024E01C2545431A4EAD1907
:10099000AD7EED07ED0F002D08D11C254543AD19A7
:1009A00097008E68F551154EB054521C1C254543D6
:1009B000114EAD19AD7E02263540002D08D11C2503
:1009C00045430D4EAD1910359F000E68F5515B1C67
:1009D000401C072805D20D799D4202D90D7B954216
:1009E000D2D80B710A730020A4E70000582500201C
:1009F0000880000068350020683400205925002058
:100A0000F8B5214E002000900220204908700020F7
:100A100000F07AF800271E4803F014F9002826D1C8
:100A20001C491B4803F0CCF8002820D01948407816
:100A3000801CC0B20090174E24211748FCF75FFDC0
:100A4000272315493046009A03F01CFA044600BFDC
:100A50002546002D06D000BF002211462846FDF78E
:100A6000E5FB00BF00BF012701200C490870002FE3
:100A700003D1012000050A49C860002001F064FA92
:100A8000002001F059FAF8BD582400205924002014
:100A90000A310020CF310020A93100205A24002043
:100AA00000050050014614480078144A127890421C
:100AB0001DD011480078401C0F4A10701046007875
:100AC000022801D1002010700B48007880000C4AE9
:100AD000105808600B4A086812688018094A1060AC
:100AE000104600680002000A1060012070470020D4
:100AF000086000BFFAE70000A8250020A925002013
:100B0000A02500209C250020002804D00121C90731
:100B1000034A516003E00121C907014A916070470F
:100B20000063004010B507490968074A914201D99E
:100B3000114601E0034909680846012104F0CCF898
:100B400010BD000094240020A08601000448007815
:100B500004490978884201D1012070470020FCE750
:100B6000B0240020B1240020024800780249087017
:100B700070470000B0240020B12400200548007810
:100B8000083005490978884201D1012070470020CA
:100B9000FCE70000B1240020B024002070B504461A
:100BA000FFF7D4FF002801D00E2070BD002C0DD01F
:100BB0000A4800784007400F30214843084945184B
:100BC000302229462046FCF7F5FA00BF034800789A
:100BD000401C024908700020E7E70000B124002013
:100BE0000832002070B50446FFF7C8FF002809D07E
:100BF00000BF042600BF002211460420FDF716FBAB
:100C000000BF00BF0A4800784007400F302148432A
:100C100008494518302221462846FCF7CBFA0448FB
:100C200001780078401C024A10704807400F70BDE0
:100C3000B024002008320020F0B50346002426E04E
:100C4000164E366824277E43154F3F68F0194668D4
:100C50009E4203D94668F61A46601DE046689B1B13
:100C6000466834190026466006750C4E35680B4FF1
:100C7000066A3E600669002E08D00E193602360A52
:100C800086600669C66016680662156000BF034884
:100C90000068401C0028D3D100BFF0BD982500207B
:100CA0008C2500203EB500BF684600780109090187
:100CB000491C009168460078F0218843103000906C
:100CC00000BF27480288811C68467CDF044600BFBD
:100CD0002546002D06D000BF002211462846FDF70C
:100CE000A5FA00BF00BF0920800178DF044600BFDD
:100CF0002546002D06D000BF002211462846FDF7EC
:100D000095FA00BF00BF002001900290FF219131B1
:100D1000684681804900C18000210181FF21913115
:100D2000418101A87ADF044600BF2546002D06D088
:100D300000BF002211462846FDF778FA00BF00BF29
:100D4000042077DF044600BF2546002D06D000BFF3
:100D5000002211462846FDF769FA00BF00BF3EBDDC
:100D6000CC25002001460020704702460020704735
:100D70000246002070470000F8B504460026002710
:100D80006078182148431949085800281FD0607816
:100D90000C21484316494018807A402108404028D9
:100DA00015D160780C21484311494018807A2021E0
:100DB000084020280BD06078182148430B49401880
:100DC000061D6078182148430849085A87B261789F
:100DD0000C225143064A891808893A463146A9DF50
:100DE0000546002D00D0034D2846F8BD44350020AF
:100DF0005C3500204180000070B505460C466178E6
:100E0000182251430C4A881834231822294601F02D
:100E10004FFD0646002E0DD1607818214843064943
:100E20000858401C002805D1002160781822504342
:100E3000014A1150304670BD44350020F0B587B0EE
:100E400007460C461420019061780C225143294A30
:100E50008918088901AA02A9AADF0646002E46D1F0
:100E6000617818225143244A8918081D69468A88E6
:100E700002A9FCF797FA002812D160780C214843A8
:100E80001C494018807A0221084002282FD061783E
:100E900018225143184A88181821FCF732FB26E023
:100EA00060781821484314490858002801D0134D90
:100EB00000E0134D694689886078182250430E4A35
:100EC00011506178182251430B4A8918081D694650
:100ED0008A8802A9FCF76EF9607818225043064A06
:100EE0008118342318223846A847064600BF002040
:100EF00007B0F0BD5C35002044350020492D0200CC
:100F00001D2B020070B505462846FFF735FF044645
:100F1000002C02D100BF00BF0446204670BD70B552
:100F200005460E4631462846FFF766FF0446002C6C
:100F300002D100BF00BF0446204670BD70B5054613
:100F40000E4631462846FFF779FF0446002C02D1B1
:100F500000BF00BF0446204670BD0000F3B581B05D
:100F6000054600240298032802D004284BD122E031
:100F70002E19062225493046FCF764FA0622244938
:100F8000B01DFCF75FFA20460C30C4B206222046A2
:100F9000611CCCB22A5407222046611CCCB22A54D0
:100FA00000222046611CCCB22A5428190622184976
:100FB000FCF748FA28E02F19062214493846FCF7B6
:100FC00041FA06221249B81DFCF73CFA20460C30C3
:100FD000C4B22E193078FE21884308303070707802
:100FE000FC2188430B4909888900FC2211400843F1
:100FF00070700020B070F07006480288811C301DAF
:10100000FCF720FA00E000BF00BFFEBDF425002081
:1010100002240020CC250020002026E01549820073
:101020008958012906D001218140134A12781140C4
:10103000002918D0012181400F4A12788A430E49B5
:101040000A700146083101228A400C498A60012158
:1010500081400B4A12788A4309490A7000220549E7
:101060008300CA507047411CC8B20428D6DBFF2059
:10107000F8E70000408100405E24002000F50140B8
:101080005C24002010B5152000F04CFF0023032243
:101090001521184600F074FF162000F043FF0023CE
:1010A00003221621012000F06BFF172000F03AFF09
:1010B000002303221721022000F062FF00211520E7
:1010C00000F04AFF0021162000F046FF0021172003
:1010D00000F042FF10BD0000F8B529480078002854
:1010E00000D1F8BD27480068002801D1012000E0A8
:1010F0000020054624480068002801D1012000E0B6
:101100000020064600BF002D14D1684651DF04467A
:10111000052C01D101250CE0002C06D000BF0022D7
:1011200011462046FDF782F803E016490098096849
:10113000884700BF002E1AD11448008800906946E5
:101140001348006861DF0446052C01D101260DE03B
:10115000002C06D000BF002211462046FDF766F89D
:1011600004E00B48006808490968884700BF002D63
:1011700002D0002E00D000E0C5E700BF00BFB0E7FE
:10118000B8250020C8250020C4250020C025002047
:10119000BC25002010B500200A490A680FE0012193
:1011A00081401140002909D041B2CC06E40E012350
:1011B000A340044C8034236000BF00BF401C2028A3
:1011C000EDD310BD00E100E0FEB504460220019021
:1011D000A08A6B4601AA0021A5DF0546002D07D095
:1011E000E06A002802D02846E16A88470020FEBD58
:1011F0006E46304603F0D6FF0746F807C00F00BF23
:10120000F5E7000001464888064A1288904206DB4E
:101210004888044A5288904201DC0120704700202F
:10122000FCE70000302500200C48008CC0B20128EB
:1012300012D10A48808C0007000F00280CD1074803
:10124000806AF0210840402806D10448C06A08405E
:10125000002801D1012070470020FCE7C00F00F0FA
:101260001948008CC0B201282CD11748808C000787
:10127000000F002826D11448806AF0210840002879
:1012800006D11148C06A0840002801D101207047EA
:101290000D48806AF0210840102806D10A48C06A2B
:1012A0000840002801D10120F1E70748806AF021B9
:1012B0000840302806D10448C06A0840002801D1FF
:1012C0000120E4E70020E2E7C00F00F001468807B4
:1012D000800F002801D1012070470020FCE70000AA
:1012E000FEB52B48006801902A480078009040E045
:1012F0000098C000284909684418257835E018206E
:10130000684361680F18681CC5B2A078A84200D174
:1013100000253878022802D0032823D10EE02421AA
:10132000786848431D4909684618307D002804D074
:10133000786803F0E1F90020307514E00CE01449FE
:10134000096824225143154A126888180021017542
:101350000F4A016A116000BF0D480068401C002858
:10136000EDD100E000BF00BF00BF6078A842C6D149
:1013700000BF0098411EC9B200910028B8D10448AE
:1013800001680198814201D00120FEBD0020FCE7E8
:101390009825002090250020942500208C250020F1
:1013A000FEB5074643480068029043480078019024
:1013B00071E00198C00041490968451863E0781C54
:1013C000002807D03E46242070433D490968441850
:1013D000276A29E02978182359436A685018297820
:1013E000491C29702978AA78914201D100212970DD
:1013F000466824217143324A12688C180178012909
:1014000002D1217D002900D03DE08168A160C16842
:10141000E160016921614169E1612A490978002996
:1014200001D00021A16000BF2749A0680968401AC7
:101430000002000A2549884208D22349A0680968A9
:1014400002F03AFFE1684018606011E01E48A168B0
:10145000006802F031FF0090E1680098814204D9F1
:10146000E1680098081A606001E00020606000BF39
:101470000020A060E06001202075801E20623046C0
:1014800003F0CCF800BF781C002898D12878697840
:10149000884294D100BF0198411EC9B20191002831
:1014A00087D1044801680298814201D00120FEBD25
:1014B0000020FCE79825002090250020942500209E
:1014C0008C250020B12500209C250020FFFF7F00F7
:1014D0001FB503F04FFB01F0FDFC02F019FD02F017
:1014E00011FDFDF731FAFEF72DFCFEF7EDF9FFF7E0
:1014F000D9FB0520FCF772FD02F028FCFEF708F886
:101500001148009064200290262168460171022152
:101510004171002141730321017368460FC802F035
:10152000BFF9044600BF2546002D06D000BF0022AB
:1015300011462846FCF77AFE00BF00BFFCF784FD89
:1015400000BF01F035F8FCE78FA641A5F8B50546C8
:101550000E4614462879801CC7B22078801CC0191A
:101560001F2801DD0C20F8BD781CC1B22278501C68
:101570002070B154FF212278501C2070B154227881
:101580009119288803F014FE217840182070A8884B
:1015900000280EDDA868002801D10720E3E7AA880B
:1015A00023789819A968FBF74DFF2078297940180E
:1015B00020700020D7E7000030B593B00446607A71
:1015C000272806DC6068052803D3544960688842F0
:1015D00002D9072013B030BD0020129000BF10A820
:1015E000007A01090901491C10A80172007AF02152
:1015F0008843103010A9087200BF00BF10A8407ABD
:1016000001090901491C10A84172407AF021884360
:10161000103010A9487200BF10A8807A06218843B4
:10162000811C10A881721C210BA8FBF76AFF08A877
:10163000007B02218843811C08A80173007B1021D4
:101640008843411808A8017300200E9012A810903A
:1016500000200C900F900A9008A8007AF02188438F
:101660000146103108A80172007A01090901491CDC
:1016700008A80172407AF02188430146103108A879
:101680004172407A01090901491C08A84172807A17
:1016900008218843014608A88172807A1021884376
:1016A000014608A88172807A4108490008A8817221
:1016B000807A06218843811C08A881721848017825
:1016C00008A88171022168468184206806906068BC
:1016D0000790217A08A80170617A4170142101A84D
:1016E000FBF70FFF0921684681810021C181092193
:1016F000018209A8019006A805900AA8029009494C
:1017000008890B460A3301AA0BA9A2DF0546002D62
:1017100001D003205EE700205CE7000060EA0000E3
:1017200034240020B82D0020FFB581B004460F46B8
:101730001D4618480078002802D1082005B0F0BDE9
:1017400015480078A04201DB002C01D11020F5E7FC
:101750001C210398018010494A68611E49015118F3
:1017600088783B460021039AA5DF0646002E01D06B
:101770000320E3E7002D0AD007484268601E4001BD
:1017800010180146083107222846FBF75BFE0020AF
:10179000D4E7000035240020B82D0020FFB585B027
:1017A00006460F463E480078002802D1082009B0BE
:1017B000F0BD3C480078B04201DB002E01D1102082
:1017C000F5E76846808B1C2801DD0920EFE700253E
:1017D00034484168701E40010C182088401C20804D
:1017E000E078C007C00F0121484004900498002809
:1017F00008D0E07803210843E0702046103003F061
:10180000F5FA03E02046103003F05EFB089800284C
:1018100002D1049800280CD002A871DF072202A987
:1018200020460830FBF7C6FCE07804210843E0704E
:1018300000BF1D4800881D49884224D0A178684611
:10184000018000218180039707A80290012168464A
:101850008170694614480088A6DF0546002D11D026
:101860001348854204D10020C0430F49088009E095
:10187000522D05D1002211460B480088A9DF01E056
:10188000032094E709E0A0783B4607AA0021A4DFE3
:101890000546002D01D0032089E7002087E70000DE
:1018A00035240020B82D002036240020FFFF000042
:1018B000023000000146024801800020704700000D
:1018C00036240020F0B587B005462D480078002862
:1018D00002D1082007B0F0BD288A2A490989884228
:1018E00001D00F20F6E7002644E026484068710149
:1018F00040188078298888423AD12248406871018E
:101900004418E0784108012088430746002F03D09F
:101910002046103003F06AFAE07807210843E070AF
:101920002088401C20802046103003F0CDFA05A806
:1019300071DF072205A920460830FBF73BFC002F8A
:1019400001D0022100E0002168460171297E017367
:10195000701C6946C88028461A300290072205A9E3
:10196000C81FFBF76FFD01A801F062FF0020B1E77F
:10197000701CC6B203480078B042B6DC1020A9E75C
:1019800035240020B82D0020F8B50446174800780B
:10199000002801D10820F8BD0027781E206000250E
:1019A0001AE01348406869014018C078C007C00FAA
:1019B000002800D10EE00E4949686A0189180846DE
:1019C000103003F06DFA06462168B14201D90127B3
:1019D000266000BF681CC5B205480078A842E0DC5C
:1019E000002F01D10520D6E70020D4E735240020C0
:1019F000B82D0020FFB585B005461E469B2D02DDA3
:101A0000072009B0F0BD2A480078002801D008203E
:101A1000F7E701202649087026480570264927481F
:101A200063DF0446002C01D00320EAE72248017856
:101A300068468174012101821E4A083204A90120EE
:101A4000A0DF0446002C01D00320DAE706980190BD
:101A500002966946079848730D7301A8FFF7ACFD1D
:101A600014480078400100900098FBF7E9FB114909
:101A7000486048680099FBF744FD002709E03846B4
:101A800000F064F90446002C01D02046B9E7781C28
:101A9000C7B208480078B842F1DC7D21C900714323
:101AA000084603224B21C90003F01CFA0020A8E7D6
:101AB00035240020B82D0020342400203C5402009E
:101AC000F0B58BB004461746002038702B480078DC
:101AD000002802D108200BB0F0BD002648E02848BD
:101AE000406871014518E878C007C00F002800D190
:101AF0003CE00021099109A92846103003F04EFA74
:101B000008A80079002830D0387800282DD1284640
:101B1000103003F0CFF91C200190711CC8B20023D3
:101B200001AA02A9FFF700FE0A900A98002801D036
:101B30000A98D0E7701C20722978617228880012F8
:101B4000A0726846828802A920460B30FBF77AFC17
:101B500068468088C01CE07107222946083120466B
:101B6000FBF728FB0120387000BF00BF701CC6B215
:101B700003480078B042B2DC0020ACE735240020F6
:101B8000B82D0020F0B58BB005466C4800780028D1
:101B900002D108200BB0F0BD2F7A6E7AA97A090223
:101BA0000E4328460B300990E879C01E80B2089099
:101BB00008981C2801DD0920ECE761480078B8424C
:101BC00001DB002F01D11020E4E75D484168781E59
:101BD00040010C18E07841080120884307900798DD
:101BE000002803D02046103003F000F92088B042CE
:101BF00003D02046103003F067F92088B04202DCA1
:101C00002088301A06E02088C821091A3046C838D2
:101C10000818C83880B206902088C82802DA2088C0
:101C2000B04209DD2088C82803DB4649069888426F
:101C300002DB079800282DD000233846089A09991E
:101C4000FFF7ACFDE07802210843E070E078042162
:101C50008843E07026800722294620460830FBF79B
:101C6000A9FA0798002801D0022100E00021684667
:101C700001720898C1B268460174478109980390BF
:101C80000722294604A80130FBF7DCFB02A801F07B
:101C9000CFFD4EE02088B0424BD11C2005900023A0
:101CA00005AA19463846FFF73FFD0A900A98002812
:101CB00001D00A986EE700200490A86A6168884203
:101CC00007D0E07804210840002802D101200490C8
:101CD00006E06846818A0898814201D0012004907C
:101CE0006846007C00281FD080201749886000BF0C
:101CF00000BF80201449C86001216846017008981F
:101D0000C1B26846017247800998019007222946AE
:101D100002A80130FBF796FB2046103003F0D4F800
:101D2000684601F085FD03E02046103003F0C7F857
:101D300000BFA86A606000202CE700003524002066
:101D4000B82D00209B7F00000005005030B593B0F7
:101D500004469B2C02DB072013B030BD00201190FD
:101D60001290012110A8017200214171042101711A
:101D7000611C41811C210AA8FBF7C3FB11A80D902F
:101D800008A8007A02218843811C08A80172007A01
:101D900004218843011D08A80172007A102188439C
:101DA000411808A8017200200F9010900B900E901F
:101DB000099008A80079F02188430146103108A84D
:101DC0000171007901090901491C08A801714079D4
:101DD000F02188430146103108A84171407901097A
:101DE0000901491C08A84171807906218843811C9A
:101DF00008A88171807908218843014608A881716B
:101E0000807910218843014608A8817180794108B2
:101E10004900491C08A881711648017808A88170FA
:101E2000E11C6846018400210291142103A8FBF7FC
:101E300068FB0121684681820021C1821C21018347
:101E400009A8049008A8039002A807900A490889E5
:101E50006B4603AA0AA9A2DF0546002D01D0032084
:101E60007AE76846008804494968620189188870E1
:101E7000002071E734240020B82D0020F7B584B08D
:101E800004460F4606980678B01C1F2803DC6078CD
:101E9000801C1F2802DD0C2007B0F0BD1F20801B16
:101EA000801E85B20295B11C781802A97DDF0390CF
:101EB0000398002801D00398EEE72078022808D183
:101EC00068460089A84204DC09200190684605891B
:101ED0000BE0082001906078002804D06078A842C8
:101EE00001DC657801E068460589681CC2B23046AD
:101EF000711CCEB23A543046721CD6B20199395494
:101F000006980178A81C0818C1B206980170002034
:101F1000C2E7014600207047024600207047024693
:101F20000020704703210522120707231B02D21845
:101F30008300D1507047000001218140014AD160E7
:101F4000704700000005005001218140014A916066
:101F50007047000000050050002906D100BF012293
:101F60008240064BDA6000BF06E000BF01228240DB
:101F7000024B9A6000BF00BF704700000005005090
:101F800070B5002B0BD101248C40174DEC60174C21
:101F9000174D51263601AD198600AC510AE00124D7
:101FA0008C40114DAC60134C114D51263601AD19CA
:101FB0008600AC5100BF00BF00BF012485000C4E5D
:101FC000AD192C600C0203252C4315042C431D0570
:101FD0002C43354651263601AD198600AC5100BF61
:101FE00000BF00BF70BD000000050050031F0200CD
:101FF00000600040031F010070B5054600242888DA
:10200000192848D004DC102807D011285CD12BE017
:10201000392846D0552857D144E00720FCF7F6FD73
:10202000044600BF2646002E06D000BF00221146FF
:102030003046FCF7FBF800BF00BF002024490870C1
:10204000A888244908800320FCF78AFD044600BFC5
:102050002646002E06D000BF002211463046FCF76F
:10206000E5F800BF00BF30E00020FCF7CFFD0446DC
:1020700000BF2646002E06D000BF00221146304683
:10208000FCF7D4F800BF00BF0020C043114908800E
:10209000FBF7DAFF19E0A879002801D1FBF7D4FF9C
:1020A00013E000BF13210B48008876DF044600BF11
:1020B0002646002E06D000BF002211463046FCF70F
:1020C000B5F800BF00BF00E000BF00BF70BD00005A
:1020D000122400201024002010B504460822A11D5F
:1020E0000248FBF7AFF9FDF741FA10BD3C2500208F
:1020F0008A8802807047000010B50446A08809490C
:102100000880082221460E310748FBF79BF9002082
:10211000064908700648C089002801D1FDF726FA53
:1021200010BD00003A2500203C2500203825002065
:102130004C34002070B588B004460D460220694634
:1021400008742046FFF740F8002808D1FF20FE3031
:1021500069468882208804A9A8DF08B070BD0020E5
:1021600069468882208804A9A8DF0646002E01D08F
:102170003046F2E700BFA87E0300FBF7CFFD0979E8
:10218000061D343C444C71547900002069460871A6
:10219000288B022805DAA97E06222046FCF778FB68
:1021A000DBE701206946087228461B30039001A92D
:1021B0002046A26A904761E0012069460871288B99
:1021C000022805DAA97E06222046FCF761FBC4E757
:1021D00001206946087228461B30039001A9204659
:1021E000A26A90474AE002206946087101A9204688
:1021F000A26A904742E003206946087101A920467F
:10220000A26A90473AE004206946087101A9204675
:10221000A26A904732E005206946087101A920466C
:10222000A26A90472AE0288B032805DA03220821B6
:102230002046FCF72DFB90E728461B3002F0B2FF4A
:10224000694608810889002802D10720087102E048
:1022500006206946087101A92046A26A90470DE050
:1022600009206946087101A92046A26A904705E045
:10227000A97E03222046FCF70BFB6EE700BF00207F
:102280006BE7000010B508480078012802D002284A
:1022900007D102E0FBF79EFD04E00320024908702D
:1022A00000E000BF00BF10BD6C25002010B5104835
:1022B0000078002802D0032817D112E004200D492D
:1022C000086001200C4908600C48C0680B49896807
:1022D000401A02D0FBF740FD02E0012004490870DB
:1022E00004E002200249087000E000BF00BF10BDFA
:1022F0006C2500200025004000200040843500208F
:102300000022D2430280704770B505460020C043CA
:102310000A49088000200A4908700A480068FCF74A
:10232000F3F80446002C07D007488069002803D042
:10233000054881692046884770BD00003A25002085
:1023400038250020442500204C340020F8B50446F0
:102350000E46B51D2878022811D16888218A884246
:102360000DD1A91C2046FFF7E5FE0746002F05D03A
:10237000E06A002802D03846E16A884700BFF8BD0D
:1023800010B50446022C02D0032C0BD100E000BF94
:1023900006480078002804D0002004490870FBF7A4
:1023A00053FE00E000BF00BF10BD00001924002054
:1023B00010B509480078012807D0022804D0032866
:1023C00006D1FBF707FD04E000BFFBF7B5FC00E01A
:1023D00000BF00BF10BD00006C25002010B5FBF74A
:1023E000F9FC10BD10B504462300FBF797FC05046B
:1023F000070D0A101300FFF745FF0CE0FFF756FF2B
:1024000009E0FFF7D5FF06E000F008F803E0FFF76A
:10241000E5FF00E000BF00BF10BD000010B503489D
:102420000078012801D1FBF797FC10BD6C25002036
:102430003EB505460C46E088298988420CD1082122
:1024400068460170A17F01712046203002906946E4
:102450002846AA6A904700BF3EBD000070B50546F9
:10246000AC1D20881249C989884220D1208B0228BE
:102470001DD100BF00BFA17EE27E120211430846BB
:10248000C107C90F002902D0FDF770F80FE0094815
:102490000068FCF739F80646002E07D0044880692A
:1024A000002803D0024881693046884700BF70BDCC
:1024B0004C3400204425002000B585B00121684639
:1024C00001730848049003A8013001F0A1F901212B
:1024D0006846017000200190684600F07FFE05B05C
:1024E00000BD0000D93A020070B505460C46687878
:1024F0008006800E801FE071E2792946093120466E
:102500000830FAF79FFF0622E91C601CFAF79AFFD1
:102510002878402108408609002E1ED0A179C022CB
:102520001140C02901D1012100E000210846002806
:1025300002D0012121700FE0A279C0231A40402A65
:1025400001D1012200E000221146002901D002221F
:1025500000E00322227000BF01E00020207070BD67
:1025600010B504461C216143104A891808461130F1
:102570000621FAF7C4FF1C2161430C4A8818102178
:10258000FAF7BDFFFF211C206043084A8018017440
:102590001C206043801881760021C9431C206043C1
:1025A00080180183204602F035FE10BD68340020FB
:1025B00070B540DF044600BF2546002D06D000BFA1
:1025C000002211462846FBF731FE00BF00BF70BD58
:1025D0001E481F4951221201891888601D491C4854
:1025E0008018C1601948001D1949891808611949E6
:1025F000174880184161184815498918886115499C
:10260000091D13488018C1611348001D104989181D
:1026100008621049091D0E48801841620E48001FCB
:102620000B49891888620B49083109488018C16232
:1026300009480830064989180863064908310448E2
:10264000801841637E2005490860704744A100401E
:1026500000F00140006000404491004000F501405E
:10266000014600BF07480078002801D108207047C4
:1026700000BF002901D10E20F9E703484078086027
:102680000020F4E77A250020943500203CB503466D
:1026900000BF20480078002801D108203CBD00BFC1
:1026A000002B01D10E20F9E7002A01D10E20F5E719
:1026B0001868002805D118680001174C2058002818
:1026C00001D10720EAE75C68186801940090019C3A
:1026D00018680001104D40190089484320180190E6
:1026E000009800012C4600194089009C24016419BF
:1026F00024896043009C2401641964680019019CCA
:10270000A04201D80720C9E7019C009854601060DE
:102710000020C3E77A25002060360020F8B5044683
:102720000D4600BF27480078002801D10820F8BDD9
:1027300000BF002C01D10E20F9E72068002805D148
:102740002068000120490858002801D10720EEE741
:10275000206800011C4940184089216809011A4A73
:10276000891809894843216809018918496840186E
:102770006168884201D80720D9E76068FEF7A6FDA6
:10278000002801D11020D2E723681B010E4FDB196E
:1027900062685B68D01A226812013B46D218118920
:1027A000FAF7B1FE002901D00720C0E700202B4630
:1027B0000246214600900420FCF79AFD064630466A
:1027C000B5E700007A2500206036002070B5FCF7E0
:1027D000D7FD00202E4908802E484069401C002863
:1027E00008D001221207126991B22A4A5069FAF7F9
:1027F0008AFE02E0012000074069801E01210907CE
:10280000096989B2484324490860002023490880A7
:1028100000BF0DE000210201214B99500201D218A6
:1028200011810201D21891810201D2185181401CFC
:102830000028EFD008201B49087016484069401C4A
:10284000002808D001221207126991B2114A50697A
:10285000FAF759FE02E0012000074069401E0121FD
:102860000907096989B24843064601200007006943
:1028700081B23046FAF747FE054620DF0446002CB9
:1028800004D101200849887008490870204670BDAD
:1028900070250020001000107425002078250020ED
:1028A000603600207B250020943500207A2500200A
:1028B000FFB581B00C4615461E4600BF354800786E
:1028C000002802D1082005B0F0BD00BF002C01D1C6
:1028D0000E20F8E70198002801D10E20F3E72068C8
:1028E000002805D1206800012B490858002801D193
:1028F0000720E8E72068000127494018408921683F
:102900000901254A8918098948432168090189185C
:10291000496840186168884201D80720D3E7002D34
:1029200006D0206800011C4940180089A84201DA3D
:102930000720C8E7A81921680901174A89180989D9
:10294000884201DD0720BEE70198FEF7BFFC0028A2
:1029500004D03046FEF7BAFC002801D11020B2E7BF
:102960006068FEF7B3FC002801D11020ABE7606877
:1029700081192A460198FAF765FD00952068000143
:1029800005490F58002203212046019BB84700202B
:1029900099E700007A25002060360020F8B504464B
:1029A0000D4600BF58480078002801D10820F8BD26
:1029B00000BF002C01D10E20F9E7002D01D10E201F
:1029C000F5E72068002801D10E20F0E7A08801215A
:1029D0000907096989B2884202DCA088102801DA57
:1029E0000720E4E7E088002830D048484069401CD0
:1029F000002808D001221207126991B2434A506997
:102A0000FAF781FD02E0012000074069401E012124
:102A10000907096989B24843E188A28851433C4AC1
:102A200012688918884211D3E088A188484301219F
:102A30000907096989B288420ADDA18801221207C3
:102A4000126990B2FAF769FD002901D00720AEE7BC
:102A500020798007800F002801D00720A7E72D48A4
:102A60000088012801D10420A1E72A4800882860B5
:102A7000274800686860274909880901264A89189B
:102A80006868486023490988090120685050A08877
:102A900020490988090189180881E0881D490988A9
:102AA0000901891848810027A688E1884E4300BFA4
:102AB000781C87B201200007006980B2B04205D2BD
:102AC00001200007006980B2361A00E000260120CC
