:020000040001F9
:1060000078430020ED610100076201000962010090
:106010000000000000000000000000000000000080
:106020000000000000000000000000000B62010002
:1060300000000000000000000D6201000F6201007E
:106040001162010011620100F1780100116201008A
:10605000E177010000000000657501006375010033
:106060001162010011620100ED780100116201006E
:106070001162010011620100116201001162010050
:1060800011620100B9770100116201001162010083
:1060900071780100116201007D7801001162010038
:1060A0001162010011620100000000000000000008
:1060B00000000000000000000000000000000000E0
:1060C00000F002F800F034F80CA030C808382418AA
:1060D0002D18A246671EAB4654465D46AC4201D120
:1060E00000F026F87E460F3E0FCCB646012633421E
:1060F00000D0FB1AA246AB4633431847109C000061
:10610000309C00000023002400250026103A01D313
:1061100078C1FBD8520700D330C100D50B6070475F
:106120001FB50098019900F0ACFF1FBD10B510BD60
:1061300001F043F91146FFF7F3FF05F0FDFA01F016
:106140005BF903B4FFF7F2FF03BC01F0B9F90000FB
:10615000056885F3088846680A4AEFF305839A4282
:10616000304602D1084CA6463047074C064D06463D
:10617000064FF0B4034C034D024E024FF0B40448F6
:106180000047000000000000FFFFFFFF00000021AB
:10619000F9FFFFFF401E00BF00BF00BF00BF00BFF0
:1061A00000BF00BF00BF00BF00BF00BF00BFF1D1F4
:1061B0007047000070B505460C46164602E00FCC4D
:1061C0000FC5103E102EFAD2082E02D303CC03C501
:1061D000083E042E07D301CC01C5361F03E0217809
:1061E0002970641C6D1C761EF9D270BD03210C4809
:1061F00002680A4302600B4802680A4302600A48C8
:1062000080470A480047FEE7FEE7FEE7FEE7FEE7B5
:10621000FEE7000006480749074A084B70470000A0
:106220002405004054050040B5780100C16001001C
:106230007833002078430020783B0020783B002012
:1062400070B5064600F000FF056830460B30C40804
:10625000E400B44201D8002070BD68682A460028D6
:1062600018D00168A14211D30B46214608318B4258
:1062700008D3436801194B6003681B1B0B60516016
:10628000046001E041685160001D70BD0246406835
:106290000028E6D12146284600F0DEFE0028DCD1A9
:1062A00070BDFEB5054610460C46184373D0AE4689
:1062B0008C460020AD1A01469C4167D366460027F4
:1062C00001243D46B61A9D4102D313463A46212485
:1062D000654676462F04360C3E432D0CB61A9D417A
:1062E00004D3150C1B042B43120410346546764668
:1062F0002F06360A3E432D0AB61A9D4104D3150EC9
:106300001B022B4312020834654676462F073609D6
:106310003E432D09B61A9D4104D3150F1B012B4393
:106320001201241D65467646AF07B6083E43AD0808
:10633000B61A9D4104D3950F9B002B439200A41CD9
:1063400065467646EF0776083E436D08B61A9D41CE
:106350001AD392185B41641C16E000187646654615
:106360004941B71A9D410191009009D36046B11A85
:1063700098418E468446009801990025401C694149
:10638000DD0752082A435B08641EE6D57246634661
:1063900003B0F0BDFFE700200146C046C0462A46D4
:1063A0002346F5E7034610B50B439B070FD1042A9C
:1063B0000DD308C810C9121FA342F8D018BA21BAC9
:1063C000884201D9012010BD0020C04310BD002A21
:1063D00003D0D30703D0521C07E0002010BD037880
:1063E0000C78401C491C1B1B07D103780C78401CFF
:1063F000491C1B1B01D1921EF1D1184610BD000093
:1064000030B5441C03E00178401C00290DD0810701
:10641000F9D10B4BDD0104C8D11A91432940FAD0C0
:10642000001B0A0603D0C01E30BD001B30BD0A048D
:1064300001D0801E30BD0902FCD0401E30BD0000DE
:1064400001010101F8B5042A2CD3830712D00B787F
:10645000491C0370401C521E83070BD00B78491C4B
:106460000370401C521E830704D00B78491C037034
:10647000401C521E8B079B0F05D0C91ADF0020233A
:10648000DE1B08C90AE0FFF795FEF8BD1D4608C9E6
:10649000FD401C46B4402C4310C0121F042AF5D204
:1064A000F308C91A521EF0D40B78491C0370401C23
:1064B000521EEAD40B78491C0370401C012AE4D414
:1064C00009780170F8BD01E004C0091F0429FBD25E
:1064D0008B0701D50280801CC90700D0027070476D
:1064E00000290BD0C30702D00270401C491E0229AC
:1064F00004D3830702D50280801C891EE3E70022B3
:10650000EEE70022DFE7002203098B422CD3030AC7
:106510008B4211D300239C464EE003460B433CD4F0
:10652000002243088B4231D303098B421CD3030A58
:106530008B4201D394463FE0C3098B4201D3CB0188
:10654000C01A524183098B4201D38B01C01A5241B8
:1065500043098B4201D34B01C01A524103098B42BC
:1065600001D30B01C01A5241C3088B4201D3CB00A7
:10657000C01A524183088B4201D38B00C01A52418A
:1065800043088B4201D34B00C01A5241411A00D23A
:1065900001465241104670475DE0CA0F00D04942A3
:1065A000031000D34042534000229C4603098B4213
:1065B0002DD3030A8B4212D3FC22890112BA030A9B
:1065C0008B420CD3890192118B4208D3890192111D
:1065D0008B4204D389013AD0921100E08909C309A2
:1065E0008B4201D3CB01C01A524183098B4201D3A4
:1065F0008B01C01A524143098B4201D34B01C01A8F
:10660000524103098B4201D30B01C01A5241C30806
:106610008B4201D3CB00C01A524183088B4201D375
:106620008B00C01A5241D9D243088B4201D34B0090
:10663000C01A5241411A00D20146634652415B10D2
:10664000104601D34042002B00D5494270476346B3
:106650005B1000D3404201B50020C046C04602BDD9
:1066600070477047704700000246C80FC00781435B
:106670004B0030B54B405B009B0D20D01923DB064F
:10668000C91801231B05994220DB0324A407042514
:106690001346AB400BD3002B04D1EB0613409B00F9
:1066A000E34204D401246407002312195941FF2353
:1066B0001B0599420BD2C9000143500F09E0CB02E0
:1066C00004D501430803024305D0054830BDFF212E
:1066D000C905084330BD084607210905884330BD78
:1066E0000000C07FF0B50C46871A9C410D46861A03
:1066F0009D4103D2C01BA141D21963410D0D1F0D55
:10670000C94EEC1BAE435CD07F057F0D0026002FE9
:1067100051D02D05AC46A943DD020123ED0A1B052E
:106720001D4320231B1B24D41746E7403818714112
:106730002F46E740CC199D402818314661410C0D89
:1067400027D161449A4013D50023401C594152007F
:106750000ED14008400001224B005205D34207D31E
:1067600005204007C14201D5B04900E0B04930469C
:10677000F0BD6B00002A00D001229A181F23203C94
:106780001B1B01D5002302E0E540281871410C0DC8
:10679000D7D0012424050919C407CD0740084908AA
:1067A000E40F28436144002CD5D00024401C6141F3
:1067B0009A40D0D1CDE76A05520DD9D1C90FC9078A
:1067C000D5E79C4D4E00002801D0012400E00024B4
:1067D00034195F00002A01D0012600E00026BE190E
:1067E000954FAC420CD8AE420AD8B44206D001252F
:1067F0006D05EC42BCD010461946F0BD9942FCD064
:1068000000203946F0BDF0B51FB40C460F46811A82
:106810009F412546861A9D4106D20125ED076F400E
:10682000401ABC4152187B41210D1E0D8D1BAC46F8
:106830007D4D8D437ED075056D0D7CD00D05AE462A
:10684000AC431B031B0B794D52429D4120236646EE
:106850009B1B14D31746F74038180026009074414C
:1068600060462F460741E41900989D40281866416C
:1068700016D4714671189A4025D5012320E093184B
:106880002A466A415200002B00D0521C1E23203E93
:106890009B1B002B61DD3541EE1728186641E8D5BA
:1068A000001876415B1C9A4000D3401C4B05F3183E
:1068B0001524E34010D3002B52D071467118D30F2A
:1068C000C01802D3491C05B0F0BD0123DB079A4272
:1068D000F9D140084000F6E701225205B21801D173
:1068E000002853D00123CC0ADB029943891E002AD9
:1068F00008D1020C03D0020C0004103902E0024659
:10690000002020390023550B05D112020823550B16
:1069100001D152010D23550C01D112011B1DD50CC3
:1069200001D192009B1C150D01D152005B1C20254A
:10693000EE1A01E02CE022E00546F54015439840B0
:10694000CA1AE10769181305C918002ABBDA03201F
:1069500040070818C10FC9070FE071466118B2E778
:10696000F10740080843711071444A000CD001231C
:106970005B059A42A7D2C90FC9070020A3E74905C2
:10698000490D26D1002001E00028F4D100219AE72A
:10699000284D6600002801D0012100E00021711877
:1069A0005F00002A01D0012600E00026BE19224F18
:1069B000A94210D8AE420ED8B14208D001256D05CB
:1069C000E94206D01946A802414010467BE79C42A6
:1069D00001D0214677E70020394674E710B50C4610
:1069E0005C4005D50124E4076340FFF70CFF10BDB0
:1069F000FFF778FE10BD30B40C465C4004D501248E
:106A0000E407634030BC6DE630BCFCE670B50124A1
:106A1000E40761400D465D4002D4FFF763FE70BDA0
:106A20006340FFF7F0FE70BDFF0700000000F0FFBD
:106A30000000F07F0000E0FF0000F87FF0B5F94DA6
:106A40000C091E092C402E402F468BB0A7437DD049
:106A5000B543FCD0002E7AD0002CFCD00D465D4012
:106A6000ED0F2543AC1BFF25AD0464190894C50246
:106A7000440DC9022143500DDC0204430120C0072C
:106A800001430443D2020191200C110C00958C4665
:106A9000010423468B430A9161460904E24D8A436F
:106AA0000991010A7D4449198039097805464D4309
:106AB00001266D18F605751B6943C90C640B891C0A
:106AC0004C436418B5012C1B250C2E04B4434C43D5
:106AD0004D43210C691889090591009DE90701D0F2
:106AE0000121C90704912C4601996708CD072F435E
:106AF0004C08059DE10B4D432D0C29466646754318
:106B000002950D4645432E46029D7D1BB4410095DE
:106B10000D465D4301942C0C2F040D465543AE46A3
:106B20002D0C3D43029503947546049C2D04641B73
:106B3000049406D2029C039D641C002675410395B3
:106B4000029401AC70CC009F7D1B01E03EE162E14C
:106B5000B44109040095079101940599A408614383
:106B6000090C0C464443650BE7040C466646744327
:106B7000A646640B3C43039502947446049DE404CA
:106B80002C1B049406D2029C039D641C00267541B4
:106B90000395029401AC70CC009F7D1BB44101941D
:106BA0000C465C430095650FE7000C465443A6462F
:106BB000640F3C43039502947446049DE4002C1B2F
:106BC000049406D2029C039D641C00267541039523
:106BD000029401AC70CC009F7D1BB441AE09AF069E
:106BE000049DC900AD092F43049DA406AD0604957C
:106BF000079D344369180791059DE10B4D432D0C0A
:106C000029466646754302950D4645432E46029D2C
:106C10007D1BB44100950D465D4301942C0C2F045F
:106C20000D465543AE462D0C3D43029503947546E3
:106C3000049C2D04641B049406D2029C039D641CD6
:106C4000002675410395029401AC70CC009F7D1B1A
:106C5000B44101948C050694079C890A611800953B
:106C60000791019C0599A4086143090C0D46454311
:106C7000680BEF040D46644665436C0B3C43049F70
:106C8000ED047D1BAC4602D20025641C6841009EC9
:106C9000019D371B85410846584301950C46460F18
:106CA000C5005443600F28436546E4002C1B02D204
:106CB0000025401C6E41019D3F1AB5412846BD0983
:106CC000800628438446A009BF064E020699A40602
:106CD00076180743079D002068410A9907901943D9
:106CE0000020099B00906046FF1913434041E20FCA
:106CF00064003A43A4460446D71A8C41A04203D903
:106D00000120009020463A46C70F94184041624641
:106D1000D20F2243644664000494009CBE46640083
:106D2000D71AA446044602978C417746002F01D11A
:106D3000A04204D96046401C8446029A2046C40FF3
:106D4000A64694184041049A0546D20F2243644651
:106D50006400D31A8D417146002901D1A84202D99D
:106D600028461A46641C10430122002800D016430E
:106D700061020020079B891904465C410223002C14
:106D800002DB491813466441089DCE0A2D145D1993
:106D90004B056705E10A2C050D1908993E43C90703
:106DA0006940002B08D0934006D30022761C514145
:106DB000002B01D1760876001C4A002D43DB1542DA
:106DC00041D0AA433FD030460BB0F0BD06180D4667
:106DD0004D41174C7642AC411AD395181C465C4184
:106DE000134A6D42A24113D3012252054C00D442F2
:106DF0000AD15C00D4420BD04B4002D59202114321
:106E0000E2E749004908DFE75940C90FC90718E020
:106E100000200849D8E7054801420DD10342F7D0C8
:106E2000F2E700000000FF07E49100000000F07F9F
:106E30000000E0FF0000F87F114859400143C012F4
:106E400041400020C0E70123089A9B069A4205DCD6
:106E5000032252078918C90FC907B5E7052252074F
:106E60008918074A1143D2125140ADE770B5154653
:106E70001C4602460B4628462146FFF7DFFD70BD43
:106E8000FFFFFF7F30B50346CA02400D1043164D89
:106E9000164C0A1502D02043002A06DBAA1A002A43
:106EA00012DDD040FF2A0BDC30BD5205520D01D15E
:106EB00040004008AA1A07D4D0404042FF2A01DD12
:106EC000002030BD0028FCDD4A00002B01D001204D
:106ED00000E00020101801225205D042F0D8C81757
:106EE000C043604030BD00001E0400000000008070
:106EF0001F22030C02D10F22000402D0030E03D084
:106F000004E00020014670470002083A030F01D157
:106F10000001121F830F01D18000921E002801DBA7
:106F20004000521E120551184205C0124118104669
:106F30007047C10FC90700D0404201229207114398
:106F4000D6E701218907D3E70121C90501234118AB
:106F500042001B06D3185B0E0AD0C1100722D206CE
:106F6000891840075242D14201D552008918704712
:106F7000090208D50146002A03D0C10FC907002025
:106F8000704710467047420202D000200249704705
:106F9000072109050143F4E70000F87F10B5014619
:106FA0009E240002CA15A307002A02D01843002A13
:106FB00004DBA21A002A0CDDD04010BD1206120E0E
:106FC00001D140004008A21A03D4D040404200281A
:106FD000F3DDFF2248001206904201D9002010BDC7
:106FE000C817C043584010BD1F22030C02D10F2206
:106FF00000041CD0030E01D10002083A030F01D196
:107000000001121F830F01D18000921E002801DBB6
:107010004000521ED20551180212511819229040F8
:1070200004D3491C002801D149084900084670478B
:10703000C10FC90700D04042012292071143D3E794
:1070400001218907D0E70000004870472033002065
:10705000704770477047704738B504460A460020AD
:107060006946C046C046002805D002462046009921
:1070700000F058F9012038BD10B5012000F06CF97E
:1070800010BDF8B5C046C046054600200C4610208D
:10709000C0460646A819A0420DD9324669460020CE
:1070A000C046C046070001D100F056F90098A04242
:1070B00000D00546C419FFF7C7FFF61D0746056057
:1070C000F008C0004619284600F008F8B44204D081
:1070D00031463868A21B00F025F9F8BD0021016097
:1070E0004160806070471020704770B50446051FEE
:1070F000FFF7AAFF0068002C1AD0446801E0204680
:107100006468002C01D0AC42F9D301680A18AA4285
:1071100004D12A6805468918016000E045602868A6
:107120004119A14205D16168696021684018286051
:1071300070BD6C6070BD0000F8B5224C4E00069D1D
:10714000A6420AD8A64201D1002806D15E00A64276
:1071500003D8A6420AD1002A08D00D2424042542CF
:107160002CD02946002000F0FDF8F8BD0C461C4349
:107170000CD4994202D0EFF30080F8BD904202D0C7
:10718000EFF30080F8BDEFF30080F8BD0924240779
:10719000E5008B4206D0EFF30080A043591A06D2D7
:1071A000284304E0101A05D3EFF30080A04380F3D6
:1071B0000088F8BDEFF30080A043F1E7009500F0F0
:1071C000E9F8F8BD0000E0FFF0B501230A0DDB028D
:1071D00000249A43E4430025002A28D05B1E9A42EB
:1071E00023D05B10D61AA64228DB721C48D0342E5E
:1071F00018D20222142E2BD822D00B460D36B340C3
:1072000001D100280FD00024701E0B468340DB0FF5
:10721000F2412846551EA943002B03D08918002CA3
:1072200000D09143F0BD0124EEE79A4239D04A00E4
:107230000243F7D0C90FC9072846F0BD002223E05A
:107240000122C30F400001D00024E2E70124E0E75F
:107250000346133EB34011D00023741E0746A740D7
:10726000FC0FF2411746521E9043002CE5D0002B34
:1072700000D0521CC01969419043F0BD0123ECE7D6
:1072800001220B0318430AD00023C90FC90728465F
:10729000002AF2D0002BF0D1054A1143F0BD0123A2
:1072A000F3E70A0301D10028F8D000200149F0BD1E
:1072B0000000F03F0000F87F10B5FF231B064400DC
:1072C0009C421DD84C009C421AD80346124A0B43DC
:1072D00007D4401A02D3EFF3008010BDEFF3008013
:1072E00010BD081A06D2EFF3008001219043C907B0
:1072F000084302E0EFF30080904380F3008810BD64
:107300000D231B041A4204D01146002000F02AF875
:1073100010BD00F049F810BD000000900048704713
:107320001833002010B50346406801E0034640686A
:10733000002801D08842F9D31868C3188B4206D0C0
:10734000CB1CD808C000001D411A521A0146081D66
:107350000A60FFF7CAFE10BD10B500F059F800F042
:1073600051F810BDCA0211D54A03520F002A04D0A9
:10737000C803C043012188407047054AEFF30081EC
:1073800008010009104380F300887047002070470F
:107390000000003010B500200249029A00F060F8A9
:1073A00010BD00000000F87F10B5024800F058F84A
:1073B00010BD00000000C07F70477546FFF7AEFFAC
:1073C000AE46050069465346C008C000854618B061
:1073D00020B5FEF71FFF60BC00274908B64600260F
:1073E000C0C5C0C5C0C5C0C5C0C5C0C5C0C5C0C575
:1073F000403D49008D4670470446C046C046204681
:10740000FEF79FFE10B5002801D000F059F810BD1E
:1074100010B5012805D0002103A000F057F8012085
:1074200010BD09A1F8E7000053494752544D454D9E
:107430003A204F7574206F662068656170206D6515
:107440006D6F7279000000003A2048656170206D10
:10745000656D6F727920636F727275707465640008
:1074600010B50C461107090F092904D00A290AD0C2
:1074700008290CD104E011460820FFF773FF06E04D
:10748000510606D501E0510601D50120C00721466D
:1074900010BDD10607D501010909CC084907000E26
:1074A0000006044309E0410F20024907000A014396
:1074B000200E00061D22D14101430846E7E70000E7
:1074C00001491820ABBEFEE72600020070B5054654
:1074D0000C460A2000E06D1C00F012F8002D06D0CA
:1074E00028780028F7D102E0641C00F009F8002C8D
:1074F00002D020780028F7D10A2000F001F870BDF2
:1075000008B5694608700320ABBE08BD70B58C187D
:107510000578401C6B075B0F01D10378401C2A11D2
:1075200006D10278401C03E00678401C0E70491C0E
:107530005B1EF9D12B0705D40023521E0DD40B700E
:10754000491CFAE70378401CCB1A921C03E01D7813
:107550000D70491C5B1C521EF9D5A142D8D30020E6
:1075600070BD7047F0B585B02748056900202749F0
:10757000C86300263FE01420704325490968441879
:107580000120B040234909680840002831D0E06854
:10759000C04368402168084007463946204606F047
:1075A0007BFC1948006968400390039800280ED0BE
:1075B00003980543E068C043684021680840009094
:1075C0002046009906F068FC0098074300BFA068B9
:1075D000A8433840019060682840384002900199E3
:1075E00002980843002803D0226901990298904725
:1075F00000BF701CC6B2084800788642BBDB00F0B2
:10760000ADF805B0F0BD000000050050406100403D
:1076100010220020082200200D220020C206D20ED7
:1076200001219140014A11607047000080E200E0B2
:10763000C206D20E01219140014A1160704700003C
:1076400000E100E0C206D20E01219140014A116022
:107650007047000000E100E0C206D20E0121914017
:10766000014A11607047000000E200E010B50028F8
:1076700019DA1A4A03071B0F083B9B089B00D258D4
:107680008307DC0EFF23A3409A438B071B0E84075E
:10769000E40EA3401A43114B0407240F083CA4082E
:1076A000A4001A5118E00E4A03231B02D2188308C3
:1076B0009B00D2588307DC0EFF23A3409A438B071D
:1076C0001B0E8407E40EA3401A43054B0324240237
:1076D0001B198408A4001A5110BD00001CED00E025
:1076E00000E100E010B5002819DA1A4A03071B0F61
:1076F000083B9B089B00D2588307DC0EFF23A34066
:107700009A438B071B0E8407E40EA3401A43114BC8
:107710000407240F083CA408A4001A5118E00E4ADC
:1077200003231B02D21883089B00D2588307DC0E68
:10773000FF23A3409A438B071B0E8407E40EA3404C
:107740001A43054B032424021B198408A4001A5170
:1077500010BD00001CED00E000E100E010B50020CD
:1077600004F02AFD002004F01FFD0F48C06B002824
:1077700018D000200C49C8630C4800690121090693
:10778000084000280ED10A48007800280AD109488C
:1077900006F021FC002803D001200549087001E013
:1077A00003F032FA10BD00004061004000050050B7
:1077B000E5200020042D002010B5002007490860B6
:1077C0000021064841608160C160002003494039C2
:1077D0000860486007F06EFB10BD000040110140DA
:1077E00010B51B48806A00281FD000201849886205
:1077F00018480078012816D11748006817494860D2
:10780000174800681549403948631648006888637E
:1078100015480068114988600120144988620220D7
:1078200006F088FC00E000BF00BF0948406800285F
:107830000CD000200649486006480078022803D191
:10784000032006F077FC00E000BF00BF10BD000081
:107850000041004080210020702100204045004070
:10786000742100207C21002078210020004000406D
:1078700010B506F0CFF807F093F810BD70B50C48BE
:107880000068002810D00A4800688047044600BFFE
:107890002546002D06D000BF00221146284600F0E4
:1078A000FBFA00BF00BF01E003F01EFD70BD000049
:1078B0004022002010B503F0DBFD002805D007486A
:1078C00007494860C8130749886103F0B5FD0028DF
:1078D00002D001200449886010BD0000DFFF07C00E
:1078E00000050040006C00400006004070470000AA
:1078F0001CB524488068002824D0002021498860D5
:1079000021488069C1B2214800F002FB0446002CE6
:1079100008D0012069460870019468461C4909682E
:1079200088470EE01948C06818498968401A01283C
:1079300007D10020694608706846154909688847DC
:1079400000BF00BF0F48C069002805D000200D49C6
:10795000C861032004F07EFE0A48406A00280FD068
:107960000020084948620848803804680460022002
:10797000694608700194684605490968884700BF50
:107980001CBD000000210040002500400C320020FA
:10799000F421002030B47446641E2578641CAB4288
:1079A00004D3635D5B00E31830BC18471D46F8E75D
:1079B00010B50648C06805498968401A02D000F031
:1079C00007F801E000F02EF810BD00001C32002086
:1079D00008B50F480078022802D001200D498860C0
:1079E00069460D4800F082FA002802D000F01AF82B
:1079F00008BD802009498860684600780849C86148
:107A000002200349087080200449486000BFEFE766
:107A1000F8210020002000401C32002000230040FC
:107A2000002500401CB501200549C86005490870C3
:107A300003206946087068460349096888471CBDE9
:107A400000200040F8210020F421002000200549FA
:107A5000087001200449C86048600020034908609C
:107A600070470000F8210020002000400025004061
:107A700070B501201F49486018201F494860002048
:107A80001E49086001201C49086007202ADF0446BF
:107A900000BF2546002D06D000BF00221146284613
:107AA00000F0FAF900BF00BF032107202BDF0446D6
:107AB00000BF2546002D06D000BF002211462846F3
:107AC00000F0EAF900BF00BF072026DF044600BF30
:107AD0002546002D06D000BF00221146284600F0A2
:107AE000DBF900BF00BF0020044908600120044901
:107AF000086070BD007300400075004000710040D8
:107B000000700040F8B504460F46164600250020D8
:107B100030702078002809D032463946204604F0DB
:107B2000E5FA0546002D01D02846F8BDA0780028CA
:107B300008D03146384600F03FFB0546002D01D005
:107B40002846F2E7A08800280ADD33463A4601219C
:107B5000201D07F02AFD0546002D01D02846E4E748
:107B6000E06800280BD00020E1680856324639460C
:107B700007F0F4FC0546002D01D02846D5E7208A01
:107B800000280CDD3B4606220221204610300096DC
:107B900007F0E4FD0546002D01D02846C5E7208BFF
:107BA00000280CDD3B4607220321204618300096B2
:107BB00007F0D4FD0546002D01D02846B5E7208CFE
:107BC00000280CDD3B46152214212046203000966B
:107BD00007F0C4FD0546002D01D02846A5E7A06AA0
:107BE000002809D032463946A06A01F0ABFC0546B0
:107BF000002D01D0284698E7E06A002809D03246D7
:107C00003946E06A03F0D6FD0546002D01D028462E
:107C10008BE73420005D002809DD324639462046D6
:107C200006F0F9F90546002D01D028467DE72846E3
:107C30007BE701468888002808D08868002805D09E
:107C40008868007804221040002801D1072070477E
:107C50000020FCE731B592B04C2168468180124982
:107C6000039117210181382104A8FEF74AFC002165
:107C7000684601740121818212A9069101A80F9022
:107C8000002104A800F0A6FC044600BF2546002DF4
:107C900006D000BF00221146284600F0FDF800BFC4
:107CA00000BF13B030BD00005A20002030B59BB09B
:107CB00011A804F00DFE044600BF2546002D06D095
:107CC00000BF00221146284600F0E6F800BF00BFC2
:107CD0001198002804D001205A4908701BB030BD0B
:107CE000142116A8FEF70DFC002110A80176002033
:107CF000179018A8017000201990534800780028A8
:107D000006D0012808D002284DD003287ED166E095
:107D100001204D49087000BF082110A801730175AA
:107D200009A8129001A8149012A9484802F0FEFE7A
:107D3000044600BF2546002D06D000BF0022114694
:107D4000284600F0A9F800BF00BF10A8007B00285B
:107D500003D110A8007D00280BD0022018A90870BC
:107D600012A819900420FFF775FF02203649087009
:107D700002E00320344908702921090110A8018577
:107D800064214185032000F00FFF044600BF254613
:107D9000002D06D000BF00221146284600F07CF8D6
:107DA00000BF00BF3BE00520FFF754FF2921090178
:107DB00010A801856421418502202349087000F044
:107DC000F3FE044600BF2546002D06D000BF00226A
:107DD0001146284600F060F800BF00BF1FE00520F4
:107DE000FFF738FF1921C90110A80185B421418589
:107DF000032015490870042000F0D6FE044600BF99
:107E00002546002D08D000BF002200E006E0114604
:107E1000284600F041F800BF00BF00E000BF00BFEF
:107E200016A873DF044600BF2546002D06D000BF0C
:107E300000221146284600F02FF800BF00BF00BF07
:107E40004CE700005920002052200020582000203C
:107E500070B574DF044600BF2546002D06D000BF74
:107E600000221146284600F017F800BF00BF00208E
:107E700000F09AFE044600BF2546002D06D000BF44
:107E800000221146284600F007F800BF00BF70BD71
:107E9000014608167047000000BF00BF00BF00BFCA
:107EA00000BFBFF34F8F00BF00BF00BF06480749A8
:107EB000C86000BF00BF00BFBFF34F8F00BF00BF4F
:107EC00000BF00E000BFFDE70400FA0500ED00E0A0
:107ED000F8B504460D46164603480768324629465B
:107EE0002046B847F8BD0000003200200246D068A6
:107EF0009368C01A0AD09068938818401368185C79
:107F000008709068401C9060002070470520FCE7D6
:107F10000246D0689368C01A9388984209D8D068FE
:107F20009388184013681954D068401CD060002012
:107F300070470420FCE70000F8B5044617480078B5
:107F4000142148431549091D0E5C081F00781421AF
:107F500048431249091D40188068000110490D5816
:107F60000E480078142148430C49091D40184088E8
:107F7000091F0090097814225143084A121D8918DC
:107F80000B69111F097814225143044A121D8918E4
:107F90000846083022463146A847F8BD2C3200205A
:107FA000F832002070B503460C46194800680028D6
:107FB00001D1082070BD002A01D10720FAE7002B6B
:107FC00001D10720F6E700211CE024204843104D92
:107FD0002D68285C002814D10125242048430C4E2C
:107FE0003668355424204843094D2D6840194470A3
:107FF00024204843064D2D684019826119600020F5
:10800000D8E7491C034800788142DEDB0420D1E731
:108010001822002014220020FFB581B00E4617461A
:108020001C4620468107890F002901D1012100E06B
:108030000021002902D1072005B0F0BD002C01D19C
:108040000720F9E705F0B8FE26490A980860264897
:1080500006702648046000250CE0002124206843B7
:10806000224A1268115424206843204A126880185A
:1080700001756D1CB542F0DB242070430419032008
:108080001B4908701B480460183400250CE0E90007
:10809000184A126888180021017041708770446086
:1080A000182179430C196D1C032DF0DB0020C0430F
:1080B0001149086000201149087011490870142006
:1080C000FFF7ACFA03211420FFF70CFB1420FFF795
:1080D000B9FA019805F046FE05F03EFE0949086030
:1080E0000020A9E7382200201422002018220020B6
:1080F0001C220020202200202422002034220020E4
:108100003522002028220020FEB504460D461646E2
:1081100016480068002801D10820FEBD14480078E8
:10812000844201D2052D01D20720F6E724206043C6
:108130000E490968085C012801D00820EDE72420D9
:1081400060430A49096840184078012801D128464F
:1081500000E00020074607F0A9FA3B462A462146E0
:108160000096019006F05CFED7E700001822002080
:108170001422002070B504460D480068002801D183
:10818000082070BD0B480078844201D30720F8E72F
:108190002420604306490968085C012801D00820B2
:1081A000EFE707F083FA0546214606F063FEE8E7AD
:1081B0001822002014220020F8B505460C4620782D
:1081C000001D1F2801DD0C20F8BD684679DF06463A
:1081D000002E01D03046F7E703212278501C207092
:1081E000A95419212278501C2070A95420784119D3
:1081F0006846008807F0D0F92178401820700020E8
:10820000E2E730B5044620060D0428431502284352
:10821000184330BD10B5044620780300FFF7BAFBC1
:10822000050B04080E1115006168A06888470DE071
:10823000606880470AE06068804707E060688047C0
:1082400004E0201D03F0D4FD00BF00BF00BF10BD3F
:10825000FEB507469E480078C01F0300FFF79AFB53
:108260000604245E9AD4FDFC9A4B9B4C24781A5D3C
:108270009A4B994C2478195D994B974C2478185D4A
:1082800004F008FF94490978481CC117490F0918E0
:10829000C910C900411A904A1170002291499248B0
:1082A0000068FFF731FF10E19048007801280ED1F7
:1082B000FF221146104604F0EDFE00208B490870A5
:1082C00000228B4988480068FFF71EFFFEBD8748E3
:1082D0000078002821D17F4B7F4C24781A5D7F4B9A
:1082E0007D4C2478195D7E4B7B4C2478185D04F01E
:1082F000D1FE01207D49087077490978481CC117D3
:10830000490F0918C910C900411A734A1170002297
:10831000744975480068FFF7F7FED6E075480068B5
:10832000FEF712FE0546744A744B07F0CBFA02D8EA
:108330007348704908606F480068FEF705FE714A8F
:10834000714B01910090FEF749FB0546FEF78CF951
:10835000684908600846006800F098FE044620025C
:10836000000E6A4908702004000E48708C700B469D
:108370009B78FF25EA1A0B465B78E91A634B1B785A
:10838000E81A04F087FE0022614957480068FFF7A9
:10839000BBFE9AE05548007801280ED1FF22114615
:1083A000104604F077FE0020504908700022594919
:1083B0004D480068FFF7A8FE88E74C480078002881
:1083C00021D1444B444C24781A5D444B424C2478D0
:1083D000195D434B404C2478185D04F05BFE01208E
:1083E000424908703C490978481CC117490F0918CF
:1083F000C910C900411A384A1170002239493A4857
:108400000068FFF781FE60E03A480068FEF79CFDD7
:108410000546394A394B07F055FA02D838483549EC
:10842000086034480068FEF78FFD0546354A364B34
:10843000FEF7D4FA01910090FEF716F92D49086075
:108440000846006800F022FE04462002000E2F4974
:1084500008702004000E01E036E014E048708C70D3
:108460000B469B78FF25EA1A0B465B78E91A274BE7
:108470001B78E81A04F00EFE002227491A4800680B
:10848000FFF742FE21E0134B134C24781A5D134B87
:10849000114C2478195D124B0F4C2478185D04F0B0
:1084A000F9FD0D490978481CC117490F0918C91071
:1084B000C900411A084A117000220121C9030A4863
:1084C0000068FFF721FE00E000BF00BF00BFFDE62F
:1084D0002C2000203E2000202D20002036200020CF
:1084E0002E2000209A59000028200020462000203D
:1084F000F60800001C2000201F85EB51B81E094023
:10850000C3F548C07B14AE47E17A843F4920002080
:10851000CD0C0000AE07000066260000F0B58BB061
:1085200004460D461646281BFEF782FD3146019093
:1085300007F06CFA0746FEF707FD0391029005F07D
:10854000BDFB079106902046FEF7F3FC05910490D1
:10855000079B069AFEF742FA09910890FEF792FCF3
:108560000BB0F0BD10B50446FFF782FA10BDF7B5A9
:10857000044600220023002000BF27E0A55C280756
:10858000000F092808DC002806DB05463035EEB26E
:108590001D465B1C4E5505E005465735EEB21D469F
:1085A0005B1C4E55A55C2811092808DC002806DB59
:1085B00005463035EEB21D465B1C4E5505E00546BE
:1085C0005735EEB21D465B1C4E55521C029DAA4209
:1085D000D4DBFEBDF3B593B00D460021129111918D
:1085E0001398002814D01398FFF723FB0446002C9F
:1085F00002D0204615B0F0BD12AA09A91398FFF7C2
:1086000081FA0446002C01D02046F3E709AE00E0D1
:108610000026002D13D0284605F024FE0446002C29
:1086200001D02046E6E711AA01A92846FFF76AFA19
:108630000446002C01D02046DCE701AF00E0002713
:1086400010A803793A46017A304672DFD2E700007B
:1086500070B505461C2229461448FDF7ABFD0020E5
:1086600013490870286800280BD00822114829688F
:10867000FDF7E8FE0F487ADF0446002C08D02046BC
:1086800070BD0C487BDF0446002C01D02046F7E784
:108690000020C04308490880002008490870084AA3
:1086A00000210848FFF77EFCEAE70000E4300020E4
:1086B000D4210020BC210020C6210020C42100209C
:1086C00011F60100D021002010B5044620881028A2
:1086D00006D0112808D012280ED0502810D107E05B
:1086E000204603F041FE0CE0204603F045FF08E081
:1086F000204603F0EBFF04E0204603F025FE00E0F7
:1087000000BF00BF10BD000010B502480068FFF7B1
:1087100031FD10BDD021002070B586B004460E4654
:10872000002C04D0002E02D07068002802D10E2048
:1087300006B070BD0020C0432080204B0FCB01ADA0
:108740000FC51F4869468882163101A863DF0546B8
:10875000002D01D02846EBE7221D05A90120A0DF4E
:108760000546002D01D02846E2E76846807DA071CD
:10877000204601F063FA0546002D01D02846D7E7D0
:10878000204601F0EBF90546002D01D02846CFE741
:108790003146204601F0BCFA0546002D01D028469E
:1087A000C6E77068A062B068002801D0B068E062D7
:1087B0000120044908700020BAE7000018FC0100FD
:1087C000301500008821002070B505460C46002DAC
:1087D00001D0002C00D170BDA86A00281FD02088CD
:1087E000102806D011280ED0502807D0512814D1B7
:1087F0000EE02146284603F0B3FD0FE0214628464F
:1088000003F04EFF0AE02146284603F0B1FE05E0E2
:108810002146284603F0D2FE00E000BF00BF00BFA3
:10882000D9E7000070B586B004460D461646002C08
:1088300002D10E2006B070BD20881A49884203D0AC
:1088400019480078002801D10820F3E700210191A0
:10885000102168468288501C83B2144801938154C9
:1088600068468188481C82B2104801924554684687
:108870008188481C82B20D48019246540020029023
:10888000039004900590218A68460181012181723C
:108890000021818101A8049004480590208802A944
:1088A000A6DFC7E7FFFF0000882100208921002004
:1088B00010B50446204601F09BFC2046FFF704FF5C
:1088C000204603F0D1FC204605F0D4F821460248AA
:1088D000FFF77AFF10BD0000B0260020F8B500BFFA
:1088E0000023502222490E2005F044FC054600BF1B
:1088F0002E46002E06D000BF002211463046FFF75C
:10890000CBFA00BF00BF00BF002000900090684677
:1089100060DF044600BF2546002D06D000BF0022C0
:1089200011462846FFF7B8FA00BF00BF114805F00E
:1089300015FC044600BF2546002D06D000BF0022CE
:1089400011462846FFF7A8FA00BF00BF0A4805F005
:1089500045FC044600BF2546002D06D000BF00227E
:1089600011462846FFF798FA00BF00BFF8BD000087
:10897000002A0020B188010089E601000146C8B242
:10898000704700007CB50446A1786A460D4803F0A4
:10899000B5FF0546002D13D16178182251430A4ACC
:1089A00088181C231822694604F0BAF80748807A10
:1089B000800007490A58214668469047054600BF8F
:1089C0007CBD0000D8210020C431002000320020EE
:1089D00068FC010070B5214800688047B1203CDF89
:1089E000044600BF2546002D06D000BF00221146D8
:1089F0002846FFF751FA00BF00BF11DF044600BF51
:108A00002546002D06D000BF002211462846FFF75C
:108A100043FA00BF00BF1249486913DF044600BF94
:108A20002546002D06D000BF002211462846FFF73C
:108A300033FA00BF00BF0B480078002801D001F0D6
:108A400051F8162001218140074A116000BF02F051
:108A5000A9FC0349486900F009F870BD9021002085
:108A6000001000109821002080E200E010B50446BC
:108A70002046FDF76DFB10BDF8B505460E460027F4
:108A80000024012E16D10C480068002812D000E006
:108A9000641C042C04D2A00008490858A842F7D14D
:108AA000042C01D20648075D002F03D03846024946
:108AB00009688847F8BD0000B021002028FC0100AB
:108AC000B421002030B50246042A10D2094C246992
:108AD000E34300209400084D2D5D0124AC401C4070
:108AE000002C01D0012400E000240C7000E00720DD
:108AF00030BD00000005005028FC010030B50346E1
:108B000000224AE09000274C215801209040184054
:108B1000002822D0052000070724240200198C0019
:108B2000005903242404A0430524240707252D020B
:108B300064198D00605105200007072424020019E4
:108B40008C0000590324240420430524240707250E
:108B50002D0264198D0060511EE0052000070724D6
:108B6000240200198C00005903242404A043052486
:108B7000240707252D0264198D0060510520000788
:108B80000724240200198C00005905242407072516
:108B90002D0264198D006051521C042AB2D30020AA
:108BA00030BD000028FC010070B5044600250648D1
:108BB0000078C007C00F002803D0204600F006F858
:108BC0000546284670BD0000A4210020F8B50446E3
:108BD000002500262300FEF7DDFE180D1718599A10
:108BE000F0EEEDECEBEAE9E8E7E6E5E4E3E2E1E00C
:108BF000DFDEDDDC00BFFB48FB4988600020C86089
:108C000000BFFA48047038E200BF00BFF5482038C2
:108C1000F54988600020C86000BF08464068F149F7
:108C2000083148402021084000280FD000BF2020F4
:108C3000ED4988600020C86000BF022C02D1E1200D
:108C4000C00001E07D20400106460DE000BF20206D
:108C5000E549C8600020886000BF022C01D1C8200F
:108C600001E0FF2091300646E04804706421304660
:108C7000FDF749FCDE4909684843074600223946AA
:108C8000DC480068FFF740FA0546F6E100BFD5482A
:108C90002038D54988600020C86000BF0846406879
:108CA000D049083148402021084000280FD000BF9B
:108CB0002020CD4988600020C86000BF032C02D16D
:108CC0001920400101E07D20400106460DE000BF73
:108CD0002020C549C8600020886000BF032C01D156
:108CE000C82001E0FF2091300646C048047064218E
:108CF0003046FDF708FCBE49096848430746002294
:108D00003946BC480068FFF7FFF90546B5E100BFEA
:108D1000B4482038B44988600020C86000BF0846C5
:108D20004068B049083148402021084000280FD051
:108D300000BF2020AC4988600020C86000BF042C20
:108D400002D17D20400101E07D20400106460EE079
:108D500000BF2020A449C8600020886000BF042C08
:108D600002D1FF20913001E0FF20913006469F485C
:108D7000047064213046FDF7C6FB9D4909684843ED
:108D80000746002239469B480068FFF7BDF90546B3
:108D900073E171E165E163E151E13FE12EE115E14C
:108DA000E7E0E5E0E3E0E1E0DFE0D5E0BEE0A9E018
:108DB00092E07DE06BE040E0FFE700BF89482038AB
:108DC000894988600020C86000BF0846406885491E
:108DD000083148402021084000280ED000BF202044
:108DE000814988600020C86000BF052C01D1C820DF
:108DF00001E07D20400106460DE000BF20207A49B9
:108E0000C8600020886000BF052C01D1C82001E0A7
:108E1000FF20913006467548047064213046FDF706
:108E200072FB734909684843074600223946714876
:108E30000068FFF769F905461FE100BF694820385F
:108E4000694988600020C86000BF084640686549DD
:108E50000831484020210840002806D000BF2020CB
:108E6000614988600020C86006E000BF20205E499C
:108E7000C8600020886000BF5C4804705C48002225
:108E800001685C480068FFF73FF90546F5E000BF60
:108E900054482038544988600020C86000BF00BF93
:108EA0002020C8600020886000BF50480470E4E0C3
:108EB00000BF4D494868102181434B4A9160102101
:108EC0000140D16000BF4A4800220168494800685B
:108ED000FFF71AF90546D0E000BF43494868102162
:108EE0008143414A916010210140D16000BF404858
:108EF00000688200811800223E480068FFF704F9EC
:108F00000546BAE000BF3849486810218143364A17
:108F1000916010210140D16000BF354800220168F6
:108F200034480068FFF7F0F80546A6E000BF2E4978
:108F30004868102181432C4A916010210140D16082
:108F400000BF2B4800688200811800222948006871
:108F5000FFF7DAF8054690E000BF224808302249C2
:108F6000C8600020886000BF87E000BF00BF00BF6E
:108F700000BF21480068FFF7FDF805461120061BD9
:108F8000002E1BD0002D19D1012E10D9C8217143FC
:108F900008466421FDF7B7FA1549096848430746B2
:108FA0000022394614480068FFF7AEF8054600BFB6
:108FB00008200D49C8600020886006E000BF082036
:108FC000094988600020C86000BF56E000BF05481E
:108FD0000830054988600020C86000BF034804705D
:108FE0004BE0000030000001000500509C210020F3
:108FF000A0210020A8210020AC21002000BF204893
:10900000204988600020C86000BF00BF2020C860E1
:109010000020886000BF1C4804702EE000BF184884
:109020001030184988600020C86000BF00BF1020C1
:10903000C8600020886000BF134804701DE000BFB6
:109040000F4810380F4988600020C86000BF00BF7B
:109050003020C8600020886000BF0B4804700CE01E
:1090600000BF00BF064820300649C8600020886065
:1090700000BF0548047000E000BF00BF2846F8BDEF
:1090800018000001000500509C210020F1B58AB0B5
:109090000A98FDF759FF454A454B01910090FDF7AD
:1090A000CDFC03910290FDF7DFFA089000210898AB
:1090B00006F082FC05D27F21C905089806F036FC2F
:1090C00008900021089806F077FC07D83948006816
:1090D00039490860374800680BB0F0BD7F21C905E9
:1090E000089806F0EBFC06D83248806932490860DF
:1090F00030488069F0E73149089806F087FC05465A
:109100002846FDF74BFF04462046FDF791FF294610
:10911000039006F0FFFC0546A00026490E58601C8F
:1091200080000F583846FEF7B3FE03903046FEF736
:10913000AFFE2A4602900399FFF7F0F907903846F0
:1091400004F06FFD0390304604F06BFD2A46029058
:109150000399FFF7E3F90690384602F0C0F8039050
:10916000304602F0BCF82A4602900399FFF7D6F980
:1091700005903846FFF702FC03903046FFF7FEFBF0
:109180002A4602900399FFF7C9F90490049B059AB7
:1091900006990798FFF735F807490860049B059A78
:1091A00006990798FFF72DF896E700001F85EB5109
:1091B000B81E1940A4200020A02000200000C040BC
:1091C000F0B585B00F275848007814214843564918
:1091D000091D4418E5682078022804D0042823D00B
:1091E00005286FD16FE020690390504800888602FF
:1091F0006088801B0490039880190390A0888019D0
:109200004519012189020498884206D204988208EF
:109210002846039921DF074605E0FF220132284650
:10922000039921DF074676E0A06800014049401815
:1092300000890490A0680001401840890390A0684C
:1092400000014018406802900298A84205D1039995
:10925000049848436188884202D0A06803280DD151
:1092600001200007006981B22846FDF74CF92F491B
:1092700009884618304620DF074622E00120000713
:10928000006981B22846FDF73EF906460120000735
:10929000006980B27043281A8008019001200007FD
:1092A000006980B2711C484361884919401A8008DE
:1092B000009031462046009B019A05F0BFF8074612
:1092C00000BF28E026E001200007006981B228469F
:1092D000FDF719F90646A088411901200007006929
:1092E00080B27043081A80080490A08840196188F1
:1092F000421801200007006980B2711C4843801A9F
:109300008008039031462046039B049A05F096F8A6
:10931000074600E000BF00BF002F02D10120024934
:109320008870384605B0F0BD2C32002004220020A1
:10933000F832002010B5002406484078002807DDE8
:10934000FFF73EFF0446002C02D0112C00D1002470
:10935000204610BD2C3200200023142141430C4A2A
:1093600053541421414389184B8002231421414353
:1093700089188B600023142141438918CB60142184
:10938000414389180B611421414389188B80704730
:1093900030320020FFB581B0064617460024204831
:1093A00040780A2837D01E4800781D49497840186F
:1093B000C4B20A2C02DB20460A38C4B2142060432F
:1093C0001749091D0E5414206043401807611420EA
:1093D00060434118029805C8CA6088601420604341
:1093E0000F4A121D80180499418014206043801890
:1093F0000A9981800025101F8078002805D1FFF789
:10940000DFFE0546112D00D1002505484078401C9F
:109410000349487000E00425284605B0F0BD00006F
:109420002C32002010B50020084908800849087037
:109430000849087048708870002403E02046FFF750
:109440008BFF641C0A2CF9D310BD000004220020FD
:10945000072200202C320020FEB51E480068401C68
:10946000002834D01B480068242148431A49096861
:109470004018456804F070FC0190184804682146C3
:10948000019805F00DF9C61C15480078002801D197
:1094900004F074FCAE4201D2284600E030460419C4
:1094A0002402240A20460F49086000BF04F054FC3F
:1094B00000900199009805F0F3F8C71C2046019927
:1094C00005F0EEF8874201D905F042FD01E004F015
:1094D00073FCFEBD24220020182200202822002038
:1094E0003C2200204015014001460888062808DB80
:1094F00008881922D201904205DD0888104A90425E
:1095000001D0072070474888062808DB48881922C0
:10951000D201904205DD4888094A904201D00720D7
:10952000F0E70888064A904208D04888904205D063
:1095300008884A88904201DD0720E3E70020E1E740
:10954000FFFF0000F8B506460D4614462078801D42
:109550001F2801D90C20F8BD3046FFF7C5FF07468C
:10956000002F01D03846F6E705212278501C2070E4
:10957000A95412212278501C2070A9542278511924
:10958000308806F009F821784018207022785119A7
:10959000708806F001F82178401820700020DAE782
:1095A00010B5044600BF002211462046FEF774FCA9
:1095B00000BF10BD30B587B01C216846FCF7A1FF85
:1095C000002000900520C00301900F2000040290AD
:1095D0000321684601730021C1810121017400202B
:1095E00005900A4806906846FFF732F8044600BF27
:1095F0002546002D06D000BF002211462846FEF762
:109600004BFC00BF00BF07B030BD0000A1950100BA
:1096100038B51F4801F0FEFE002829D11D4800780A
:1096200000280AD01C484069002820D00020009063
:10963000194841696846884719E0184800780028A9
:1096400002D11548456801E0134885680022294683
:1096500013480068FEF758FD0446002C07D00E485A
:109660008069002803D00C488169204688470AE0B9
:1096700009484069002806D0012000900648416949
:109680006846884700BF00200249087038BD0000C6
:10969000C8210020D4210020E4300020C421002073
:1096A000D021002070B503460C460820002115E0AB
:1096B0000C254D430B4EAD19AD7A2540002D0CD035
:1096C000094DAB4205D00C254D43AD192D899D4266
:1096D00002D11160002003E00520491C0029E7D0D9
:1096E00000BF70BDF4310020FFFF000010B504463C
:1096F00001210C2060430A4A80188172891E0C20C7
:10970000604380180181FF210C2060438018C172E2
:109710000C21614388180721FCF7F1FE10BD000001
:10972000F431002010B514484068C105C90D002966
:1097300020D00A46103A50B200280DDA0E4B1C33E6
:109740000407240F083CA408A4001B598407E40E56
:10975000E3401B069B0F0BE0084B032424021B195C
:109760008408A4001B598407E40EE3401B069B0FEA
:10977000D8B210BD0420FCE700ED00E000E100E0FD
:10978000FEB504460E46A1786A46284803F0B6F8AE
:109790000546002D49D160780C21484324494018E2
:1097A000807A20210840202801D0022E01D1214FAB
:1097B00004E0012E01D1204F00E0204FA0781C22B0
:1097C00050431F4A811800231C226846B8470546AB
:1097D000002D1AD1022E18D060780C21484314496C
:1097E0004018807A2021884361780C225143104A26
:1097F00089188872607818225043124A81181C23F5
:1098000018226846B847054600BF022E0DD02078C2
:109810000C2148430C494018807A80000B490A58B3
:10982000214668469047054600BFFEBDD82100206E
:10983000F4310020C1CF010095CD0100D5E3010036
:1098400000310020C43100200032002058FC01000B
:10985000F8B505460E461B4F00242EE01C20604341
:1098600019494018807EFF2826D13078022814D06C
:109870001C2060434018807E022188431C216143E4
:10988000114A891888761C216143891808461030CE
:1098900007223146FCF7D6FD0BE01C2060430A4945
:1098A0004018807E410849001C206043064A801809
:1098B00081762C70002702E0641C072CCED300BFF9
:1098C0003846F8BD4380000000310020F8B5054659
:1098D0000E4617460520009000241BE0002D06D1FF
:1098E0001C2060430E494018008BB8420DD0002D5B
:1098F0000FD01C2161430A4A8918084610300722FC
:109900002946FCF74FFD002803D134600020009069
:1099100002E0641C072CE1D300BF0098F8BD0000F2
:1099200000310020F8B507460D46144600BF264614
:10993000002E06D000BF002211463046FEF7ACFADA
:1099400000BF00BF2878122808D0142802D0212890
:1099500008D100BF384600F0B1F803E0002000F065
:10996000ADF800BF00BF0020F8BD00007FB503F0D8
:1099700065F8044600BF2546002D06D000BF002232
:1099800011462846FEF788FA00BF00BF03A9012050
:10999000FFF798F8044600BF2546002D06D000BF0B
:1099A000002211462846FEF777FA00BF00BF03A841
:1099B00000F010FF044600BF2546002D06D000BF72
:1099C000002211462846FEF767FA00BF00BF0621B5
:1099D00001A80230FCF793FD1E216846C180007A81
:1099E00040084000401C694608726846007A02211F
:1099F0008843694608726846007A1C2188430C3007
:109A0000694608726846007A2021884369460872D0
:109A1000072168464172102181720B480090012194
:109A2000684601716946094801F046F8044600BFDE
:109A30002546002D06D000BF002211462846FEF71D
:109A40002BFA00BF00BF7FBD2599010058200020E0
:109A5000F8B506460C4620780300FDF79BFF0A0682
:109A60000D0E0A0B0C10110F1209FEF7B3FF1BE0CD
:109A700000BF00BF00BF00BF00BF00BF00BF00BFEE
:109A800000BF032201213046FEF7CCFE054600BF91
:109A90002F46002F06D000BF002211463846FEF7A1
:109AA000FBF900BF00BF00BF00BFF8BD704700005A
:109AB00001490860704700009021002010B504465D
:109AC000002006490870002C07D0042221460448D3
:109AD000FCF7B8FC01200149087010BD9821002056
:109AE0009421002030B587B001A91A4800F014FE77
:109AF000044600BF2546002D06D000BF00221146B7
:109B00002846FEF7C9F900BF00BF0598014610318D
:109B100007221148FCF796FC14220F4824380499B8
:109B2000FCF790FC10220C4810380599FCF78AFCD1
:109B30000948243800DF044600BF2546002D06D022
:109B400000BF002211462846FEF7A6F900BF00BF5D
:109B500007B030BD94210020DA30002010B58EB05F
:109B600004461C2107A8FCF7CCFC6846007F0821AE
:109B70008843411868460177007F102188434118C7
:109B800068460177002008900A900B900C900D9089
:109B9000A17968468171284981800020009000BF2A
:109BA0006846007801090901684601700078F021D3
:109BB00088436946087000BF00BF684640780109C5
:109BC0000901491C684641704078F02188431030F3
:109BD0006946487000BF6846807806218843811C2A
:109BE0006846817080780821884301466846817004
:109BF0008078102188434118684681708078410838
:109C00004900491C68468170142102A8FCF779FCC0
:109C100001A8029068460390002101824182172129
:109C2000818200200690A0882346103302AA07A94B
:109C3000A2DF0EB010BD00003115000010B58EB0CF
:109C400004461C2107A8FCF75CFC6846007F042141
:109C50008843011D68460177002008900A900B9008
:109C60000C900D90A179684681712849818000206F
:109C7000009000BF6846007801090901684601703C
:109C80000078F02188436946087000BF00BF68462D
:109C9000407801090901491C684641704078F0216B
:109CA000884310306946487000BF684680780621B6
:109CB0008843811C6846817080780821884301466A
:109CC000684681708078102188430146684681701B
:109CD000807841084900491C68468170142102A817
:109CE000FCF70FFC01A80290684603900021018256
:109CF00041821421818200200690A08823460833E7
:109D000002AA07A9A2DF0EB010BD000032150000A4
:109D100030B58FB004460D461C2108A8FCF7F1FBB6
:109D200008A8007802218843811C08A8017000203F
:109D300009900B900C900D900E90A179684681725D
:109D4000284901810020019000BF6846007901097F
:109D50000901491C684601710079F02188431030DF
:109D60006946087100BF00BF6846407901090901D2
:109D7000684641714079F02188436946487100BFC7
:109D80006846807906218843811C68468171807904
:109D900008218843014668468171807910218843F3
:109DA000014668468171807941084900491C68462E
:109DB0008171142103A8FCF7A4FB02A8039001A859
:109DC00004900221684681820021C1820221018320
:109DD0000795A0882346203303AA08A9A2DF0FB065
:109DE00030BD00003415000010B58AB0242101A850
:109DF000FCF787FB05F09AFC04F090F91C4871DF32
:109E000002221C491A48401CFEF7B1FB242101A87C
:109E100001F066FC68460079402811D16846407917
:109E20001F2801DD1F2001E06846407912490880A3
:109E30000846028801A90231801CFCF703FB11E0EF
:109E40000C48001FFCF7DCFA044622460949091FAA
:109E50000948801CFCF7F6FA0648001FFCF7D0FA08
:109E60000549088005490648FCF749FB0AB010BDC2
:109E7000012000200C2000205822002002040000B5
:109E800086220020F7B58EB0064600200D9070683F
:109E90002038807F71682039C97F09020843044651
:109EA00010980A2801DA11B0F0BD0D990F984018EA
:109EB0000C900C22BC480C99FCF7C4FA0622BB4952
:109EC0000C98FCF76FFA002806D00622B8490C98C7
:109ED000FCF768FA00287DD10D98801DC0B20D9066
:109EE0000D990F984518287847083B00FDF752FD5B
:109EF0000D084041B8C7D6F8F6F5F4F3F2F1F000DA
:109F0000AC480088A04203D1307C002800D1CAE7C9
:109F1000A8480480A8480068FEF72CF968788008F3
:109F2000032800DABFE72879A449096888420AD1E2
:109F30006879A3490968884205D1A879A1490968C7
:109F4000884200D1AFE728799E49086068799C492A
:109F50000860A879994908609A4B1B889AB2984B77
:109F60001B8899B2954B1B8898B203F093F816E1C1
:109F700015E190480088A04203D1307C002800D130
:109F800091E78C48048068788008012827DA8E4899
:109F9000FCF736FA02468C4900908C48FCF752FADE
:109FA0008948FCF72DFA8949891E088000BF684658
:109FB000007901090901491C019168460079F021E5
:109FC00088431030019000BF8048801E0288811CA9
:109FD00001A800E0E5E07CDF05F092FB63E72221C9
:109FE0007A48801EFCF78BFA1F207849891E08806A
:109FF00068788208291D7548FCF724FA687880087B
:10A000007249891E088000BF08A8007B0109090168
:10A01000491C0B9108A8007BF021884310300B905D
:10A0200000BF6A48801E0288811C0BA87CDF2421A7
:10A0300002A8FCF766FA4021684601726348801E58
:10A040000178684641726148801E0288811C02A81E
:10A050000230FCF7F7F9242102A804F0BFF99EE0D2
:10A060001C215B48FCF74DFA0321594801F07AF8AE
:10A0700014225749891D022003F0C8FD8FE01C21DE
:10A080005348FCF73EFA0421514801F06BF81422C2
:10A090004F49891D022003F0B9FD80E04548008842
:10A0A000A04203D1307C002800D1FCE64148048066
:10A0B00041480068FEF75EF8424B1B889AB2404B5D
:10A0C0001B8899B23D4B1B8898B202F0E3FF66E013
:10A0D00064E040E03EE03CE018E016E014E0FFE71A
:10A0E00034480088A04203D1307C002800D1DAE651
:10A0F0003048048030480068FEF73CF8FF221146E3
:10A10000104602F0C7FF4AE000BF00BF29480088A0
:10A11000A04203D1307C002800D1C4E62548048049
:10A1200000202C49086024480068FEF723F800202E
:10A130002949087029480770002029490870012022
:10A1400028490870002228491B480068FDF7DCFFF9
:10A1500025E000BF00BF17480088A04203D1307C33
:10A16000002800D19FE61348048020481949086060
:10A1700011480068FDF7FEFF0620174908701748D0
:10A180000770002016490870012016490870002247
:10A19000154909480068FDF7B7FF00E000BF00BFA0
:10A1A00000BF00BF7FE600007A22002020200020B0
:10A1B000022000204C2000202820002080200020A9
:10A1C0008420002088200020082000205A2200201F
:10A1D000942600201C2000202D2000202C20002070
:10A1E00046200020472000209A190000C3F5C83FF0
:10A1F000F0B589B004460026FF20029000BFFE485B
:10A200000078002801D109B0F0BD00BF00BFFB48B5
:10A210000068002800D1F6E700BF06A800F0CCFADD
:10A22000054600BF2F46002F06D000BF0022114672
:10A230003846FDF731FE00BF00BF002001900790B7
:10A240000025201D0490342168468182FF218176FB
:10A2500000210176002008902088102813D0A088C3
:10A2600008AA0221FFF71EFA0546002D0BD10C218A
:10A2700008984843E2494018C17A684681760898B0
:10A28000C1B2684641762088142879D006DC1028AF
:10A290000BD0112879D0132874D1F5E0172872D08B
:10A2A000182871D05228F7D106E208AF3A460121AA
:10A2B000D448FFF7F7F900900098002807D1022151
:10A2C0000C2238685043CE4A8018817201E0042085
:10A2D000009000980546002D51D1012611216846B5
:10A2E00001730898C1B268464176A1880C2208988B
:10A2F0005043C34A8018018102210C220898504320
:10A30000BF4A801881720C2208995143BC4A8818B0
:10A310000722A11DFCF796F8607B304000280AD088
:10A32000607B4008B849085CFF280AD0607B400881
:10A33000085C029005E0B34A02A9A01DFFF7C6FA27
:10A340000546002D1BD10298C1B20C22089850433B
:10A35000AB4A8018C1720C21089848431146401836
:10A36000807A082108430C2208995143A44A89188D
:10A37000887269460298887606A8FEF703FBA5E175
:10A3800041E002E0A1E1C0E075E10C2108984843FA
:10A390009B494018807A022188430C220899514336
:10A3A000974A891888720C2108984843114640182A
:10A3B000807A0821084008280ED10C2108984843CB
:10A3C00011464018807A4021084040280FD10021D2
:10A3D00006A8FFF7D5F90AE06846807EFF2806D078
:10A3E0006946887E02F0F4F9FF20694688761021DC
:10A3F0000C2208985043824A80188172012612204C
:10A400006946087362E10C21089848437C4940186A
:10A41000C07AFF2823D1E28902A90020FFF756FA6B
:10A420000546002D1BD10298C1B20C22089850435A
:10A43000734A8018C1720C2108984843114640188D
:10A44000807A082108430C22089951436C4A8918E4
:10A45000887269460298887606A8FEF793FA0C215E
:10A460000898484366494018C07AFF2806D018214A
:10A470000898484365494018001D0190A0880022B3
:10A48000019981DF054621E1132069460873A08800
:10A490005A4A121D00217FDF0546002D02D0079584
:10A4A000002631E00C210898484355494018807A2D
:10A4B000042108430C2208995143514A8918887293
:10A4C00001260C210898484311464018C07AFF28FD
:10A4D0001AD000BF16206946087318220899514304
:10A4E0004B4A8918081D1421FCF70BF80C21089819
:10A4F000484343494018807A202108430C22089998
:10A5000051433F4A89188872E0E00C21089848437B
:10A510003B494018807A042188430C220899514312
:10A52000374A891888721420694608730126A07971
:10A53000002802D0A07907909CE018210898484391
:10A5400032494118E07A88701821089848432F4909
:10A550004118A07A48701822089951432B4A89184B
:10A56000081D142221460C31FBF76CFF0C210898C2
:10A57000484323494018807A40210840402879D137
:10A580000C21089848431E494018807A0821084346
:10A590000C22089951431A4A891888720C2108988C
:10A5A000484311464018C07AFF2851D10C22089820
:10A5B00050430A46811802A8FFF74AF90546002DC4
:10A5C00044D16946029888760298C1B20C22089854
:10A5D00050430B4A8018C172A1891C220298504333
:10A5E0000C4A80180183E07A4007C00F002828D069
:10A5F0001C22029951430FE0E42100200032002088
:10A60000F4310020FFFF0000E5210020C4310020CC
:10A61000DC310020003100203A4A881810222146FF
:10A620002031FBF70FFF1C210298484335494018A1
:10A63000807E410849001C2202985043314A80180C
:10A640008176012106A8FFF79BF813E0079511E03A
:10A650000C21089848432C494018807A202108434F
:10A660000C2208995143284A89188872002106A8AB
:10A67000FFF786F82AE00C21089848432249401841
:10A68000807A402108430C22089951431E4A8918B8
:10A6900088721520694608730020079001261B4820
:10A6A000807A80001A4A115806A888470546002D6E
:10A6B00001D01848079009E01448807A8000144AB5
:10A6C000115806A88847079000E000BF00BF002E81
:10A6D00016D003A906A8079AFDF7FAFB6846007B87
:10A6E00012280DD100BF0C21089848430649401894
:10A6F000807A012802D00898FEF7F8FF00BF00BF5B
:10A7000000BF80E500310020F4310020003200203D
:10A7100078FC010041800000024600BF214800781B
:10A72000002801D12048704700BF002A02D11E48EE
:10A73000801DF8E7002902D11B48801DF3E700BF08
:10A740001078012806DA10780C235843174B185854
:10A75000002801D11448E6E700BF00BF9078072821
:10A7600007DA90781C235843114BC018807EFF28CD
:10A7700002D10D480830D6E700BF5078182358435F
:10A780000C4BC018001DC86090781C235843084B20
:10A79000C3180B6100234B6100204860886008608B
:10A7A00000BFC0E7E4210020088000000032002044
:10A7B00000310020C43100200146002901D10448A5
:10A7C0007047FF20087048708870C8700020F7E755
:10A7D0000E8000007FB50646002E02D1354804B039
:10A7E00070BD00240BE000BF00210C206043324A02
:10A7F00011500C2060438018817200BF641C002C33
:10A80000F1D0002403E02046FEF770FF641C002C0A
:10A81000F9D018212948FBF774FE002406E02046F1
:10A8200001F0D6FFFF2026490855641C072CF6D3FB
:10A830005021684681810721C18122480290224926
:10A8400002A802F0E7F90546002D30D101201F498A
:10A8500008703078002821D100241CE0A1B26A469B
:10A86000194802F04BF80546002D0FD11C21614319
:10A87000174A881800231C22694602F051F9054640
:10A88000002D07D000201149087006E000200F4974
:10A89000087002E0641C072CE0D308E06A46908947
:10A8A000D289504381B2084802F070F80546284624
:10A8B00095E700000E80000000320020DC3100200F
:10A8C000E5210020D5A80100D8210020E4210020A6
:10A8D00000310020FFB58BB00F461D4600BF6F480A
:10A8E0000068002801D10FB0F0BD00BF14985028B7
:10A8F00000D9F8E70120029007A8FFF75DFF0646A0
:10A9000000BF0196019E002E06D000BF0022114616
:10A910000198FDF7C1FA00BF00BF0021684601772A
:10A9200008A801700695149805900020019017E082
:10A93000019881B203AA5A4801F0E0FF0646002EB2
:10A940000BD1082203A90B98FBF72CFD002804D19A
:10A950000198C1B26846817705E00198401C0190DA
:10A9600001980728E4D300BF6846807FFF287BD08A
:10A97000042F0AD11498502803D1202008A9087068
:10A9800066E0402008A9087062E04649681A1C2168
:10A99000FBF7B9FD0446072C1DD205A809900D98B8
:10A9A000002810D16946887F012181403E4A126803
:10A9B0001140002901D0012100E00021002902D12D
:10A9C0000020029044E06946887F04F017FE2020B2
:10A9D00008A908703CE03549681A1821FBF793FD77
:10A9E0000446002C0DD105A80990202108A801706B
:10A9F00068464477807F1C2148432A4940180690C6
:10AA000026E02B49681A1821FBF77DFD0446002C2F
:10AA100019D1302108A80170684644770121C17717
:10AA20000C20604323494018807A02210840022804
:10AA30000ED06946497F182251431D4A88181821B3
:10AA4000FBF75FFD04E000200290402008A9087099
:10AA5000029801281FD1042F07D108A908780321E3
:10AA6000084308A908700FE015E0032F06D108A9D4
:10AA700008780121084308A9087005E008A90878AA
:10AA80000221084308A9087005A8099008A907A889
:10AA90000D9AFDF71DFA00BF25E7000000320020E7
:10AAA000D821002000310020E0210020C431002006
:10AAB000DC310020F431002070B505460C4600BFA3
:10AAC00017480078002801D1164870BD00BF002D3E
:10AAD00002D11448801DF8E7002C02D11148801DD6
:10AAE000F3E72068002802D10E48801DEDE70E48EC
:10AAF000006800280FD10C49206808600622A11DBB
:10AB00000948001DFBF79EFC207907498872002048
:10AB10002870002601E0034E361F3046D5E70000BE
:10AB2000E42100200880000000320020F0B5044637
:10AB300000BF30480078002801D12F48F0BD00BF89
:10AB4000002C02D12C48801DF8E7002902D12A48A8
:10AB5000801DF3E70868002802D12748801DEDE733
:10AB60008868002802D12448801DE7E700BF2078CC
:10AB7000012806DA20780C256843204D2858002843
:10AB800001D11D48DAE700BF00230022002024E0A5
:10AB90001C2545431A4EAD19AD7EED07ED0F002D76
:10ABA00008D11C254543AD1997008E68F551154E07
:10ABB000B054521C1C254543114EAD19AD7E0226E2
:10ABC0003540002D08D11C2545430D4EAD191035DB
:10ABD0009F000E68F5515B1C401C072805D20D79BB
:10ABE0009D4202D90D7B9542D2D80B710A73002089
:10ABF000A4E70000E42100200880000000320020CB
:10AC000000310020E5210020F8B5214E0020009001
:10AC1000022020490870002000F07AF800271E4822
:10AC200003F0BCF9002826D11C491B4803F074F935
:10AC3000002820D019484078801CC0B20090174EE0
:10AC400024211748FBF75BFC272315493046009A5F
:10AC500003F0D0FA044600BF2546002D06D000BF01
:10AC6000002211462846FDF717F900BF00BF012753
:10AC700001200C490870002F03D1012000050A496A
:10AC8000C860002001F098FA002001F08DFAF8BDAC
:10AC9000E4200020E5200020A22D0020672E0020C7
:10ACA000412E0020E62000200005005001461448F7
:10ACB0000078144A127890421DD011480078401C48
:10ACC0000F4A107010460078022801D10020107041
:10ACD0000B48007880000C4A105808600B4A08683E
:10ACE00012688018094A1060104600680002000AC5
:10ACF0001060012070470020086000BFFAE70000E4
:10AD000034220020352200202C220020282200207E
:10AD1000002804D00121C907034A516003E0012142
:10AD2000C907014A916070470063004010B50749A8
:10AD30000968074A914201D9114601E003490968AF
:10AD40000846012104F0BCF910BD000020210020BC
:10AD5000A08601000448007804490978884201D19E
:10AD6000012070470020FCE73C2100203D2100200D
:10AD70000248007802490870704700003C2100201A
:10AD80003D210020054800780830054909788842AF
:10AD900001D1012070470020FCE700003D21002088
:10ADA0003C21002070B50446FFF7D4FF002801D0F5
:10ADB0000E2070BD002C0DD00A4800784007400FCF
:10ADC0003021484308494518302229462046FBF7E0
:10ADD000F1F900BF03480078401C024908700020C8
:10ADE000E7E700003D210020A02E002070B50446BA
:10ADF000FFF7C8FF002809D000BF042600BF0022CB
:10AE000011460420FDF748F800BF00BF0A4800784B
:10AE10004007400F30214843084945183022214659
:10AE20002846FBF7C7F9044801780078401C024A1D
:10AE300010704807400F70BD3C210020A02E00205C
:10AE4000F0B50346002426E0164E366824277E43DC
:10AE5000154F3F68F01946689E4203D94668F61AB6
:10AE600046601DE046689B1B466834190026466014
:10AE700006750C4E35680B4F066A3E600669002E5B
:10AE800008D00E193602360A86600669C660166852
:10AE90000662156000BF03480068401C0028D3D13B
:10AEA00000BFF0BD24220020182200203EB500BFC4
:10AEB0006846007801090901491C0091684600783C
:10AEC000F02188431030009000BF27480288811C81
:10AED00068467CDF044600BF2546002D06D000BF33
:10AEE000002211462846FCF7D7FF00BF00BF09200B
:10AEF000800178DF044600BF2546002D06D000BF44
:10AF0000002211462846FCF7C7FF00BF00BF002003
:10AF100001900290A021684681804900C1800021F3
:10AF20000181FF219131418101A87ADF044600BFF0
:10AF30002546002D06D000BF002211462846FCF70A
:10AF4000ABFF00BF00BF042077DF044600BF2546EB
:10AF5000002D06D000BF002211462846FCF79CFFBA
:10AF600000BF00BF3EBD0000582200200146002067
:10AF700070470246002070470246002070470000DC
:10AF8000F8B504460026002760781821484319497F
:10AF9000085800281FD060780C21484316494018F3
:10AFA000807A40210840402815D160780C21484320
:10AFB00011494018807A2021084020280BD0607861
:10AFC000182148430B494018061D60781821484352
:10AFD0000849085A87B261780C225143064A8918F9
:10AFE00008893A463146A9DF0546002D00D0034DB9
:10AFF0002846F8BDDC310020F431002041800000FB
:10B0000070B505460C466178182251430C4A8818E1
:10B0100034231822294601F083FD0646002E0DD167
:10B0200060781821484306490858401C002805D17B
:10B030000021607818225043014A1150304670BDFB
:10B04000DC310020F0B587B007460C461420019093
:10B0500061780C225143294A8918088901AA02A95A
:10B06000AADF0646002E46D1617818225143244AB1
:10B070008918081D69468A8802A9FBF793F90028F8
:10B0800012D160780C2148431C494018807A022173
:10B09000084002282FD0617818225143184A881896
:10B0A0001821FBF72EFA26E060781821484314494E
:10B0B0000858002801D0134D00E0134D69468988D7
:10B0C0006078182250430E4A11506178182251437B
:10B0D0000B4A8918081D69468A8802A9FBF76AF895
:10B0E000607818225043064A8118342318223846C3
:10B0F000A847064600BF002007B0F0BDF43100208D
:10B10000DC310020C1CF010095CD010070B50546AE
:10B110002846FFF735FF0446002C02D100BF00BFD0
:10B120000446204670BD70B505460E463146284699
:10B13000FFF766FF0446002C02D100BF00BF0446A3
:10B14000204670BD70B505460E4631462846FFF7CD
:10B1500079FF0446002C02D100BF00BF0446204600
:10B1600070BD0000F3B581B00546002402980328A5
:10B1700002D004284BD122E02E1906222549304660
:10B18000FBF760F906222449B01DFBF75BF9204666
:10B190000C30C4B206222046611CCCB22A540722CD
:10B1A0002046611CCCB22A5400222046611CCCB23D
:10B1B0002A54281906221849FBF744F928E02F19C8
:10B1C000062214493846FBF73DF906221249B81DFC
:10B1D000FBF738F920460C30C4B22E193078FE2126
:10B1E0008843083030707078FC2188430B49098807
:10B1F0008900FC221140084370700020B070F0708C
:10B2000006480288811C301DFBF71CF900E000BFD6
:10B2100000BFFEBD80220020022000205822002016
:10B22000002026E0154982008958012906D0012115
:10B230008140134A12781140002918D00121814021
:10B240000F4A12788A430E490A70014608310122DA
:10B250008A400C498A60012181400B4A12788A4356
:10B2600009490A70002205498300CA507047411CF1
:10B27000C8B20428D6DBFF20F8E700004081004078
:10B28000EA20002000F50140E820002010B505204C
:10B2900000F080FF002303220521184600F0A8FFDC
:10B2A000042000F077FF002303220421012000F096
:10B2B0009FFF032000F06EFF0023032211460220AF
:10B2C00000F096FF0021052000F07EFF0021042001
:10B2D00000F07AFF0021032000F076FF10BD014648
:10B2E0000804000E70470000F8B5294800780028CF
:10B2F00000D1F8BD27480068002801D1012000E0F6
:10B300000020054624480068002801D1012000E003
:10B310000020064600BF002D14D1684651DF0446C8
:10B32000052C01D101250CE0002C06D000BF002225
:10B3300011462046FCF7B0FD03E016490098096865
:10B34000884700BF002E1AD1144800880090694633
:10B350001348006861DF0446052C01D101260DE089
:10B36000002C06D000BF002211462046FCF794FDB9
:10B3700004E00B48006808490968884700BF002DB1
:10B3800002D0002E00D000E0C5E700BF00BFB0E74C
:10B390004422002054220020502200204C22002071
:10B3A0004822002010B500200A490A680FE0012158
:10B3B00081401140002909D041B2CC06E40E01239E
:10B3C000A340044C8034236000BF00BF401C2028F1
:10B3D000EDD310BD00E100E0FEB50446022001906F
:10B3E000A08A6B4601AA0021A5DF0546002D07D0E3
:10B3F000E06A002802D02846E16A88470020FEBDA6
:10B400006E46304604F0C2F80746F807C00F00BF8A
:10B41000F5E7000001464888064A1288904206DB9C
:10B420004888044A5288904201DC0120704700207D
:10B43000FCE70000BC2100200C48008CC0B20128B1
:10B4400012D10A48808C0007000F00280CD1074851
:10B45000806AF0210840402806D10448C06A0840AC
:10B46000002801D1012070470020FCE7C00F00F048
:10B470001948008CC0B201282CD11748808C0007D5
:10B48000000F002826D11448806AF02108400028C7
:10B4900006D11148C06A0840002801D10120704738
:10B4A0000D48806AF0210840102806D10A48C06A79
:10B4B0000840002801D10120F1E70748806AF02107
:10B4C0000840302806D10448C06A0840002801D14D
:10B4D0000120E4E70020E2E7C00F00F00146880702
:10B4E000800F002801D1012070470020FCE70000F8
:10B4F000FEB52B48006801902A480078009040E093
:10B500000098C000284909684418257835E01820BB
:10B51000684361680F18681CC5B2A078A84200D1C2
:10B5200000253878022802D0032823D10EE02421F8
:10B53000786848431D4909684618307D002804D0C2
:10B54000786803F0CDFA0020307514E00CE014495F
:10B55000096824225143154A126888180021017590
:10B560000F4A016A116000BF0D480068401C0028A6
:10B57000EDD100E000BF00BF00BF6078A842C6D197
:10B5800000BF0098411EC9B200910028B8D10448FC
:10B5900001680198814201D00120FEBD0020FCE736
:10B5A000242200201C22002020220020182200201B
:10B5B000FEB5074643480068029043480078019072
:10B5C00071E00198C00041490968451863E0781CA2
:10B5D000002807D03E46242070433D49096844189E
:10B5E000276A29E02978182359436A68501829786E
:10B5F000491C29702978AA78914201D1002129702B
:10B60000466824217143324A12688C180178012956
:10B6100002D1217D002900D03DE08168A160C16890
:10B62000E160016921614169E1612A4909780029E4
:10B6300001D00021A16000BF2749A0680968401A15
:10B640000002000A2549884208D22349A0680968F7
:10B6500003F026F8E1684018606011E01E48A16818
:10B66000006803F01DF80090E1680098814204D959
:10B67000E1680098081A606001E00020606000BF87
:10B680000020A060E06001202075801E206230460E
:10B6900003F0B8F900BF781C002898D128786978A1
:10B6A000884294D100BF0198411EC9B2019100287F
:10B6B00087D1044801680298814201D00120FEBD73
:10B6C0000020FCE7242200201C2200202022002051
:10B6D000182200203D22002028220020FFFF7F00AA
:10B6E000FEB507460D466A460021124801F006F9EC
:10B6F000044600BF2646002E06D000BF0022114699
:10B700003046FCF7C9FB00BF00BF00232A4669464C
:10B71000384601F005FA044600BF2646002E06D042
:10B7200000BF002211463046FCF7B6FB00BF00BF49
:10B73000FEBD0000982000201FB503F00FFC01F0B3
:10B7400021FD02F09DFD02F095FDFDF7C7F8FEF723
:10B750000DF9FEF749FBFFF7A9FB0520FCF77AFA84
:10B7600002F0A0FCFDF726FF114800906420029033
:10B770002621684601710221417100214173032194
:10B78000017368460FC802F0E5F9044600BF25467C
:10B79000002D06D000BF002211462846FCF77CFB96
:10B7A00000BF00BFFCF782FA00BF01F039F8FCE7E8
:10B7B0008FA641A5F8B505460E4614462879801C8B
:10B7C000C7B22078801CC0191F2801DD0C20F8BDED
:10B7D000781CC1B22278501C2070B154FF2122780D
:10B7E000501C2070B15422789119288803F0D4FE9F
:10B7F000217840182070A88800280EDDA86800284D
:10B8000001D10720E3E7AA8823789819A968FAF7F5
:10B8100019FE20782979401820700020D7E7000011
:10B8200030B593B00446607A272806DC60680528A6
:10B8300003D354496068884202D9072013B030BD51
:10B840000020129000BF10A8007A01090901491CCC
:10B8500010A80172007AF0218843103010A90872F4
:10B8600000BF00BF10A8407A01090901491C10A8B7
:10B870004172407AF0218843103010A9487200BF0D
:10B8800010A8807A06218843811C10A881721C218F
:10B890000BA8FAF736FE08A8007B02218843811C1A
:10B8A00008A80173007B10218843411808A8017380
:10B8B00000200E9012A8109000200C900F900A907B
:10B8C00008A8007AF02188430146103108A80172C7
:10B8D000007A01090901491C08A80172407AF02187
:10B8E00088430146103108A84172407A01090901D4
:10B8F000491C08A84172807A08218843014608A89B
:10B900008172807A10218843014608A88172807A6A
:10B910004108490008A88172807A06218843811C69
:10B9200008A881721848017808A881710221684628
:10B9300081842068069060680790217A08A80170C9
:10B94000617A4170142101A8FAF7DBFD09216846EC
:10B9500081810021C1810921018209A8019006A8E5
:10B9600005900AA80290094908890B460A3301AAE2
:10B970000BA9A2DF0546002D01D003205EE70020C1
:10B980005CE7000060EA0000C0200020502A002090
:10B99000FFB581B004460F461D46184800780028C0
:10B9A00002D1082005B0F0BD15480078A04201DBA7
:10B9B000002C01D11020F5E71C21039801801049CB
:10B9C0004A68611E4901511888783B460021039A54
:10B9D000A5DF0646002E01D00320E3E7002D0AD0A4
:10B9E00007484268601E40011018014608310722CE
:10B9F0002846FAF727FD0020D4E70000C1200020E8
:10BA0000502A0020FFB585B006460F463E48007814
:10BA1000002802D1082009B0F0BD3C480078B042AF
:10BA200001DB002E01D11020F5E76846808B1C2831
:10BA300001DD0920EFE7002534484168701E400110
:10BA40000C182088401C2080E078C007C00F01211E
:10BA5000484004900498002808D0E0780321084367
:10BA6000E0702046103003F0B5FB03E020461030B4
:10BA700003F01EFC0898002802D1049800280CD07E
:10BA800002A871DF072202A920460830FAF792FBCC
:10BA9000E07804210843E07000BF1D4800881D497C
:10BAA000884224D0A17868460180002181800397D4
:10BAB00007A80290012168468170694614480088F1
:10BAC000A6DF0546002D11D01348854204D1002081
:10BAD000C0430F49088009E0522D05D100221146CC
