:020000040001F9
:1060000020430020ED6101000762010009620100E8
:106010000000000000000000000000000000000080
:106020000000000000000000000000000B62010002
:1060300000000000000000000D6201000F6201007E
:1060400011620100116201008574010011620100FA
:106050007573010000000000F9700100F770010085
:1060600011620100116201008174010011620100DE
:106070001162010011620100116201001162010050
:10608000116201004D7301001162010011620100F3
:106090000574010011620100117401001162010018
:1060A0001162010011620100000000000000000008
:1060B00000000000000000000000000000000000E0
:1060C00000F002F800F034F80CA030C808382418AA
:1060D0002D18A246671EAB4654465D46AC4201D120
:1060E00000F026F87E460F3E0FCCB646012633421E
:1060F00000D0FB1AA246AB46334318474099000034
:10610000609900000023002400250026103A01D3E6
:1061100078C1FBD8520700D330C100D50B6070475F
:106120001FB50098019900F040FE1FBD10B510BDCD
:1061300000F00DFF1146FFF7F3FF05F0E1F800F066
:1061400025FF03B4FFF7F2FF03BC00F083FF00005C
:10615000056885F3088846680A4AEFF305839A4282
:10616000304602D1084CA6463047074C064D06463D
:10617000064FF0B4034C034D024E024FF0B40448F6
:106180000047000000000000FFFFFFFF00000021AB
:10619000F9FFFFFF401E00BF00BF00BF00BF00BFF0
:1061A00000BF00BF00BF00BF00BF00BF00BFF1D1F4
:1061B0007047000070B505460C46164602E00FCC4D
:1061C0000FC5103E102EFAD2082E02D303CC03C501
:1061D000083E042E07D301CC01C5361F03E0217809
:1061E0002970641C6D1C761EF9D270BD03210C4809
:1061F00002680A4302600B4802680A4302600A48C8
:1062000080470A480047FEE7FEE7FEE7FEE7FEE7B5
:10621000FEE7000006480749074A084B70470000A0
:10622000240500405405004049740100C16001008C
:106230002033002020430020203B0020203B002072
:1062400070B5064600F094FD056830460B30C40872
:10625000E400B44201D8002070BD68682A460028D6
:1062600018D00168A14211D30B46214608318B4258
:1062700008D3436801194B6003681B1B0B60516016
:10628000046001E041685160001D70BD0246406835
:106290000028E6D12146284600F072FD0028DCD116
:1062A00070BDFEB5054610460C46184373D0AE4689
:1062B0008C460020AD1A01469C4167D366460027F4
:1062C00001243D46B61A9D4102D313463A46212485
:1062D000654676462F04360C3E432D0CB61A9D417A
:1062E00004D3150C1B042B43120410346546764668
:1062F0002F06360A3E432D0AB61A9D4104D3150EC9
:106300001B022B4312020834654676462F073609D6
:106310003E432D09B61A9D4104D3150F1B012B4393
:106320001201241D65467646AF07B6083E43AD0808
:10633000B61A9D4104D3950F9B002B439200A41CD9
:1063400065467646EF0776083E436D08B61A9D41CE
:106350001AD392185B41641C16E000187646654615
:106360004941B71A9D410191009009D36046B11A85
:1063700098418E468446009801990025401C694149
:10638000DD0752082A435B08641EE6D57246634661
:1063900003B0F0BDFFE700200146C046C0462A46D4
:1063A0002346F5E7034610B50B439B070FD1042A9C
:1063B0000DD308C810C9121FA342F8D018BA21BAC9
:1063C000884201D9012010BD0020C04310BD002A21
:1063D00003D0D30703D0521C07E0002010BD037880
:1063E0000C78401C491C1B1B07D103780C78401CFF
:1063F000491C1B1B01D1921EF1D1184610BD000093
:1064000030B5441C03E00178401C00290DD0810701
:10641000F9D10B4BDD0104C8D11A91432940FAD0C0
:10642000001B0A0603D0C01E30BD001B30BD0A048D
:1064300001D0801E30BD0902FCD0401E30BD0000DE
:1064400001010101F8B5042A2CD3830712D00B787F
:10645000491C0370401C521E83070BD00B78491C4B
:106460000370401C521E830704D00B78491C037034
:10647000401C521E8B079B0F05D0C91ADF0020233A
:10648000DE1B08C90AE0FFF795FEF8BD1D4608C9E6
:10649000FD401C46B4402C4310C0121F042AF5D204
:1064A000F308C91A521EF0D40B78491C0370401C23
:1064B000521EEAD40B78491C0370401C012AE4D414
:1064C00009780170F8BD01E004C0091F0429FBD25E
:1064D0008B0701D50280801CC90700D0027070476D
:1064E00000290BD0C30702D00270401C491E0229AC
:1064F00004D3830702D50280801C891EE3E70022B3
:10650000EEE70022DFE7002203098B422CD3030AC7
:106510008B4211D300239C464EE003460B433CD4F0
:10652000002243088B4231D303098B421CD3030A58
:106530008B4201D394463FE0C3098B4201D3CB0188
:10654000C01A524183098B4201D38B01C01A5241B8
:1065500043098B4201D34B01C01A524103098B42BC
:1065600001D30B01C01A5241C3088B4201D3CB00A7
:10657000C01A524183088B4201D38B00C01A52418A
:1065800043088B4201D34B00C01A5241411A00D23A
:1065900001465241104670475DE0CA0F00D04942A3
:1065A000031000D34042534000229C4603098B4213
:1065B0002DD3030A8B4212D3FC22890112BA030A9B
:1065C0008B420CD3890192118B4208D3890192111D
:1065D0008B4204D389013AD0921100E08909C309A2
:1065E0008B4201D3CB01C01A524183098B4201D3A4
:1065F0008B01C01A524143098B4201D34B01C01A8F
:10660000524103098B4201D30B01C01A5241C30806
:106610008B4201D3CB00C01A524183088B4201D375
:106620008B00C01A5241D9D243088B4201D34B0090
:10663000C01A5241411A00D20146634652415B10D2
:10664000104601D34042002B00D5494270476346B3
:106650005B1000D3404201B50020C046C04602BDD9
:1066600070477047704700000246C80FC00781435B
:106670004B0030B54B405B009B0D20D01923DB064F
:10668000C91801231B05994220DB0324A407042514
:106690001346AB400BD3002B04D1EB0613409B00F9
:1066A000E34204D401246407002312195941FF2353
:1066B0001B0599420BD2C9000143500F09E0CB02E0
:1066C00004D501430803024305D0054830BDFF212E
:1066D000C905084330BD084607210905884330BD78
:1066E0000000C07FF0B5F94D0C091E092C402E406A
:1066F0002F468BB0A7437DD0B543FCD0002E7AD077
:10670000002CFCD00D465D40ED0F2543AC1BFF2552
:10671000AD0464190894C502440DC9022143500D0B
:10672000DC0204430120C00701430443D20201916B
:10673000200C110C00958C46010423468B430A91D2
:1067400061460904E24D8A430991010A7D444919D1
:106750008039097805464D4301266D18F605751BED
:106760006943C90C640B891C4C436418B5012C1B8C
:10677000250C2E04B4434C434D43210C6918890960
:106780000591009DE90701D00121C90704912C461C
:1067900001996708CD072F434C08059DE10B4D4338
:1067A0002D0C29466646754302950D4645432E46F7
:1067B000029D7D1BB44100950D465D4301942C0C58
:1067C0002F040D465543AE462D0C3D4302950394D0
:1067D0007546049C2D04641B049406D2029C039D00
:1067E000641C002675410395029401AC70CC009F97
:1067F0007D1B01E03EE162E1B4410904009507918F
:1068000001940599A4086143090C0C464443650BA7
:10681000E7040C4666467443A646640B3C43039566
:1068200002947446049DE4042C1B049406D2029C3A
:10683000039D641C002675410395029401AC70CC45
:10684000009F7D1BB44101940C465C430095650F8D
:10685000E7000C465443A646640F3C43039502945C
:106860007446049DE4002C1B049406D2029C039DF4
:10687000641C002675410395029401AC70CC009F06
:106880007D1BB441AE09AF06049DC900AD092F437D
:10689000049DA406AD060495079D3443691807912D
:1068A000059DE10B4D432D0C294666467543029527
:1068B0000D4645432E46029D7D1BB44100950D4675
:1068C0005D4301942C0C2F040D465543AE462D0C10
:1068D0003D43029503947546049C2D04641B049467
:1068E00006D2029C039D641C002675410395029408
:1068F00001AC70CC009F7D1BB44101948C050694C3
:10690000079C890A611800950791019C0599A408C4
:106910006143090C0D464543680BEF040D46644680
:1069200065436C0B3C43049FED047D1BAC4602D2D7
:106930000025641C6841009E019D371B8541084667
:10694000584301950C46460FC5005443600F284339
:106950006546E4002C1B02D20025401C6E41019DBF
:106960003F1AB5412846BD09800628438446A00940
:10697000BF064E020699A40676180743079D00201D
:1069800068410A99079019430020099B00906046CE
:10699000FF1913434041E20F64003A43A446044602
:1069A000D71A8C41A04203D90120009020463A46D4
:1069B000C70F941840416246D20F224364466400D8
:1069C0000494009CBE466400D71AA446044602976D
:1069D0008C417746002F01D1A04204D96046401C6B
:1069E0008446029A2046C40FA64694184041049A51
:1069F0000546D20F224364466400D31A8D41714686
:106A0000002901D1A84202D928461A46641C104325
:106A10000122002800D0164361020020079B89193B
:106A200004465C410223002C02DB491813466441F2
:106A3000089DCE0A2D145D194B056705E10A2C054A
:106A40000D1908993E43C9076940002B08D09340AF
:106A500006D30022761C5141002B01D17608760026
:106A60001C4A002D43DB154241D0AA433FD030469B
:106A70000BB0F0BD06180D464D41174C7642AC41A7
:106A80001AD395181C465C41134A6D42A24113D398
:106A9000012252054C00D4420AD15C00D4420BD0F2
:106AA0004B4002D592021143E2E749004908DFE773
:106AB0005940C90FC90718E000200849D8E7054820
:106AC00001420DD10342F7D0F2E700000000FF07BA
:106AD0002C9200000000F07F0000E0FF0000F87F33
:106AE000114859400143C01241400020C0E7012332
:106AF000089A9B069A4205DC032252078918C90F9F
:106B0000C907B5E7052252078918074A1143D2126F
:106B10005140ADE770B515461C4602460B46284667
:106B20002146FFF7DFFD70BDFFFFFF7F0121C90593
:106B30000123411842001B06D3185B0E0AD0C11076
:106B40000722D206891840075242D14201D552008D
:106B500089187047090208D50146002A03D0C10FE1
:106B6000C9070020704710467047420202D000203B
:106B700002497047072109050143F4E70000F87F47
:106B8000F0B5FF252D04C609C209FF2704462E4093
:106B90000137CB093E4348402A402B400746002A94
:106BA0006BD0002B69D0AA4267D0AB4265D00028D9
:106BB00000DA32460125ED0529432C430902200263
:106BC000090AD21A4B0C7F24E31A434C000A7C4476
:106BD000E35C7D242404121914145B00A21888427B
:106BE00001D3521C00E0400049420C465C43241192
:106BF0005C43DB016415E318040A5C43C502200D05
:106C00000C4644436419250A5D432303EC0C0D46EE
:106C1000654300030019EB184C42A34201D35B18F3
:106C2000401CD4052018002B07D05B00C91804D3E2
:106C3000401C002901D1400840003F2189048A42BC
:106C400009D3002A08DC1106090F04D003214907E3
:106C50004018C00FC007F0BD01224100120689187C
:106C60007F2252069142F6D205214907C84201D53A
:106C70009010F0BDFF20C005F0BD002F00DA3246B5
:106C80001648AA4207D2AB4205D21902090E17D004
:106C9000F80FC007F0BDFF2563002D06AB42F9D801
:106CA0004900A942F6D8AB4201D1A942F2D0A9428B
:106CB00001D1002101E061004908D0050843F0BD81
:106CC0001102090EFBD0FF200243D005F0BD0A4699
:106CD0000146104654E700002A8E00000000C07FE5
:106CE0000102C21504D00123DB071943002A0ADB85
:106CF0009E239A1A02D40846D0407047FF224100D2
:106D00001206914201D900207047C017C043704756
:106D10001F22030C02D10F2200041CD0030E01D14C
:106D20000002083A030F01D10001121F830F01D1A5
:106D30008000921E002801DB4000521ED20551182F
:106D4000021251181922904004D3491C002801D185
:106D50004908490008467047C10FC90700D04042A2
:106D6000012292071143D3E701218907D0E70000F0
:106D700000487047C832002070477047704770471E
:106D800038B504460A4600206946C046C046002879
:106D900005D002462046009900F098F8012038BD41
:106DA00010B5012000F0ACF810BDF8B5C046C046E3
:106DB000054600200C461020C0460646A819A042F1
:106DC0000DD9324669460020C046C046070001D1B1
:106DD00000F096F80098A04200D00546C419FFF7CD
:106DE000C7FFF61D07460560F008C0004619284693
:106DF00000F008F8B44204D031463868A21B00F015
:106E000065F8F8BD00210160416080607047102086
:106E1000704770B50446051FFFF7AAFF0068002CF5
:106E20001AD0446801E020466468002C01D0AC42CE
:106E3000F9D301680A18AA4204D12A6805468918BC
:106E4000016000E0456028684119A14205D16168F0
:106E5000696021684018286070BD6C6070BD0000DA
:106E600010B5FF231B0644009C421DD84C009C42D9
:106E70001AD80346124A0B4307D4401A02D3EFF341
:106E8000008010BDEFF3008010BD081A06D2EFF3AA
:106E9000008001219043C907084302E0EFF300801E
:106EA000904380F3008810BD0D231B041A4204D0C8
:106EB0001146002000F02AF810BD00F03FF810BD88
:106EC0000000009000487047C032002010B5034613
:106ED000406801E003464068002801D08842F9D3A9
:106EE0001868C3188B4206D0CB1CD808C000001D00
:106EF000411A521A0146081D0A60FFF78AFF10BDA9
:106F000010B500F04FF800F047F810BDCA0211D5D7
:106F10004A03520F002A04D0C803C043012188400D
:106F20007047054AEFF3008108010009104380F320
:106F300000887047002070470000003010B50248FC
:106F400000F058F810BD00000000C07F7047754683
:106F5000FFF7B8FFAE46050069465346C008C000BB
:106F6000854618B020B5FFF755F960BC00274908E1
:106F7000B6460026C0C5C0C5C0C5C0C5C0C5C0C5D1
:106F8000C0C5C0C5403D49008D4670470446C04657
:106F9000C0462046FFF7D5F810B5002801D000F014
:106FA00059F810BD10B5012805D0002103A000F04C
:106FB00057F8012010BD09A1F8E7000053494752D6
:106FC000544D454D3A204F7574206F6620686561B9
:106FD00070206D656D6F7279000000003A20486581
:106FE0006170206D656D6F727920636F727275705C
:106FF0007465640010B50C461107090F092904D007
:107000000A290AD008290CD104E011460820FFF70C
:107010007DFF06E0510606D501E0510601D50120AD
:10702000C007214610BDD10607D501010909CC08CA
:107030004907000E0006044309E0410F20024907FA
:10704000000A0143200E00061D22D14101430846DB
:10705000E7E7000001491820ABBEFEE7260002006A
:1070600070B505460C460A2000E06D1C00F012F8D1
:10707000002D06D028780028F7D102E0641C00F02B
:1070800009F8002C02D020780028F7D10A2000F05F
:1070900001F870BD08B5694608700320ABBE08BD95
:1070A00070B58C180578401C6B075B0F01D1037815
:1070B000401C2A1106D10278401C03E00678401CCF
:1070C0000E70491C5B1EF9D12B0705D40023521EFC
:1070D0000DD40B70491CFAE70378401CCB1A921CA4
:1070E00003E01D780D70491C5B1C521EF9D5A142AE
:1070F000D8D3002070BD7047F0B585B0274805692A
:1071000000202749C86300263FE01420704325492A
:10711000096844180120B040234909680840002844
:1071200031D0E068C04368402168084007463946CE
:10713000204606F0B9FD194800696840039003989D
:1071400000280ED003980543E068C04368402168DA
:10715000084000902046009906F0A6FD00980743DD
:1071600000BFA068A84338400190606828403840BC
:107170000290019902980843002803D022690199DE
:107180000298904700BF701CC6B20848007886423B
:10719000BBDB00F0ADF805B0F0BD0000000500500D
:1071A00040610040C8210020C0210020C5210020EE
:1071B000C206D20E01219140014A116070470000C1
:1071C00080E200E0C206D20E01219140014A116026
:1071D0007047000000E100E0C206D20E012191409C
:1071E000014A11607047000000E100E0C206D20EC3
:1071F00001219140014A11607047000000E200E067
:1072000010B5002819DA1A4A03071B0F083B9B0820
:107210009B00D2588307DC0EFF23A3409A438B07C1
:107220001B0E8407E40EA3401A43114B0407240FDE
:10723000083CA408A4001A5118E00E4A03231B02BC
:10724000D21883089B00D2588307DC0EFF23A3408B
:107250009A438B071B0E8407E40EA3401A43054B89
:10726000032424021B198408A4001A5110BD000035
:107270001CED00E000E100E010B5002819DA1A4A20
:1072800003071B0F083B9B089B00D2588307DC0EAB
:10729000FF23A3409A438B071B0E8407E40EA340F1
:1072A0001A43114B0407240F083CA408A4001A51E8
:1072B00018E00E4A03231B02D21883089B00D25801
:1072C0008307DC0EFF23A3409A438B071B0E840722
:1072D000E40EA3401A43054B032424021B1984081F
:1072E000A4001A5110BD00001CED00E000E100E018
:1072F00010B5002004F044FD002004F039FD0F48D3
:10730000C06B002818D000200C49C8630C480069E5
:1073100001210906084000280ED10A4800780028FB
:107320000AD1094806F05FFD002803D00120054975
:10733000087001E003F042F910BD00004061004018
:10734000000500509D200020BC2C002010B500201E
:10735000074908600021064841608160C160002043
:10736000034940390860486007F07CFC10BD00000C
:107370004011014010B51B48806A00281FD0002032
:107380001849886218480078012816D11748006803
:10739000174948601748006815494039486316483E
:1073A0000068886315480068114988600120144905
:1073B0008862022006F0C6FD00E000BF00BF094859
:1073C000406800280CD00020064948600648007834
:1073D000022803D1032006F0B5FD00E000BF00BF86
:1073E00010BD00000041004038210020282100206D
:1073F000404500402C210020342100203021002075
:107400000040004010B506F0E5F807F0A1F910BD06
:1074100070B50C480068002810D00A480068804702
:10742000044600BF2546002D06D000BF00221146AD
:10743000284600F0F7FA00BF00BF01E003F064FD4A
:1074400070BD0000F821002010B503F021FE0028D7
:1074500005D0074807494860C8130749886103F009
:10746000FBFD002802D001200449886010BD000007
:10747000DFFF07C000050040006C00400006004030
:10748000704700001CB524488068002824D00020E4
:107490002149886021488069C1B2214800F0FEFA84
:1074A0000446002C08D00120694608700194684603
:1074B0001C49096888470EE01948C068184989685E
:1074C000401A012807D1002069460870684615490E
:1074D0000968884700BF00BF0F48C069002805D071
:1074E00000200D49C861032004F098FE0A48406A54
:1074F00000280FD0002008494862084880380468F6
:1075000004600220694608700194684605490968CC
:10751000884700BF1CBD000000210040002500403E
:10752000C4310020AC21002030B47446641E25789C
:10753000641CAB4204D3635D5B00E31830BC1847A6
:107540001D46F8E710B50648C06805498968401A25
:1075500002D000F007F801E000F02EF810BD0000A6
:10756000D431002008B50F480078022802D001204D
:107570000D49886069460D4800F07EFA002802D067
:1075800000F01AF808BD8020094988606846007834
:107590000849C861022003490870802004494860F6
:1075A00000BFEFE7B021002000200040D4310020D0
:1075B00000230040002500401CB501200549C8609B
:1075C0000549087003206946087068460349096840
:1075D00088471CBD00200040B0210020AC210020C5
:1075E00000200549087001200449C8604860002057
:1075F0000349086070470000B021002000200040CF
:107600000025004070B501201F49486018201F491F
:10761000486000201E49086001201C4908600720BE
:107620002ADF044600BF2546002D06D000BF0022F9
:107630001146284600F0F6F900BF00BF03210720DD
:107640002BDF044600BF2546002D06D000BF0022D8
:107650001146284600F0E6F900BF00BF072026DFEC
:10766000044600BF2546002D06D000BF002211466B
:10767000284600F0D7F900BF00BF00200449086089
:1076800001200449086070BD00730040007500408F
:107690000071004000700040F8B504460F461646E1
:1076A0000025002030702078002809D03246394665
:1076B000204604F0FFFA0546002D01D02846F8BD0B
:1076C000A078002808D03146384600F03BFB05463C
:1076D000002D01D02846F2E7A08800280ADD3346B5
:1076E0003A460121201D07F038FE0546002D01D045
:1076F0002846E4E7E06800280BD00020E16808563F
:107700003246394607F002FE0546002D01D02846D4
:10771000D5E7208A00280CDD3B46062202212046C0
:107720001030009607F0C3FE0546002D01D0284614
:10773000C5E7208B00280CDD3B46072203212046AD
:107740001830009607F0B3FE0546002D01D02846FC
:10775000B5E7208C00280CDD3B461522142120467D
:107760002030009607F0A3FE0546002D01D02846E4
:10777000A5E7A06A002809D032463946A06A01F080
:1077800027FC0546002D01D0284698E7E06A00282E
:1077900009D032463946E06A03F0F0FD0546002D77
:1077A00001D028468BE73420005D002809DD3246F1
:1077B0003946204606F037FB0546002D01D0284605
:1077C0007DE728467BE701468888002808D088683E
:1077D000002805D08868007804221040002801D1D4
:1077E000072070470020FCE731B592B04C21684675
:1077F00081801249039117210181382104A8FEF7E5
:1078000080FE0021684601740121818212A906913F
:1078100001A80F90002104A800F0AAFC044600BFB4
:107820002546002D06D000BF00221146284600F054
:10783000F9F800BF00BF13B030BD000042200020A7
:1078400030B59BB011A804F027FE044600BF2546C2
:10785000002D06D000BF00221146284600F0E2F8B5
:1078600000BF00BF1198002804D001205A490870B9
:107870001BB030BD142116A8FEF743FE002110A84E
:1078800001760020179018A8017000201990534825
:107890000078002806D0012808D002284DD00328FF
:1078A0007ED166E001204D49087000BF082110A874
:1078B0000173017509A8129001A8149012A94848F3
:1078C00002F00EFE044600BF2546002D06D000BF84
:1078D00000221146284600F0A5F800BF00BF10A8FE
:1078E000007B002803D110A8007D00280BD00220C7
:1078F00018A9087012A819900420FFF775FF02203C
:107900003649087002E00320344908702921090132
:1079100010A8018564214185032000F00FFF044673
:1079200000BF2546002D06D000BF00221146284684
:1079300000F078F800BF00BF3BE00520FFF754FFE0
:107940002921090110A801856421418502202349CC
:10795000087000F0F3FE044600BF2546002D06D057
:1079600000BF00221146284600F05CF800BF00BFAF
:107970001FE00520FFF738FF1921C90110A8018574
:10798000B4214185032015490870042000F0D6FE7B
:10799000044600BF2546002D08D000BF002200E0AD
:1079A00006E01146284600F03DF800BF00BF00E0A9
:1079B00000BF00BF16A873DF044600BF2546002D98
:1079C00006D000BF00221146284600F02BF800BF69
:1079D00000BF00BF4CE70000412000203A200020FB
:1079E0004020002070B574DF044600BF2546002DFE
:1079F00006D000BF00221146284600F013F800BF51
:107A000000BF002000F09AFE044600BF2546002D6E
:107A100006D000BF00221146284600F003F800BF40
:107A200000BF70BD00BF00BF00BF00BF00BFBFF3FD
:107A30004F8F00BF00BF00BF06480749C86000BFA6
:107A400000BF00BFBFF34F8F00BF00BF00BF00E00B
:107A500000BFFDE70400FA0500ED00E0F8B50446BC
:107A60000D46164603480768324629462046B84761
:107A7000F8BD0000B83100200246D0689368C01AF3
:107A80000AD09068938818401368185C0870906852
:107A9000401C9060002070470520FCE70246D0683B
:107AA0009368C01A9388984209D8D0689388184080
:107AB00013681954D068401CD0600020704704201F
:107AC000FCE70000F8B50446174800781421484345
:107AD0001549091D0E5C081F0078142148431249FE
:107AE000091D40188068000110490D580E480078A3
:107AF000142148430C49091D40184088091F009073
:107B0000097814225143084A121D89180B69111F64
:107B1000097814225143044A121D89180846083076
:107B200022463146A847F8BDE4310020B03200209B
:107B300070B503460C4619480068002801D108209A
:107B400070BD002A01D10720FAE7002B01D10720E0
:107B5000F6E700211CE024204843104D2D68285CE6
:107B6000002814D10125242048430C4E3668355492
:107B700024204843094D2D6840194470242048436F
:107B8000064D2D684019826119600020D8E7491C14
:107B9000034800788142DEDB0420D1E7D0210020B9
:107BA000CC210020FFB581B00E4617461C4620466A
:107BB0008107890F002901D1012100E0002100295E
:107BC00002D1072005B0F0BD002C01D10720F9E754
:107BD00005F0FAFF26490A980860264806702648EC
:107BE000046000250CE0002124206843224A12682A
:107BF000115424206843204A1268801801756D1CB6
:107C0000B542F0DB24207043041903201B4908709F
:107C10001B480460183400250CE0E900184A12687B
:107C200088180021017041708770446018217943E1
:107C30000C196D1C032DF0DB0020C04311490860B6
:107C4000002011490870114908701420FFF7B0FA9C
:107C500003211420FFF710FB1420FFF7BDFA019851
:107C600005F088FF05F080FF094908600020A9E7BA
:107C7000F0210020CC210020D0210020D4210020A0
:107C8000D8210020DC210020EC210020ED21002063
:107C9000E0210020FEB504460D4616461648006851
:107CA000002801D10820FEBD14480078844201D28A
:107CB000052D01D20720F6E7242060430E4909680C
:107CC000085C012801D00820EDE7242060430A4920
:107CD000096840184078012801D1284600E00020BA
:107CE000074607F0BBFB3B462A462146009601901B
:107CF00006F06EFFD7E70000D0210020CC21002045
:107D000070B504460D480068002801D1082070BDF8
:107D10000B480078844201D30720F8E72420604311
:107D200006490968085C012801D00820EFE707F040
:107D300095FB0546214606F075FFE8E7D0210020B7
:107D4000CC210020F8B505460C462078001D1F28E0
:107D500001DD0C20F8BD684679DF0646002E01D013
:107D60003046F7E703212278501C2070A9541921CE
:107D70002278501C2070A954207841196846008848
:107D800007F0E2FA2178401820700020E2E710B5F1
:107D9000044620780300FFF7C7FB050B04080E110B
:107DA00015006168A06888470DE0606880470AE0B8
:107DB0006068804707E06068804704E0201D03F0AA
:107DC000FBFD00BF00BF00BF10BD000070B5044642
:107DD000BC480078C01F0300FFF7A6FB0604245F21
:107DE000A6E0FDFCB84BB94D2D785A5DB84BB74DA8
:107DF0002D78595DB74BB54D2D78585D04F02AFFAD
:107E0000B2490978481CC117490F0918C910C9009F
:107E1000411AAE4A11700022AF49B0480068FFF71E
:107E200039FF4CE1AE48007801280ED1FF221146FF
:107E3000104604F00FFF0020A94908700022A9494C
:107E4000A6480068FFF726FF70BDA5480078002807
:107E500022D19D4B9D4D2D785A5D9D4B9B4D2D788C
:107E6000595D9C4B994D2D78585D04F0F3FE01202F
:107E70009B49087095490978481CC117490F091892
:107E8000C910C900411A914A117000220121C90389
:107E900092480068FFF7FEFE11E193480078012840
:107EA0001AD18C4889490978405C90490870884803
:107EB00086490978405C8D49487083488349097830
:107EC000405C8A4988708A49884805F0D3FC7F481D
:107ED0000078401C7D49087085498868FEF700FFDE
:107EE000814908700978491EC9B27F4A1170084655
:107EF000FEF73AFF7E4988607C497D4802F0CAFE61
:107F00007A4B9B78FF25EA1A784B5B78E91A774B16
:107F10001B78E81A04F09EFE0022012189036F48B5
:107F20000068FFF7B7FECAE06D48007801280ED15F
:107F3000FF221146104604F08DFE002068490870AB
:107F40000022684965480068FFF7A4FE7CE76448A2
:107F50000078002821D15C4B5C4D2D785A5D5C4B3C
:107F60005A4D2D78595D5B4B584D2D78585D04F076
:107F700071FE01205A49087054490978481CC117FC
:107F8000490F0918C910C900411A504A117000223E
:107F9000514952480068FFF77DFE90E05248007852
:107FA000052803DD5048007850282EDB4948474912
:107FB0000978405C4D490870454844490978405C5F
:107FC0004A494870404841490978405C47498870AF
:107FD000474901E072E050E0444805F04BFC3B4863
:107FE0000078401C394908703F480078052806DCB5
:107FF00001204049087040483D49886005E0002064
:108000003C4908703D483A49886039498868FEF71C
:1080100067FE354908703748007800280AD109788A
:10802000491EC9B2304A11700846FEF79DFE30491C
:1080300088600AE02C490978491CC9B22A4A1170A3
:108040000846FEF791FE2A4988602849284802F030
:1080500021FE264B9B78FF25EA1A244B5B78E91A10
:10806000224B1B78E81A04F0F5FD00220121890358
:108070001A480068FFF70EFE21E0134B134D2D78D0
:108080005A5D134B114D2D78595D124B0F4D2D78C4
:10809000585D04F0DFFD0D490978481CC117490FF0
:1080A0000918C910C900411A084A1170002201219B
:1080B00089030A480068FFF7EDFD00E000BF00BF3C
:1080C00000BFC1E61420002026200020152000203B
:1080D0001E200020162000209A59000010200020A9
:1080E0002E2000209A1900002F200020312000208F
:1080F00040260020302000200000A0400000A042C8
:1081000010B50446FFF77EFA10BDF7B5044600220D
:108110000023002000BF27E0A55C2807000F0928E6
:1081200008DC002806DB05463035EEB21D465B1C38
:108130004E5505E005465735EEB21D465B1C4E55C3
:10814000A55C2811092808DC002806DB0546303527
:10815000EEB21D465B1C4E5505E005465735EEB2A6
:108160001D465B1C4E55521C029DAA42D4DBFEBD2F
:10817000F3B593B00D460021129111911398002888
:1081800014D01398FFF71FFB0446002C02D02046A2
:1081900015B0F0BD12AA09A91398FFF77DFA04469D
:1081A000002C01D02046F3E709AE00E00026002DA8
:1081B00013D0284605F05EFF0446002C01D020466F
:1081C000E6E711AA01A92846FFF766FA0446002C43
:1081D00001D02046DCE701AF00E0002710A80379BA
:1081E0003A46017A304672DFD2E7000070B50546A4
:1081F0001C2229461448FDF7DDFF002013490870B2
:10820000286800280BD0082211482968FEF71AF9BF
:108210000F487ADF0446002C08D0204670BD0C4879
:108220007BDF0446002C01D02046F7E70020C04346
:1082300008490880002008490870084A00210848B9
:10824000FFF776FCEAE700009C3000208C2100203C
:10825000742100207E2100207C210020C1F3010038
:108260008821002010B504462088102806D0112847
:1082700008D012280ED0502810D107E0204603F075
:1082800057FE0CE0204603F05BFF08E0204604F0B8
:1082900001F804E0204603F03BFE00E000BF00BF11
:1082A00010BD000010B502480068FFF729FD10BDA1
:1082B0008821002070B586B004460E46002C04D0FC
:1082C000002E02D07068002802D10E2006B070BDCA
:1082D0000020C0432080204B0FCB01AD0FC51F48AD
:1082E00069468882163101A863DF0546002D01D05A
:1082F0002846EBE7221D05A90120A0DF0546002D39
:1083000001D02846E2E76846807DA071204601F052
:10831000DBF90546002D01D02846D7E7204601F0BD
:1083200063F90546002D01D02846CFE731462046A7
:1083300001F034FA0546002D01D02846C6E77068E2
:10834000A062B068002801D0B068E0620120044952
:1083500008700020BAE7000008F90100301500009D
:108360004021002070B505460C46002D01D0002CA0
:1083700000D170BDA86A00281FD02088102806D020
:1083800011280ED0502807D0512814D10EE02146D4
:10839000284603F0C9FD0FE02146284603F064FF9C
:1083A0000AE02146284603F0C7FE05E0214628469C
:1083B00003F0E8FE00E000BF00BF00BFD9E7000007
:1083C00070B586B004460D461646002C02D10E202C
:1083D00006B070BD20881A49884203D01948007839
:1083E000002801D10820F3E70021019110216846FF
:1083F0008288501C83B21448019381546846818856
:10840000481C82B210480192455468468188481C35
:1084100082B20D48019246540020029003900490CD
:108420000590218A684601810121817200218181A4
:1084300001A8049004480590208802A9A6DFC7E798
:10844000FFFF0000402100204121002010B504461C
:10845000204601F0A7FB2046FFF704FF204603F06B
:10846000E7FC204605F0E6F821460248FFF77AFFD0
:1084700010BD000068260020F8B500BF0023502280
:1084800022490E2005F07EFD054600BF2E46002E37
:1084900006D000BF002211463046FFF7C3FA00BFE6
:1084A00000BF00BF002000900090684660DF0446D7
:1084B00000BF2546002D06D000BF002211462846E9
:1084C000FFF7B0FA00BF00BF114805F04FFD0446AA
:1084D00000BF2546002D06D000BF002211462846C9
:1084E000FFF7A0FA00BF00BF0A4805F07FFD044671
:1084F00000BF2546002D06D000BF002211462846A9
:10850000FFF790FA00BF00BFF8BD0000B8290020B7
:108510004D84010039E401007CB50446A1786A4627
:108520000D4803F0CFFF0546002D13D161781822C6
:1085300051430A4A88181C231822694604F0D4F8CB
:108540000748807A800007490A58214668469047C4
:10855000054600BF7CBD0000902100207C3100203A
:10856000B831002058F9010070B5214800688047F3
:10857000B1203CDF044600BF2546002D06D000BFD9
:10858000002211462846FFF74DFA00BF00BF11DF59
:10859000044600BF2546002D06D000BF002211462C
:1085A0002846FFF73FFA00BF00BF1249486913DFB2
:1085B000044600BF2546002D06D000BF002211460C
:1085C0002846FFF72FFA00BF00BF0B4800780028AD
:1085D00001D000F0CDFF162001218140074A116033
:1085E00000BF02F0EFFC0349486900F009F870BDD4
:1085F00048210020001000105021002080E200E0FF
:1086000010B504462046FDF7A3FD10BDF8B505469C
:108610000E4600270024012E16D10C4800680028C1
:1086200012D000E0641C042C04D2A00008490858B1
:10863000A842F7D1042C01D20648075D002F03D0D1
:108640003846024909688847F8BD000068210020C3
:1086500018F901006C21002030B50246042A10D21E
:10866000094C2469E34300209400084D2D5D01244A
:10867000AC401C40002C01D0012400E000240C7010
:1086800000E0072030BD00000005005018F901008F
:1086900030B5034600224AE09000274C21580120C3
:1086A00090401840002822D005200007072424020B
:1086B00000198C00005903242404A0430524240736
:1086C00007252D0264198D0060510520000707243D
:1086D000240200198C00005903242404204305249B
:1086E000240707252D0264198D0060511EE0052026
:1086F00000070724240200198C00005903242404D5
:10870000A0430524240707252D0264198D0060511C
:10871000052000070724240200198C0000590524B5
:10872000240707252D0264198D006051521C042A6C
:10873000B2D3002030BD000018F9010070B5044626
:10874000002506480078C007C00F002803D0204647
:1087500000F006F80546284670BD00005C210020A8
:10876000F8B50446002500262300FEF7DDFE180DAF
:1087700018195C9FF7F5F4F3F2F1F0EFEEEDECEB86
:10878000EAE9E8E7E6E5E4E300BF0B204005FB4942
:1087900088600020C86000BFF94804704FE200BF45
:1087A00000BF05208005F54988600020C86000BF33
:1087B000084640680F214905484001214905084005
:1087C00000280FD000BF0846EC4988600020C86030
:1087D00000BF022C02D1E120C00001E07D20400159
:1087E00006460EE000BF01204005E449C8600020B5
:1087F000886000BF022C01D1C82001E0FF20913029
:108800000646DF48047064213046FDF77CFEDD49F2
:1088100009684843074600223946DB480068FFF7ED
:1088200039FA05460BE200BF05208005D349886070
:108830000020C86000BF084640680F214905484035
:1088400001214905084000280FD000BF0846CB4948
:1088500088600020C86000BF032C02D119204001AD
:1088600001E07D20400106460EE000BF01204005EA
:10887000C249C8600020886000BF032C01D1C82015
:1088800001E0FF2091300646BD4804706421304667
:10889000FDF739FEBB4909684843074600223946BF
:1088A000B9480068FFF7F6F90546C8E100BF0520A2
:1088B0008005B24988600020C86000BF0846406853
:1088C0000F214905484001214905084000280FD0E3
:1088D00000BF0846A94988600020C86000BF042C7A
:1088E00002D17D20400101E07D20400106460FE0DD
:1088F00000BF01204005A149C8600020886000BF7A
:10890000042C02D1FF20913001E0FF209130064677
:108910009B48047064213046FDF7F5FD99490968CC
:10892000484307460022394697480068FFF7B2F9E6
:10893000054684E182E176E174E161E14EE13BE1EB
:108940002FE1F4E0F2E0F0E0EEE0ECE0E2E0C9E09C
:10895000B2E099E082E06FE042E0FFE700BF05206F
:108960008005864988600020C86000BF08464068CE
:108970000F214905484001214905084000280ED033
:1089800000BF08467D4988600020C86000BF052CF4
:1089900001D1C82001E07D20400106460EE000BF65
:1089A000012040057549C8600020886000BF052C83
:1089B00001D1C82001E0FF209130064670480470C4
:1089C00064213046FDF79FFD6E490968484307461C
:1089D000002239466C480068FFF75CF905462EE135
:1089E00000BF05208005654988600020C86000BF81
:1089F000084640680F2149054840012149050840C3
:108A0000002806D000BF08465C4988600020C86086
:108A100007E000BF012040055849C8600020886079
:108A200000BF574804705748002201685648006844
:108A3000FFF730F9054602E100BF052080054F49E8
:108A400088600020C86000BF00BF01204005C860EA
:108A50000020886000BF4A480470F0E000BF47492A
:108A60004868012189058143444A916001218905B3
:108A70000140D16000BF43480022016842480068BD
:108A8000FFF708F90546DAE000BF3C4948680121D4
:108A900089058143394A9160012189050140D160EE
:108AA00000BF3848006882008118002236480068FC
:108AB000FFF7F0F80546C2E000BF304948680121E1
:108AC000890581432D4A9160012189050140D160CA
:108AD00000BF2C48002201682B480068FFF7DAF835
:108AE0000546ACE000BF254948680121890581435E
:108AF000224A9160012189050140D16000BF2148CF
:108B000000688200811800221F480068FFF7C2F841
:108B1000054694E000BF0F2040051849C8600020BA
:108B2000886000BF8BE000BF00BF00BF00BF1748D8
:108B30000068FFF7E5F805461120061B002E27D038
:108B4000002D25D1012E10D9C8217143084664217A
:108B5000FDF7D9FC0B49096848430746002239460E
:108B60000A480068FFF796F8054600BF0120C005D7
:108B70000249C8600020886012E000000005005033
:108B80005421002058210020602100206421002071
:108B900000BF0120C0052B4988600020C86000BFCD
:108BA0004DE000BF0F204005264988600020C860C6
:108BB00000BF2548047042E000BF0720800521491E
:108BC00088600020C86000BF00BF01204005C86069
:108BD0000020886000BF1C48047030E000BF0D20FA
:108BE0004005184988600020C86000BF00BF012010
:108BF0008005C8600020886000BF134804701EE034
:108C000000BF0320C0050F4988600020C86000BF76
:108C100000BF03204005C8600020886000BF0A48EC
:108C200004700CE000BF00BF0F2040050549C8607C
:108C30000020886000BF0448047000E000BF00BF4F
:108C40002846F8BD0005005054210020F0B585B03D
:108C50000F2758480078142148435649091D4418E5
:108C6000E5682078022804D0042823D005286FD195
:108C70006FE0206903905048008886026088801B5E
:108C80000490039880190390A08880194519012148
:108C900089020498884206D20498820828460399DB
:108CA00021DF074605E0FF2201322846039921DF34
:108CB000074676E0A068000140494018008904900A
:108CC000A0680001401840890390A0680001401886
:108CD000406802900298A84205D10399049848433D
:108CE0006188884202D0A06802280DD101200007C7
:108CF000006981B22846FDF706FC2F49098846180D
:108D0000304620DF074622E001200007006981B2DB
:108D10002846FDF7F8FB064601200007006980B2EF
:108D20007043281A8008019001200007006980B272
:108D3000711C484361884919401A800800903146E7
:108D40002046009B019A05F051FA074600BF28E033
:108D500026E001200007006981B22846FDF7D3FB19
:108D60000646A088411901200007006980B27043BF
:108D7000081A80080490A0884019618842180120D0
:108D80000007006980B2711C4843801A8008039074
:108D900031462046039B049A05F028FA074600E076
:108DA00000BF00BF002F02D1012002498870384661
:108DB00005B0F0BDE4310020BC210020B03200201D
:108DC00010B5002406484078002807DDFFF73EFF75
:108DD0000446002C02D0112C00D10024204610BDE6
:108DE000E43100200023142141430C4A5354142140
:108DF000414389184B8001231421414389188B601A
:108E00000023142141438918CB6014214143891860
:108E10000B611421414389188B807047E831002091
:108E2000FFB581B0064617460024204840780A283E
:108E300037D01E4800781D4949784018C4B20A2C22
:108E400002DB20460A38C4B2142060431749091DCA
:108E50000E541420604340180761142060434118E9
:108E6000029805C8CA608860142060430F4A121D2A
:108E70008018049941801420604380180A998180E9
:108E80000025101F8078002805D1FFF7DFFE05467A
:108E9000112D00D1002505484078401C0349487039
:108EA00000E00425284605B0F0BD0000E4310020B4
:108EB00010B5002008490880084908700849087062
:108EC00048708870002403E02046FFF78BFF641C85
:108ED0000A2CF9D310BD0000BC210020BF210020C6
:108EE000E4310020FEB51E480068401C002834D044
:108EF0001B480068242148431A49096840184568FE
:108F000004F032FE0190184804682146019805F0EB
:108F10009FFAC61C15480078002801D104F036FEDF
:108F2000AE4201D2284600E0304604192402240A49
:108F300020460F49086000BF04F016FE009001991A
:108F4000009805F085FAC71C2046019905F080FAC3
:108F5000874201D905F0D4FE01E004F035FEFEBDE4
:108F6000DC210020D0210020E0210020F42100207D
:108F70004015014001460888062808DB08881922A8
:108F8000D201904205DD0888104A904201D00720A6
:108F900070474888062808DB48881922D201904289
:108FA00005DD4888094A904201D00720F0E708888B
:108FB000064A904208D04888904205D008884A88DE
:108FC000904201DD0720E3E70020E1E7FFFF00001A
:108FD000F8B506460D4614462078801D1F2801D995
:108FE0000C20F8BD3046FFF7C5FF0746002F01D023
:108FF0003846F6E705212278501C2070A95412212A
:109000002278501C2070A95422785119308806F01B
:109010009BF921784018207022785119708806F049
:1090200093F92178401820700020DAE710B5044643
:1090300000BF002211462046FEF7F4FC00BF10BD21
:1090400030B587B01C216846FDF75BFA0020009020
:109050000520C00301900F20000402900321684600
:1090600001730021C18101210174002005900A488B
:1090700006906846FFF7BAF8044600BF2546002D63
:1090800006D000BF002211462846FEF7CBFC00BFE9
:1090900000BF07B030BD00002D90010038B51F485B
:1090A00001F0C8FF002829D11D48007800280AD007
:1090B0001C484069002820D00020009019484169D0
:1090C0006846884719E018480078002802D11548FA
:1090D000456801E013488568002229461348006866
:1090E000FEF7D8FD0446002C07D00E488069002802
:1090F00003D00C488169204688470AE00948406946
:10910000002806D00120009006484169684688473B
:1091100000BF00200249087038BD000080210020F7
:109120008C2100209C3000207C2100208821002000
:1091300070B503460C460820002115E00C254D4370
:109140000B4EAD19AD7A2540002D0CD0094DAB4228
:1091500005D00C254D43AD192D899D4202D11160DA
:10916000002003E00520491C0029E7D000BF70BDA6
:10917000AC310020FFFF000010B5044601210C2097
:1091800060430A4A80188172891E0C20604380184F
:109190000181FF210C2060438018C1720C216143C2
:1091A00088180721FDF7ABF910BD0000AC31002095
:1091B00010B514484068C105C90D002920D00A46E1
:1091C000103A50B200280DDA0E4B1C330407240F5E
:1091D000083CA408A4001B598407E40EE3401B06C6
:1091E0009B0F0BE0084B032424021B198408A400E6
:1091F0001B598407E40EE3401B069B0FD8B210BD39
:109200000420FCE700ED00E000E100E0FEB50446CC
:109210000E46A1786A46284803F054F90546002D09
:1092200049D160780C21484324494018807A202194
:109230000840202801D0022E01D1214F04E0012E48
:1092400001D1204F00E0204FA0781C2250431F4A3C
:10925000811800231C226846B8470546002D1AD104
:10926000022E18D060780C21484314494018807AA7
:109270002021884361780C225143104A8918887252
:10928000607818225043124A81181C23182268461D
:10929000B847054600BF022E0DD020780C21484368
:1092A0000C494018807A80000B490A5821466846CC
:1092B0009047054600BFFEBD90210020AC31002044
:1092C00081CB010055C90100E5E10100B830002063
:1092D0007C310020B831002048F90100F8B505467E
:1092E0000E461B4F00242EE01C20604319494018F5
:1092F000807EFF2826D13078022814D01C206043BD
:109300004018807E022188431C216143114A89183C
:1093100088761C216143891808461030072231469F
:10932000FDF790F80BE01C2060430A494018807E4E
:10933000410849001C206043064A801881762C7041
:10934000002702E0641C072CCED300BF3846F8BDCE
:1093500043800000B8300020F8B505460E46174699
:109360000520009000241BE0002D06D11C20604346
:109370000E494018008BB8420DD0002D0FD01C2193
:1093800061430A4A89180846103007222946FDF72A
:1093900009F8002803D134600020009002E0641C2A
:1093A000072CE1D300BF0098F8BD0000B8300020C2
:1093B000F8B507460D46144600BF2646002E06D0D7
:1093C00000BF002211463046FEF72CFB00BF00BF55
:1093D0002878122808D0142802D0212808D100BFEC
:1093E000384600F0B1F803E0002000F0ADF800BF0F
:1093F00000BF0020F8BD00007FB503F003F904466C
:1094000000BF2546002D06D000BF00221146284689
:10941000FEF708FB00BF00BF03A90120FFF71CF9FE
:10942000044600BF2546002D06D000BF002211468D
:109430002846FEF7F7FA00BF00BF03A800F0A4FE1D
:10944000044600BF2546002D06D000BF002211466D
:109450002846FEF7E7FA00BF00BF062101A8023048
:10946000FDF74DF81E216846C180007A4008400093
:10947000401C694608726846007A022188436946A2
:1094800008726846007A1C2188430C3069460872CD
:109490006846007A20218843694608720721684699
:1094A0004172102181720B480090012168460171C0
:1094B0006946094800F0DAFF044600BF2546002D42
:1094C00006D000BF002211462846FEF7ABFA00BFC7
:1094D00000BF7FBDB193010040200020F8B50646D3
:1094E0000C4620780300FEF71FF80A060D0E0A0B43
:1094F0000C10110F1209FFF737F81BE000BF00BF77
:1095000000BF00BF00BF00BF00BF00BF00BF0322FD
:1095100001213046FEF754FF054600BF2F46002FBD
:1095200006D000BF002211463846FEF77BFA00BF86
:1095300000BF00BF00BFF8BD7047000001490860D0
:10954000704700004821002010B50446002006495D
:109550000870002C07D0042221460448FCF772FF53
:1095600001200149087010BD502100204C2100202D
:1095700030B587B001A91A4800F0A8FD044600BF25
:109580002546002D06D000BF002211462846FEF7D2
:1095900049FA00BF00BF0598014610310722114863
:1095A000FCF750FF14220F4824380499FCF74AFFB7
:1095B00010220C4810380599FCF744FF094824385C
:1095C00000DF044600BF2546002D06D000BF002264
:1095D00011462846FEF726FA00BF00BF07B030BD8F
:1095E0004C2100209230002010B58EB004461C2182
:1095F00007A8FCF786FF6846007F082188434118CA
:1096000068460177007F102188434118684601773A
:10961000002008900A900B900C900D90A17968465C
:109620008171284981800020009000BF6846007841
:1096300001090901684601700078F02188436946F4
:10964000087000BF00BF6846407801090901491C45
:10965000684641704078F021884310306946487070
:1096600000BF6846807806218843811C6846817067
:1096700080780821884301466846817080781021EF
:109680008843411868468170807841084900491C28
:1096900068468170142102A8FCF733FF01A80290EC
:1096A00068460390002101824182172181820020B7
:1096B0000690A0882346103302AA07A9A2DF0EB0A5
:1096C00010BD00003115000010B58EB004461C21FD
:1096D00007A8FCF716FF6846007F04218843011D98
:1096E00068460177002008900A900B900C900D902E
:1096F000A17968468171284981800020009000BFCF
:109700006846007801090901684601700078F02177
:1097100088436946087000BF00BF68464078010969
:109720000901491C684641704078F0218843103097
:109730006946487000BF6846807806218843811CCE
:1097400068468170807808218843014668468170A8
:1097500080781021884301466846817080784108EE
:109760004900491C68468170142102A8FCF7C9FE13
:1097700001A80290684603900021018241821421D1
:10978000818200200690A0882346083302AA07A9F8
:10979000A2DF0EB010BD00003215000030B58FB052
:1097A00004460D461C2108A8FCF7ABFE08A800786B
:1097B00002218843811C08A80170002009900B90A9
:1097C0000C900D900E90A179684681722849018114
:1097D0000020019000BF6846007901090901491C79
:1097E000684601710079F02188431030694608719C
:1097F00000BF00BF68464079010909016846417110
:109800004079F02188436946487100BF68468079F5
:1098100006218843811C684681718079082188432C
:109820000146684681718079102188430146684667
:109830008171807941084900491C68468171142171
:1098400003A8FCF75EFE02A8039001A80490022181
:10985000684681820021C182022101830795A08888
:109860002346203303AA08A9A2DF0FB030BD0000B1
:109870003415000030B585B0142214496846FCF751
:1098800099FC04F053FB124871DF022201A9104831
:10989000401CFEF73AFC1F200E490880881C7DDF23
:1098A00005466846FCF7ACFD044622466946094871
:1098B000801CFCF7C7FD6846FCF7A2FD054908803F
:1098C00005490648FCF71BFE05B030BDD8F801007D
:1098D0000120002010220020020400003E2200206F
:1098E000F7B584B006460020039070682038807F6A
:1098F00071682039C97F09020843044606980A287E
:1099000001DA07B0F0BD03990598401802900C22C7
:1099100095480299FCF796FD062294490298FCF7B7
:1099200041FD002806D0062291490298FCF73AFD35
:1099300000287DD10398801DC0B20390039905983B
:109940004518287847083B00FDF7EEFD0D0840411B
:10995000788796B0C4C5C6E6E7E8F0008548008879
:10996000A04203D1307C002800D1CAE7814804809E
:1099700081480068FEF7C4F968788008032800DA97
:10998000BFE728797D49096888420AD168797C490E
:109990000968884205D1A8797A490968884200D1C6
:1099A000AFE7287975490860687975490860A87932
:1099B000744908600B461B889AB2714B1B8899B298
:1099C0006E4B1B8898B203F045F9C9E0C8E06948BE
:1099D0000088A04203D1307C002800D191E765487F
:1099E000048068788008012800DA8AE72221664826
:1099F000FCF785FD1F206449088068788208291DCE
:109A00006148801CFCF71EFD687880085E4908806C
:109A100000BF6846007901090901491C01916846A7
:109A20000079F02188431030019000BF564800E0D3
:109A300098E00288811C01A87CDF91E01C2153483A
:109A4000FCF75FFD0321514801F066F814224F49ED
:109A5000891D022003F0BAFE82E01C214B48FCF76E
:109A600050FD0421494801F057F814224749891D47
:109A7000022003F0ABFE73E03E480088A04203D111
:109A8000307C002800D13CE73A4804803A4800681E
:109A9000FEF736F93B4B1B889AB2394B1B8899B2BB
:109AA000364B1B8898B203F0D5F859E0314800884E
:109AB000A04203D1307C002800D122E72D48048049
:109AC0002D480068FEF71CF9FF221146104603F0EE
:109AD000C1F845E000BF00BF26480088A04203D17E
:109AE000307C002800D10CE722480480224800681E
:109AF000FEF706F900202649087026480770002066
:109B000025490870012025490870002224491A4877
:109B10000068FEF7BFF823E000BF00BF15480088CB
:109B2000A04204D1307C002801D1EAE617E01148B8
:109B3000048011480068FEF7E3F806201449087015
:109B40001448077000201449087001201349087058
:109B50000022134908480068FEF79CF800E000BFA7
:109B600000BF00BF00BFCCE632220020082000204A
:109B70000220002034200020102000206820002037
:109B80006C20002070200020102200204C26002095
:109B900015200020142000202E2000202F2000203F
:109BA0009A190000F0B589B004460026FF20029003
:109BB00000BFFE480078002801D109B0F0BD00BF09
:109BC00000BFFB480068002800D1F6E700BF06A8E8
:109BD00000F0CCFA054600BF2F46002F06D000BF8C
:109BE000002211463846FDF71DFF00BF00BF0020D0
:109BF000019007900025201D049034216846818241
:109C0000FF2181760021017600200890208810280D
:109C100013D0A08808AA0221FFF78AFA0546002D72
:109C20000BD10C2108984843E2494018C17A684694
:109C300081760898C1B2684641762088142879D088
:109C400006DC10280BD0112879D0132874D1F5E048
:109C5000172872D0182871D05228F7D106E208AF21
:109C60003A460121D448FFF763FA00900098002893
:109C700007D102210C2238685043CE4A80188172E5
:109C800001E00420009000980546002D51D10126E6
:109C90001121684601730898C1B268464176A188CF
:109CA0000C2208985043C34A8018018102210C22DB
:109CB00008985043BF4A801881720C22089951437A
:109CC000BC4A88180722A11DFCF7BCFB607B304012
:109CD00000280AD0607B4008B849085CFF280AD0F9
:109CE000607B4008085C029005E0B34A02A9A01D11
:109CF000FFF732FB0546002D1BD10298C1B20C22A2
:109D000008985043AB4A8018C1720C210898484308
:109D100011464018807A082108430C2208995143C3
:109D2000A44A8918887269460298887606A8FEF7C0
:109D3000F3FBA5E141E002E0A1E1C0E075E10C2107
:109D4000089848439B494018807A022188430C2296
:109D500008995143974A891888720C2108984843FA
:109D600011464018807A0821084008280ED10C219D
:109D70000898484311464018807A402108404028FE
:109D80000FD1002106A8FFF741FA0AE06846807E5D
:109D9000FF2806D06946887E02F0FEFAFF20694659
:109DA000887610210C2208985043824A80188172CC
:109DB000012612206946087362E10C210898484385
:109DC0007C494018C07AFF2823D1E28902A90020EB
:109DD000FFF7C2FA0546002D1BD10298C1B20C2232
:109DE00008985043734A8018C1720C210898484360
:109DF00011464018807A082108430C2208995143E3
:109E00006C4A8918887269460298887606A8FEF717
:109E100083FB0C210898484366494018C07AFF2804
:109E200006D018210898484365494018001D019044
:109E3000A0880022019981DF054621E113206946AF
:109E40000873A0885A4A121D00217FDF0546002DA5
:109E500002D00795002631E00C2108984843554967
:109E60004018807A042108430C2208995143514A32
:109E70008918887201260C21089848431146401819
:109E8000C07AFF281AD000BF16206946087318222E
:109E9000089951434B4A8918081D1421FCF731FBDE
:109EA0000C210898484343494018807A20210843F0
:109EB0000C22089951433F4A89188872E0E00C212E
:109EC000089848433B494018807A042188430C2273
:109ED00008995143374A89188872142069460873D3
:109EE0000126A079002802D0A07907909CE01821D3
:109EF0000898484332494118E07A88701821089838
:109F000048432F494118A07A4870182208995143B4
:109F10002B4A8918081D142221460C31FCF792FAAD
:109F20000C210898484323494018807A4021084072
:109F3000402879D10C21089848431E494018807A5E
:109F4000082108430C22089951431A4A891888723B
:109F50000C210898484311464018C07AFF2851D177
:109F60000C22089850430A46811802A8FFF7B6F958
:109F70000546002D44D16946029888760298C1B200
:109F80000C22089850430B4A8018C172A1891C22E8
:109F9000029850430C4A80180183E07A4007C00FB2
:109FA000002828D01C22029951430FE09C21002058
:109FB000B8310020AC310020FFFF00009D210020BF
:109FC0007C31002094310020B83000203A4A8818B3
:109FD000102221462031FCF735FA1C210298484313
:109FE00035494018807E410849001C2202985043A0
:109FF000314A80188176012106A8FFF707F913E09E
:10A00000079511E00C21089848432C494018807AA4
:10A01000202108430C2208995143284A8918887244
:10A02000002106A8FFF7F2F82AE00C21089848431F
:10A0300022494018807A402108430C220899514354
:10A040001E4A8918887215206946087300200790F7
:10A0500001261B48807A80001A4A115806A88847B2
:10A060000546002D01D01848079009E01448807A71
:10A070008000144A115806A88847079000E000BFE6
:10A0800000BF002E16D003A906A8079AFDF7E6FC2C
:10A090006846007B12280DD100BF0C210898484368
:10A0A00006494018807A012802D00898FFF764F822
:10A0B00000BF00BF00BF80E5B8300020AC310020F9
:10A0C000B831002068F9010041800000024600BF5D
:10A0D00021480078002801D12048704700BF002A9D
:10A0E00002D11E48801DF8E7002902D11B48801DBF
:10A0F000F3E700BF1078012806DA10780C235843E4
:10A10000174B1858002801D11448E6E700BF00BFDC
:10A110009078072807DA90781C235843114BC01811
:10A12000807EFF2802D10D480830D6E700BF507866
:10A13000182358430C4BC018001DC86090781C238E
:10A140005843084BC3180B6100234B610020486043
:10A150008860086000BFC0E79C21002008800000E4
:10A16000B8310020B83000207C31002001460029A1
:10A1700001D104487047FF20087048708870C8708B
:10A180000020F7E70E8000007FB50646002E02D1C2
:10A19000354804B070BD00240BE000BF00210C2046
:10A1A0006043324A11500C2060438018817200BF16
:10A1B000641C002CF1D0002403E02046FEF7DCFFF5
:10A1C000641C002CF9D018212948FCF79AF90024C6
:10A1D00006E0204602F0E0F8FF2026490855641CFE
:10A1E000072CF6D35021684681810721C18122487E
:10A1F0000290224902A802F0EDFA0546002D30D166
:10A2000001201F4908703078002821D100241CE06B
:10A21000A1B26A46194802F055F90546002D0FD142
:10A220001C216143174A881800231C22694602F04A
:10A230005BFA0546002D07D000201149087006E0A2
:10A2400000200F49087002E0641C072CE0D308E0EE
:10A250006A469089D289504381B2084802F07AF95F
:10A260000546284695E700000E800000B831002022
:10A27000943100209D21002089A20100902100201E
:10A280009C210020B8300020FFB58BB00F461D4642
:10A2900000BF6F480068002801D10FB0F0BD00BFBB
:10A2A0001498502800D9F8E70120029007A8FFF77A
:10A2B0005DFF064600BF0196019E002E06D000BF3E
:10A2C000002211460198FDF7ADFB00BF00BF002141
:10A2D0006846017708A8017006951498059000203B
:10A2E000019017E0019881B203AA5A4802F0EAF8F7
:10A2F0000646002E0BD1082203A90B98FCF752F852
:10A30000002804D10198C1B26846817705E0019820
:10A31000401C019001980728E4D300BF6846807F65
:10A32000FF287BD0042F0AD11498502803D1202075
:10A3300008A9087066E0402008A9087062E0464954
:10A34000681A1C21FCF7DFF80446072C1DD205A86B
:10A3500009900D98002810D16946887F012181401D
:10A360003E4A12681140002901D0012100E000217D
:10A37000002902D10020029044E06946887F05F060
:10A3800015F8202008A908703CE03549681A182102
:10A39000FCF7B9F80446002C0DD105A8099020213E
:10A3A00008A8017068464477807F1C2148432A49E9
:10A3B0004018069026E02B49681A1821FCF7A3F8EC
:10A3C0000446002C19D1302108A801706846447752
:10A3D0000121C1770C20604323494018807A022173
:10A3E000084002280ED06946497F182251431D4A71
:10A3F00088181821FCF785F804E00020029040201E
:10A4000008A90870029801281FD1042F07D108A9B4
:10A4100008780321084308A908700FE015E0032F0E
:10A4200006D108A908780121084308A9087005E0A9
:10A4300008A908780221084308A9087005A809900E
:10A4400008A907A80D9AFDF709FB00BF25E7000042
:10A45000B831002090210020B83000209821002041
:10A460007C31002094310020AC31002070B50546CD
:10A470000C4600BF17480078002801D1164870BD6F
:10A4800000BF002D02D11448801DF8E7002C02D136
:10A490001148801DF3E72068002802D10E48801D76
:10A4A000EDE70E48006800280FD10C4920680860CD
:10A4B0000622A11D0948001DFBF7C4FF20790749AA
:10A4C000887200202870002601E0034E361F3046B7
:10A4D000D5E700009C21002008800000B831002052
:10A4E000F0B5044600BF30480078002801D12F485D
:10A4F000F0BD00BF002C02D12C48801DF8E70029D8
:10A5000002D12A48801DF3E70868002802D12748B5
:10A51000801DEDE78868002802D12448801DE7E708
:10A5200000BF2078012806DA20780C256843204DEA
:10A530002858002801D11D48DAE700BF0023002277
:10A54000002024E01C2545431A4EAD19AD7EED07D1
:10A55000ED0F002D08D11C254543AD1997008E68DD
:10A56000F551154EB054521C1C254543114EAD19E2
:10A57000AD7E02263540002D08D11C2545430D4EE9
:10A58000AD1910359F000E68F5515B1C401C072863
:10A5900005D20D799D4202D90D7B9542D2D80B711F
:10A5A0000A730020A4E700009C210020088000001E
:10A5B000B8310020B83000209D210020F8B5214E90
:10A5C00000200090022020490870002000F07AF856
:10A5D00000271E4803F0EAFB002826D11C491B482F
:10A5E00003F0A2FB002820D019484078801CC0B29C
:10A5F0000090174E24211748FBF781FF27231549A8
:10A600003046009A03F0FEFC044600BF2546002DAC
:10A6100006D000BF002211462846FDF703FA00BF0E
:10A6200000BF012701200C490870002F03D1012031
:10A6300000050A49C860002001F0A2FB002001F0DB
:10A6400097FBF8BD9C2000209D2000205A2D002063
:10A650001F2E0020F92D00209E2000200005005014
:10A66000014614480078144A127890421DD01148CF
:10A670000078401C0F4A107010460078022801D163
:10A68000002010700B48007880000C4A10580860B9
:10A690000B4A086812688018094A10601046006862
:10A6A0000002000A1060012070470020086000BF0F
:10A6B000FAE70000EC210020ED210020E421002039
:10A6C000E0210020002804D00121C907034A51607D
:10A6D00003E00121C907014A91607047006300400F
:10A6E00010B507490968074A914201D9114601E0AE
:10A6F000034909680846012104F0BAFB10BD0000B7
:10A70000D8200020A0860100044800780449097878
:10A71000884201D1012070470020FCE7F42000208E
:10A72000F5200020024800780249087070470000B8
:10A73000F4200020F5200020054800780830054965
:10A740000978884201D1012070470020FCE7000011
:10A75000F5200020F420002070B50446FFF7D4FF58
:10A76000002801D00E2070BD002C0DD00A480078C2
:10A770004007400F302148430849451830222946F8
:10A780002046FBF717FD00BF03480078401C024934
:10A7900008700020E7E70000F5200020582E002078
:10A7A00070B50446FFF7C8FF002809D000BF042693
:10A7B00000BF002211460420FDF734F900BF00BF9E
:10A7C0000A4800784007400F30214843084945189F
:10A7D000302221462846FBF7EDFC0448017800783A
:10A7E000401C024A10704807400F70BDF420002042
:10A7F000582E0020F0B50346002426E0164E366899
:10A8000024277E43154F3F68F01946689E4203D9BE
:10A810004668F61A46601DE046689B1B4668341978
:10A820000026466006750C4E35680B4F066A3E6082
:10A830000669002E08D00E193602360A86600669AF
:10A84000C66016680662156000BF03480068401CB9
:10A850000028D3D100BFF0BDDC210020D021002092
:10A860003EB500BF6846007801090901491C009106
:10A8700068460078F02188431030009000BF2748D8
:10A880000288811C68467CDF044600BF2546002DF7
:10A8900006D000BF002211462846FDF7C3F800BFCE
:10A8A00000BF0920800178DF044600BF2546002D47
:10A8B00006D000BF002211462846FDF7B3F800BFBE
:10A8C00000BF002001900290A021684681804900CD
:10A8D000C18000210181FF219131418101A87ADFEE
:10A8E000044600BF2546002D06D000BF00221146B9
:10A8F0002846FDF797F800BF00BF042077DF044625
:10A9000000BF2546002D06D000BF00221146284674
:10A91000FDF788F800BF00BF3EBD000010220020F8
:10A920000146002070470246002070470246002082
:10A9300070470000F8B5044600260027607818210B
:10A9400048431949085800281FD060780C21484313
:10A9500016494018807A40210840402815D1607877
:10A960000C21484311494018807A202108402028B2
:10A970000BD06078182148430B494018061D6078B9
:10A98000182148430849085A87B261780C2251437C
:10A99000064A891808893A463146A9DF0546002D3E
:10A9A00000D0034D2846F8BD94310020AC31002082
:10A9B0004180000070B505460C466178182251436D
:10A9C0000C4A881834231822294601F08DFE0646C9
:10A9D000002E0DD160781821484306490858401CC4
:10A9E000002805D10021607818225043014A1150F7
:10A9F000304670BD94310020F0B587B007460C4654
:10AA00001420019061780C225143294A8918088941
:10AA100001AA02A9AADF0646002E46D161781822B3
:10AA20005143244A8918081D69468A8802A9FBF700
:10AA3000B9FC002812D160780C2148431C49401809
:10AA4000807A0221084002282FD0617818225143D1
:10AA5000184A88181821FBF754FD26E06078182161
:10AA6000484314490858002801D0134D00E0134D05
:10AA7000694689886078182250430E4A11506178DF
:10AA8000182251430B4A8918081D69468A8802A971
:10AA9000FBF790FB607818225043064A8118342354
:10AAA00018223846A847064600BF002007B0F0BD70
:10AAB000AC3100209431002081CB010055C9010048
:10AAC00070B505462846FFF735FF0446002C02D135
:10AAD00000BF00BF0446204670BD70B505460E4657
:10AAE00031462846FFF766FF0446002C02D100BF1E
:10AAF00000BF0446204670BD70B505460E4631467F
:10AB00002846FFF779FF0446002C02D100BF00BFA2
:10AB10000446204670BD0000F3B581B00546002410
:10AB20000298032802D004284BD122E02E190622D5
:10AB300025493046FBF786FC06222449B01DFBF769
:10AB400081FC20460C30C4B206222046611CCCB2E7
:10AB50002A5407222046611CCCB22A5400222046E7
:10AB6000611CCCB22A54281906221849FBF76AFC4A
:10AB700028E02F19062214493846FBF763FC062209
:10AB80001249B81DFBF75EFC20460C30C4B22E19EA
:10AB90003078FE218843083030707078FC2188437B
:10ABA0000B4909888900FC2211400843707000207D
:10ABB000B070F07006480288811C301DFBF742FC23
:10ABC00000E000BF00BFFEBD3822002002200020B0
:10ABD00010220020002026E0154982008958012912
:10ABE00006D001218140134A12781140002918D063
:10ABF000012181400F4A12788A430E490A700146AA
:10AC0000083101228A400C498A60012181400B4AA7
:10AC100012788A4309490A70002205498300CA5004
:10AC20007047411CC8B20428D6DBFF20F8E70000BB
:10AC300040810040A220002000F50140A02000201B
:10AC400010B5152001F08AF80023032215211846BB
:10AC500001F0B2F8162001F081F80023032216213A
:10AC6000012001F0A9F8172001F078F80023032251
:10AC70001721022001F0A0F80021152001F088F82A
:10AC80000021162001F084F80021172001F080F83F
:10AC900010BD0000F0B58FB005460E4628680E9036
:10ACA00092496868FBF76CFF0D909049A868FBF724
:10ACB00067FF0C9000240021686804F0C1FC07D1F4
:10ACC0008B490C9804F010FD0A9007460B90D1E0D8
:10ACD0003F2109060C9804F0DDFC09D27F20C00555
:10ACE0000D9904F067FC03900C9904F0FDFC0CE056
:10ACF0000D990C9804F0F8FC03900D990C9804F051
:10AD000059FC0290039904F07FFD0990012080070F
:10AD10000C9904F0E9FC0390099904F075FD089082
:10AD200074490E98FBF72CFF07907349079804F0BD
:10AD300041FC0490079805906F49079804F064FD62
:10AD40000690002483E0A10004AA5058002104F0DA
:10AD5000A1FC09D2A10004AA50587F21C90504F022
:10AD600029FCA10004AA5050A10004AA50587F2138
:10AD7000C90504F011FD09D2A10004AA50587F2191
:10AD8000C90504F041FDA10004AA5050A10004AA85
:10AD900050585A4904F0A8FC7F21C905039004F0DB
:10ADA00079FC16D20899099804F02EFD53490190B8
:10ADB00004F09AFC0290A00004AA1158029804F032
:10ADC00093FC0390089904F0F5FBA10004AA5050ED
:10ADD0003CE0A10004AA50580121890704F084FC3A
:10ADE0007F21C905039004F055FC04D2A10004AAF8
:10ADF000099850502AE0A10004AA5058404904F094
:10AE000073FC01218907039004F044FC1AD2A000CE
:10AE100004AA11583B4804F0F7FC019008990998DE
:10AE200004F0F2FC0090019904F05EFC33490290BA
:10AE300004F05AFC0390089904F0BCFBA10004AA9A
:10AE4000505003E0A10004AA08985050641C032C41
:10AE500000DA78E72649049804F046FC07462449BE
:10AE6000059804F041FC0B902149069804F03CFC45
:10AE70000A9000BF1E49384604F08EFC01D21C48DF
:10AE800007E00021384604F005FC01D2002000E074
:10AE900038460990FBF724FF307015490B9804F0F1
:10AEA0007BFC01D2124807E000210B9804F0F2FB72
:10AEB00001D2002000E00B980990FBF711FF7070A1
:10AEC0000B490A9804F068FC01D2094807E0002108
:10AED0000A9804F0DFFB01D2002000E00A980990F4
:10AEE000FBF7FEFEB0700FB0F0BD00000000C842DE
:10AEF00000007F430000B443AAAAAA3E0000C0405D
:10AF000000004040ABAA2A3FF8B529480078002845
:10AF100000D1F8BD27480068002801D1012000E0D9
:10AF20000020054624480068002801D1012000E0E7
:10AF30000020064600BF002D14D1684651DF0446AC
:10AF4000052C01D101250CE0002C06D000BF002209
:10AF500011462046FCF766FD03E016490098096893
:10AF6000884700BF002E1AD1144800880090694617
:10AF70001348006861DF0446052C01D101260DE06D
:10AF8000002C06D000BF002211462046FCF74AFDE7
:10AF900004E00B48006808490968884700BF002D95
:10AFA00002D0002E00D000E0C5E700BF00BFB0E730
:10AFB000FC2100200C220020082200200422002076
:10AFC0000022002010B500200A490A680FE0012184
:10AFD00081401140002909D041B2CC06E40E012382
:10AFE000A340044C8034236000BF00BF401C2028D5
:10AFF000EDD310BD00E100E0FEB504460220019053
:10B00000A08A6B4601AA0021A5DF0546002D07D0C6
:10B01000E06A002802D02846E16A88470020FEBD89
:10B020006E46304604F08AF90746F807C00F00BFA5
:10B03000F5E7000001464888064A1288904206DB80
:10B040004888044A5288904201DC01207047002061
:10B05000FCE70000742100200C48008CC0B20128DD
:10B0600012D10A48808C0007000F00280CD1074835
:10B07000806AF0210840402806D10448C06A084090
:10B08000002801D1012070470020FCE7C00F00F02C
:10B090001948008CC0B201282CD11748808C0007B9
:10B0A000000F002826D11448806AF02108400028AB
:10B0B00006D11148C06A0840002801D1012070471C
:10B0C0000D48806AF0210840102806D10A48C06A5D
:10B0D0000840002801D10120F1E70748806AF021EB
:10B0E0000840302806D10448C06A0840002801D131
:10B0F0000120E4E70020E2E7C00F00F001468807E6
:10B10000800F002801D1012070470020FCE70000DB
:10B11000FEB52B48006801902A480078009040E076
:10B120000098C000284909684418257835E018209F
:10B13000684361680F18681CC5B2A078A84200D1A6
:10B1400000253878022802D0032823D10EE02421DC
:10B15000786848431D4909684618307D002804D0A6
:10B16000786803F095FB0020307514E00CE014497A
:10B17000096824225143154A126888180021017574
:10B180000F4A016A116000BF0D480068401C00288A
:10B19000EDD100E000BF00BF00BF6078A842C6D17B
:10B1A00000BF0098411EC9B200910028B8D10448E0
:10B1B00001680198814201D00120FEBD0020FCE71A
:10B1C000DC210020D4210020D8210020D021002023
:10B1D000FEB5074643480068029043480078019056
:10B1E00071E00198C00041490968451863E0781C86
:10B1F000002807D03E46242070433D490968441882
:10B20000276A29E02978182359436A685018297851
:10B21000491C29702978AA78914201D1002129700E
:10B22000466824217143324A12688C18017801293A
:10B2300002D1217D002900D03DE08168A160C16874
:10B24000E160016921614169E1612A4909780029C8
:10B2500001D00021A16000BF2749A0680968401AF9
:10B260000002000A2549884208D22349A0680968DB
:10B2700003F0EEF8E1684018606011E01E48A16834
:10B28000006803F0E5F80090E1680098814204D975
:10B29000E1680098081A606001E00020606000BF6B
:10B2A0000020A060E06001202075801E20623046F2
:10B2B00003F080FA00BF781C002898D128786978BC
:10B2C000884294D100BF0198411EC9B20191002863
:10B2D00087D1044801680298814201D00120FEBD57
:10B2E0000020FCE7DC210020D4210020D821002010
:10B2F000D0210020F5210020E0210020FFFF7F0069
:10B300001FB503F003FD01F01DFD02F0C1FE02F0C8
:10B31000B9FEFDF7B1F8FEF7ADFAFEF76DF8FFF7ED
:10B320009FFA0520FCF760FA02F0C4FDFDF788FEE5
:10B330001148009064200290262168460171022184
:10B340004171002141730321017368460FC802F067
:10B35000E1F9044600BF2546002D06D000BF0022BB
:10B3600011462846FCF75EFB00BF00BFFCF768FAF9
:10B3700000BF01F039F8FCE78FA641A5F8B50546F6
:10B380000E4614462879801CC7B22078801CC0194C
:10B390001F2801DD0C20F8BD781CC1B22278501C9A
:10B3A0002070B154FF212278501C2070B1542278B3
:10B3B0009119288803F0C8FF217840182070A888C8
:10B3C00000280EDDA868002801D10720E3E7AA883D
:10B3D00023789819A968FBF735F82078297940185F
:10B3E00020700020D7E7000030B593B00446607AA3
:10B3F000272806DC6068052803D354496068884222
:10B4000002D9072013B030BD0020129000BF10A851
:10B41000007A01090901491C10A80172007AF02183
:10B420008843103010A9087200BF00BF10A8407AEE
:10B4300001090901491C10A84172407AF021884392
:10B44000103010A9487200BF10A8807A06218843E6
:10B45000811C10A881721C210BA8FBF752F808A8C8
:10B46000007B02218843811C08A80173007B102106
:10B470008843411808A8017300200E9012A810906C
:10B4800000200C900F900A9008A8007AF0218843C1
:10B490000146103108A80172007A01090901491C0E
:10B4A00008A80172407AF02188430146103108A8AB
:10B4B0004172407A01090901491C08A84172807A49
:10B4C00008218843014608A88172807A10218843A8
:10B4D000014608A88172807A4108490008A8817253
:10B4E000807A06218843811C08A881721848017857
:10B4F00008A88171022168468184206806906068EE
:10B500000790217A08A80170617A4170142101A87E
:10B51000FAF7F7FF0921684681810021C1810921DD
:10B52000018209A8019006A805900AA8029009497D
:10B5300008890B460A3301AA0BA9A2DF0546002D94
:10B5400001D003205EE700205CE7000060EA000015
:10B5500076200020082A0020FFB581B004460F465F
:10B560001D4618480078002802D1082005B0F0BD1B
:10B5700015480078A04201DB002C01D11020F5E72E
:10B580001C210398018010494A68611E4901511825
:10B5900088783B460021039AA5DF0646002E01D09D
:10B5A0000320E3E7002D0AD007484268601E4001EF
:10B5B00010180146083107222846FAF743FF0020F9
:10B5C000D4E7000077200020082A0020FFB585B0CE
:10B5D00006460F463E480078002802D1082009B0F0
:10B5E000F0BD3C480078B04201DB002E01D11020B4
:10B5F000F5E76846808B1C2801DD0920EFE7002570
:10B6000034484168701E40010C182088401C20807E
:10B61000E078C007C00F012148400490049800283A
:10B6200008D0E07803210843E0702046103003F092
:10B63000A9FC03E02046103003F012FD0898002812
:10B6400002D1049800280CD002A871DF072202A9B9
:10B6500020460830FAF7AEFDE07804210843E07098
:10B6600000BF1D4800881D49884224D0A178684643
:10B67000018000218180039707A80290012168467C
:10B680008170694614480088A6DF0546002D11D058
:10B690001348854204D10020C0430F49088009E0C7
:10B6A000522D05D1002211460B480088A9DF01E088
:10B6B000032094E709E0A0783B4607AA0021A4DF15
:10B6C0000546002D01D0032089E7002087E7000010
:10B6D00077200020082A002078200020FFFF0000AB
:10B6E000023000000146024801800020704700003F
:10B6F00078200020F0B587B005462E480078002855
:10B7000002D1082007B0F0BD288A2B490989884258
:10B7100001D00F20F6E7002646E027484068710177
:10B7200040188078298888423CD1234840687101BC
:10B730004418E0784108012088430746002F03D0D1
:10B740002046103003F01EFCE07807210843E0702B
:10B750002088401C20802046103003F081FC05A882
:10B7600071DF072205A920460830FAF723FD002FD4
:10B7700001D0022100E0002168460170297E01729B
:10B78000711C418028461A300190012168460174DD
:10B79000072205A90930FAF755FE684601F080FF37
:10B7A0000020AFE7701CC6B203480078B042B4DC9A
:10B7B0001020A7E777200020082A0020F8B50446CB
:10B7C00017480078002801D10820F8BD0027781E0E
:10B7D000206000251AE01348406869014018C078CD
:10B7E000C007C00F002800D10EE00E4949686A0169
:10B7F00089180846103003F01FFC06462168B14244
:10B8000001D90127266000BF681CC5B20548007831
:10B81000A842E0DC002F01D10520D6E70020D4E7C4
:10B8200077200020082A0020FFB585B005461E4677
:10B830009B2D02DD072009B0F0BD2A4800780028C2
:10B8400001D00820F7E70120264908702648057036
:10B850002649274863DF0446002C01D00320EAE78D
:10B860002248017868468174012101821E4A08320B
:10B8700004A90120A0DF0446002C01D00320DAE750
:10B880000698019002966946079848730D7301A8BF
:10B89000FFF7AAFD14480078400100900098FAF7DD
:10B8A000CFFC1149486048680099FAF72AFE002742
:10B8B00009E0384600F066F90446002C01D0204625
:10B8C000B9E7781CC7B208480078B842F1DC7D219E
:10B8D000C9007143084603224B21C90003F0CEFB87
:10B8E0000020A8E777200020082A002076200020EA
:10B8F000ECF80100F0B58BB0044617460020387014
:10B900002B480078002802D108200BB0F0BD00269B
:10B9100048E02848406871014518E878C007C00F22
:10B92000002800D13CE00021099109A928461030E7
:10B9300003F000FC08A80079002830D038780028EF
:10B940002DD12846103003F081FB1C200190711C82
:10B95000C8B2002301AA02A9FFF7FEFD0A900A98C7
:10B96000002801D00A98D0E7701C207229786172F3
:10B9700028880012A0726846828802A920460B30EF
:10B98000FAF760FD68468088C01CE07107222946EE
:10B9900008312046FAF70EFC0120387000BF00BFC6
:10B9A000701CC6B203480078B042B2DC0020ACE79D
:10B9B00077200020082A0020F0B58DB005466D489C
:10B9C0000078002802D108200DB0F0BD2F7A6E7AE1
:10B9D000A97A09020E4328460B300B90E879C01E65
:10B9E00080B20A900A981C2801DD0920ECE7624821
:10B9F0000078B84201DB002F01D11020E4E75E4857
:10BA00004168781E40010C18E07841080120884305
:10BA100009900998002803D02046103003F0B2FAAC
:10BA20002088B04203D02046103003F019FB208854
:10BA3000B04202DC2088301A06E02088C821091AAA
:10BA40003046C8380818C83880B208902088C828FE
:10BA500002DA2088B04209DD2088C82803DB474984
:10BA60000898884202DB099800282FD00023384626
:10BA70000A9A0B99FFF7AAFDE07802210843E070CB
:10BA8000E07804218843E07026800722294620467A
:10BA90000830FAF78FFB0998002801D0022100E056
:10BAA0000021684601730A98C1B268460175C781D2
:10BAB0000B9804900021684601770722294615302B
:10BAC000FAF7C0FC03A801F0EBFD4EE02088B0427D
:10BAD0004BD11C200790002307AA19463846FFF7D0
